{
  "_format": "hh-sol-artifact-1",
  "contractName": "VeralixMasterRegistryUpgradeable",
  "sourceName": "contracts/VeralixMasterRegistryUpgradeable.sol",
  "abi": [
    {
      "inputs": [],
      "name": "AccessControlBadConfirmation",
      "type": "error"
    },
    {
      "inputs": [
        {
          "internalType": "address",
          "name": "account",
          "type": "address"
        },
        {
          "internalType": "bytes32",
          "name": "neededRole",
          "type": "bytes32"
        }
      ],
      "name": "AccessControlUnauthorizedAccount",
      "type": "error"
    },
    {
      "inputs": [
        {
          "internalType": "address",
          "name": "target",
          "type": "address"
        }
      ],
      "name": "AddressEmptyCode",
      "type": "error"
    },
    {
      "inputs": [
        {
          "internalType": "address",
          "name": "sender",
          "type": "address"
        },
        {
          "internalType": "uint256",
          "name": "balance",
          "type": "uint256"
        },
        {
          "internalType": "uint256",
          "name": "needed",
          "type": "uint256"
        },
        {
          "internalType": "uint256",
          "name": "tokenId",
          "type": "uint256"
        }
      ],
      "name": "ERC1155InsufficientBalance",
      "type": "error"
    },
    {
      "inputs": [
        {
          "internalType": "address",
          "name": "approver",
          "type": "address"
        }
      ],
      "name": "ERC1155InvalidApprover",
      "type": "error"
    },
    {
      "inputs": [
        {
          "internalType": "uint256",
          "name": "idsLength",
          "type": "uint256"
        },
        {
          "internalType": "uint256",
          "name": "valuesLength",
          "type": "uint256"
        }
      ],
      "name": "ERC1155InvalidArrayLength",
      "type": "error"
    },
    {
      "inputs": [
        {
          "internalType": "address",
          "name": "operator",
          "type": "address"
        }
      ],
      "name": "ERC1155InvalidOperator",
      "type": "error"
    },
    {
      "inputs": [
        {
          "internalType": "address",
          "name": "receiver",
          "type": "address"
        }
      ],
      "name": "ERC1155InvalidReceiver",
      "type": "error"
    },
    {
      "inputs": [
        {
          "internalType": "address",
          "name": "sender",
          "type": "address"
        }
      ],
      "name": "ERC1155InvalidSender",
      "type": "error"
    },
    {
      "inputs": [
        {
          "internalType": "address",
          "name": "operator",
          "type": "address"
        },
        {
          "internalType": "address",
          "name": "owner",
          "type": "address"
        }
      ],
      "name": "ERC1155MissingApprovalForAll",
      "type": "error"
    },
    {
      "inputs": [
        {
          "internalType": "address",
          "name": "implementation",
          "type": "address"
        }
      ],
      "name": "ERC1967InvalidImplementation",
      "type": "error"
    },
    {
      "inputs": [],
      "name": "ERC1967NonPayable",
      "type": "error"
    },
    {
      "inputs": [],
      "name": "EnforcedPause",
      "type": "error"
    },
    {
      "inputs": [],
      "name": "ExpectedPause",
      "type": "error"
    },
    {
      "inputs": [],
      "name": "FailedCall",
      "type": "error"
    },
    {
      "inputs": [],
      "name": "InvalidInitialization",
      "type": "error"
    },
    {
      "inputs": [],
      "name": "NotInitializing",
      "type": "error"
    },
    {
      "inputs": [
        {
          "internalType": "address",
          "name": "owner",
          "type": "address"
        }
      ],
      "name": "OwnableInvalidOwner",
      "type": "error"
    },
    {
      "inputs": [
        {
          "internalType": "address",
          "name": "account",
          "type": "address"
        }
      ],
      "name": "OwnableUnauthorizedAccount",
      "type": "error"
    },
    {
      "inputs": [],
      "name": "ReentrancyGuardReentrantCall",
      "type": "error"
    },
    {
      "inputs": [],
      "name": "UUPSUnauthorizedCallContext",
      "type": "error"
    },
    {
      "inputs": [
        {
          "internalType": "bytes32",
          "name": "slot",
          "type": "bytes32"
        }
      ],
      "name": "UUPSUnsupportedProxiableUUID",
      "type": "error"
    },
    {
      "anonymous": false,
      "inputs": [
        {
          "indexed": true,
          "internalType": "address",
          "name": "account",
          "type": "address"
        },
        {
          "indexed": false,
          "internalType": "bool",
          "name": "status",
          "type": "bool"
        }
      ],
      "name": "AddressBlacklisted",
      "type": "event"
    },
    {
      "anonymous": false,
      "inputs": [
        {
          "indexed": true,
          "internalType": "uint256",
          "name": "tokenId",
          "type": "uint256"
        },
        {
          "indexed": true,
          "internalType": "address",
          "name": "appraiser",
          "type": "address"
        },
        {
          "indexed": false,
          "internalType": "uint256",
          "name": "value",
          "type": "uint256"
        },
        {
          "indexed": false,
          "internalType": "string",
          "name": "currency",
          "type": "string"
        }
      ],
      "name": "AppraisalAdded",
      "type": "event"
    },
    {
      "anonymous": false,
      "inputs": [
        {
          "indexed": true,
          "internalType": "address",
          "name": "account",
          "type": "address"
        },
        {
          "indexed": true,
          "internalType": "address",
          "name": "operator",
          "type": "address"
        },
        {
          "indexed": false,
          "internalType": "bool",
          "name": "approved",
          "type": "bool"
        }
      ],
      "name": "ApprovalForAll",
      "type": "event"
    },
    {
      "anonymous": false,
      "inputs": [
        {
          "indexed": true,
          "internalType": "uint256",
          "name": "tokenId",
          "type": "uint256"
        },
        {
          "indexed": true,
          "internalType": "address",
          "name": "from",
          "type": "address"
        },
        {
          "indexed": true,
          "internalType": "address",
          "name": "to",
          "type": "address"
        }
      ],
      "name": "CertificateAssigned",
      "type": "event"
    },
    {
      "anonymous": false,
      "inputs": [
        {
          "indexed": true,
          "internalType": "uint256",
          "name": "tokenId",
          "type": "uint256"
        },
        {
          "indexed": true,
          "internalType": "address",
          "name": "burner",
          "type": "address"
        }
      ],
      "name": "CertificateBurned",
      "type": "event"
    },
    {
      "anonymous": false,
      "inputs": [
        {
          "indexed": true,
          "internalType": "uint256",
          "name": "tokenId",
          "type": "uint256"
        },
        {
          "indexed": false,
          "internalType": "string",
          "name": "certificateNumber",
          "type": "string"
        },
        {
          "indexed": true,
          "internalType": "address",
          "name": "jewelryStore",
          "type": "address"
        },
        {
          "indexed": true,
          "internalType": "address",
          "name": "owner",
          "type": "address"
        }
      ],
      "name": "CertificateCreated",
      "type": "event"
    },
    {
      "anonymous": false,
      "inputs": [
        {
          "indexed": true,
          "internalType": "uint256",
          "name": "tokenId",
          "type": "uint256"
        },
        {
          "indexed": false,
          "internalType": "string",
          "name": "newMetadataURI",
          "type": "string"
        }
      ],
      "name": "CertificateUpdated",
      "type": "event"
    },
    {
      "anonymous": false,
      "inputs": [
        {
          "indexed": false,
          "internalType": "uint256[]",
          "name": "tokenIds",
          "type": "uint256[]"
        },
        {
          "indexed": true,
          "internalType": "address",
          "name": "jewelryStore",
          "type": "address"
        },
        {
          "indexed": true,
          "internalType": "address",
          "name": "owner",
          "type": "address"
        }
      ],
      "name": "CertificatesBatchCreated",
      "type": "event"
    },
    {
      "anonymous": false,
      "inputs": [
        {
          "indexed": false,
          "internalType": "uint64",
          "name": "version",
          "type": "uint64"
        }
      ],
      "name": "Initialized",
      "type": "event"
    },
    {
      "anonymous": false,
      "inputs": [
        {
          "indexed": true,
          "internalType": "address",
          "name": "storeAddress",
          "type": "address"
        },
        {
          "indexed": false,
          "internalType": "string",
          "name": "storeName",
          "type": "string"
        }
      ],
      "name": "JewelryStoreRegistered",
      "type": "event"
    },
    {
      "anonymous": false,
      "inputs": [
        {
          "indexed": true,
          "internalType": "address",
          "name": "storeAddress",
          "type": "address"
        },
        {
          "indexed": false,
          "internalType": "string",
          "name": "reason",
          "type": "string"
        }
      ],
      "name": "JewelryStoreSuspended",
      "type": "event"
    },
    {
      "anonymous": false,
      "inputs": [
        {
          "indexed": true,
          "internalType": "address",
          "name": "previousOwner",
          "type": "address"
        },
        {
          "indexed": true,
          "internalType": "address",
          "name": "newOwner",
          "type": "address"
        }
      ],
      "name": "OwnershipTransferred",
      "type": "event"
    },
    {
      "anonymous": false,
      "inputs": [
        {
          "indexed": false,
          "internalType": "address",
          "name": "account",
          "type": "address"
        }
      ],
      "name": "Paused",
      "type": "event"
    },
    {
      "anonymous": false,
      "inputs": [
        {
          "indexed": true,
          "internalType": "bytes32",
          "name": "role",
          "type": "bytes32"
        },
        {
          "indexed": true,
          "internalType": "bytes32",
          "name": "previousAdminRole",
          "type": "bytes32"
        },
        {
          "indexed": true,
          "internalType": "bytes32",
          "name": "newAdminRole",
          "type": "bytes32"
        }
      ],
      "name": "RoleAdminChanged",
      "type": "event"
    },
    {
      "anonymous": false,
      "inputs": [
        {
          "indexed": true,
          "internalType": "bytes32",
          "name": "role",
          "type": "bytes32"
        },
        {
          "indexed": true,
          "internalType": "address",
          "name": "account",
          "type": "address"
        },
        {
          "indexed": true,
          "internalType": "address",
          "name": "sender",
          "type": "address"
        }
      ],
      "name": "RoleGranted",
      "type": "event"
    },
    {
      "anonymous": false,
      "inputs": [
        {
          "indexed": true,
          "internalType": "bytes32",
          "name": "role",
          "type": "bytes32"
        },
        {
          "indexed": true,
          "internalType": "address",
          "name": "account",
          "type": "address"
        },
        {
          "indexed": true,
          "internalType": "address",
          "name": "sender",
          "type": "address"
        }
      ],
      "name": "RoleRevoked",
      "type": "event"
    },
    {
      "anonymous": false,
      "inputs": [
        {
          "indexed": true,
          "internalType": "address",
          "name": "operator",
          "type": "address"
        },
        {
          "indexed": true,
          "internalType": "address",
          "name": "from",
          "type": "address"
        },
        {
          "indexed": true,
          "internalType": "address",
          "name": "to",
          "type": "address"
        },
        {
          "indexed": false,
          "internalType": "uint256[]",
          "name": "ids",
          "type": "uint256[]"
        },
        {
          "indexed": false,
          "internalType": "uint256[]",
          "name": "values",
          "type": "uint256[]"
        }
      ],
      "name": "TransferBatch",
      "type": "event"
    },
    {
      "anonymous": false,
      "inputs": [
        {
          "indexed": true,
          "internalType": "address",
          "name": "operator",
          "type": "address"
        },
        {
          "indexed": true,
          "internalType": "address",
          "name": "from",
          "type": "address"
        },
        {
          "indexed": true,
          "internalType": "address",
          "name": "to",
          "type": "address"
        },
        {
          "indexed": false,
          "internalType": "uint256",
          "name": "id",
          "type": "uint256"
        },
        {
          "indexed": false,
          "internalType": "uint256",
          "name": "value",
          "type": "uint256"
        }
      ],
      "name": "TransferSingle",
      "type": "event"
    },
    {
      "anonymous": false,
      "inputs": [
        {
          "indexed": false,
          "internalType": "string",
          "name": "value",
          "type": "string"
        },
        {
          "indexed": true,
          "internalType": "uint256",
          "name": "id",
          "type": "uint256"
        }
      ],
      "name": "URI",
      "type": "event"
    },
    {
      "anonymous": false,
      "inputs": [
        {
          "indexed": false,
          "internalType": "address",
          "name": "account",
          "type": "address"
        }
      ],
      "name": "Unpaused",
      "type": "event"
    },
    {
      "anonymous": false,
      "inputs": [
        {
          "indexed": true,
          "internalType": "address",
          "name": "implementation",
          "type": "address"
        }
      ],
      "name": "Upgraded",
      "type": "event"
    },
    {
      "inputs": [],
      "name": "APPRAISER_ROLE",
      "outputs": [
        {
          "internalType": "bytes32",
          "name": "",
          "type": "bytes32"
        }
      ],
      "stateMutability": "view",
      "type": "function"
    },
    {
      "inputs": [],
      "name": "ASSIGNER_ROLE",
      "outputs": [
        {
          "internalType": "bytes32",
          "name": "",
          "type": "bytes32"
        }
      ],
      "stateMutability": "view",
      "type": "function"
    },
    {
      "inputs": [],
      "name": "AUDITOR_ROLE",
      "outputs": [
        {
          "internalType": "bytes32",
          "name": "",
          "type": "bytes32"
        }
      ],
      "stateMutability": "view",
      "type": "function"
    },
    {
      "inputs": [],
      "name": "DEFAULT_ADMIN_ROLE",
      "outputs": [
        {
          "internalType": "bytes32",
          "name": "",
          "type": "bytes32"
        }
      ],
      "stateMutability": "view",
      "type": "function"
    },
    {
      "inputs": [],
      "name": "JEWELRY_STORE_ROLE",
      "outputs": [
        {
          "internalType": "bytes32",
          "name": "",
          "type": "bytes32"
        }
      ],
      "stateMutability": "view",
      "type": "function"
    },
    {
      "inputs": [],
      "name": "MINTER_ROLE",
      "outputs": [
        {
          "internalType": "bytes32",
          "name": "",
          "type": "bytes32"
        }
      ],
      "stateMutability": "view",
      "type": "function"
    },
    {
      "inputs": [],
      "name": "UPDATER_ROLE",
      "outputs": [
        {
          "internalType": "bytes32",
          "name": "",
          "type": "bytes32"
        }
      ],
      "stateMutability": "view",
      "type": "function"
    },
    {
      "inputs": [],
      "name": "UPGRADE_INTERFACE_VERSION",
      "outputs": [
        {
          "internalType": "string",
          "name": "",
          "type": "string"
        }
      ],
      "stateMutability": "view",
      "type": "function"
    },
    {
      "inputs": [
        {
          "internalType": "uint256",
          "name": "tokenId",
          "type": "uint256"
        },
        {
          "internalType": "uint256",
          "name": "appraisalValue",
          "type": "uint256"
        },
        {
          "internalType": "string",
          "name": "currency",
          "type": "string"
        },
        {
          "internalType": "string",
          "name": "appraisalDocument",
          "type": "string"
        },
        {
          "internalType": "string",
          "name": "notes",
          "type": "string"
        }
      ],
      "name": "addAppraisal",
      "outputs": [],
      "stateMutability": "nonpayable",
      "type": "function"
    },
    {
      "inputs": [
        {
          "internalType": "uint256",
          "name": "tokenId",
          "type": "uint256"
        },
        {
          "internalType": "address",
          "name": "newOwner",
          "type": "address"
        }
      ],
      "name": "assignCertificate",
      "outputs": [],
      "stateMutability": "nonpayable",
      "type": "function"
    },
    {
      "inputs": [
        {
          "internalType": "address",
          "name": "account",
          "type": "address"
        },
        {
          "internalType": "uint256",
          "name": "id",
          "type": "uint256"
        }
      ],
      "name": "balanceOf",
      "outputs": [
        {
          "internalType": "uint256",
          "name": "",
          "type": "uint256"
        }
      ],
      "stateMutability": "view",
      "type": "function"
    },
    {
      "inputs": [
        {
          "internalType": "address[]",
          "name": "accounts",
          "type": "address[]"
        },
        {
          "internalType": "uint256[]",
          "name": "ids",
          "type": "uint256[]"
        }
      ],
      "name": "balanceOfBatch",
      "outputs": [
        {
          "internalType": "uint256[]",
          "name": "",
          "type": "uint256[]"
        }
      ],
      "stateMutability": "view",
      "type": "function"
    },
    {
      "inputs": [
        {
          "internalType": "address",
          "name": "account",
          "type": "address"
        },
        {
          "internalType": "bool",
          "name": "status",
          "type": "bool"
        }
      ],
      "name": "blacklistAddress",
      "outputs": [],
      "stateMutability": "nonpayable",
      "type": "function"
    },
    {
      "inputs": [
        {
          "internalType": "address",
          "name": "",
          "type": "address"
        }
      ],
      "name": "blacklistedAddresses",
      "outputs": [
        {
          "internalType": "bool",
          "name": "",
          "type": "bool"
        }
      ],
      "stateMutability": "view",
      "type": "function"
    },
    {
      "inputs": [
        {
          "internalType": "uint256",
          "name": "tokenId",
          "type": "uint256"
        }
      ],
      "name": "burnCertificate",
      "outputs": [],
      "stateMutability": "nonpayable",
      "type": "function"
    },
    {
      "inputs": [
        {
          "internalType": "uint256",
          "name": "",
          "type": "uint256"
        }
      ],
      "name": "burnedTokens",
      "outputs": [
        {
          "internalType": "bool",
          "name": "",
          "type": "bool"
        }
      ],
      "stateMutability": "view",
      "type": "function"
    },
    {
      "inputs": [
        {
          "internalType": "string",
          "name": "",
          "type": "string"
        }
      ],
      "name": "certificateNumberToTokenId",
      "outputs": [
        {
          "internalType": "uint256",
          "name": "",
          "type": "uint256"
        }
      ],
      "stateMutability": "view",
      "type": "function"
    },
    {
      "inputs": [
        {
          "internalType": "uint256",
          "name": "",
          "type": "uint256"
        }
      ],
      "name": "certificates",
      "outputs": [
        {
          "internalType": "uint256",
          "name": "tokenId",
          "type": "uint256"
        },
        {
          "internalType": "string",
          "name": "certificateNumber",
          "type": "string"
        },
        {
          "internalType": "string",
          "name": "jewelryType",
          "type": "string"
        },
        {
          "internalType": "string",
          "name": "description",
          "type": "string"
        },
        {
          "internalType": "string",
          "name": "imageHash",
          "type": "string"
        },
        {
          "internalType": "string",
          "name": "metadataURI",
          "type": "string"
        },
        {
          "internalType": "address",
          "name": "currentOwner",
          "type": "address"
        },
        {
          "internalType": "address",
          "name": "jewelryStore",
          "type": "address"
        },
        {
          "internalType": "uint256",
          "name": "creationDate",
          "type": "uint256"
        },
        {
          "internalType": "uint256",
          "name": "lastUpdate",
          "type": "uint256"
        },
        {
          "internalType": "bool",
          "name": "isActive",
          "type": "bool"
        },
        {
          "internalType": "bool",
          "name": "isTransferable",
          "type": "bool"
        },
        {
          "internalType": "uint256",
          "name": "appraisalValue",
          "type": "uint256"
        },
        {
          "internalType": "string",
          "name": "appraisalCurrency",
          "type": "string"
        }
      ],
      "stateMutability": "view",
      "type": "function"
    },
    {
      "inputs": [
        {
          "internalType": "string",
          "name": "certificateNumber",
          "type": "string"
        },
        {
          "internalType": "string",
          "name": "jewelryType",
          "type": "string"
        },
        {
          "internalType": "string",
          "name": "description",
          "type": "string"
        },
        {
          "internalType": "string",
          "name": "imageHash",
          "type": "string"
        },
        {
          "internalType": "string",
          "name": "metadataURI",
          "type": "string"
        },
        {
          "internalType": "address",
          "name": "owner",
          "type": "address"
        },
        {
          "internalType": "uint256",
          "name": "appraisalValue",
          "type": "uint256"
        },
        {
          "internalType": "string",
          "name": "appraisalCurrency",
          "type": "string"
        }
      ],
      "name": "createCertificate",
      "outputs": [
        {
          "internalType": "uint256",
          "name": "",
          "type": "uint256"
        }
      ],
      "stateMutability": "nonpayable",
      "type": "function"
    },
    {
      "inputs": [
        {
          "internalType": "string[]",
          "name": "certificateNumbers",
          "type": "string[]"
        },
        {
          "internalType": "string[]",
          "name": "metadataURIs",
          "type": "string[]"
        },
        {
          "internalType": "address",
          "name": "owner",
          "type": "address"
        }
      ],
      "name": "createCertificatesBatchSingleOwner",
      "outputs": [
        {
          "internalType": "uint256[]",
          "name": "",
          "type": "uint256[]"
        }
      ],
      "stateMutability": "nonpayable",
      "type": "function"
    },
    {
      "inputs": [
        {
          "internalType": "uint256",
          "name": "tokenId",
          "type": "uint256"
        }
      ],
      "name": "getCertificate",
      "outputs": [
        {
          "components": [
            {
              "internalType": "uint256",
              "name": "tokenId",
              "type": "uint256"
            },
            {
              "internalType": "string",
              "name": "certificateNumber",
              "type": "string"
            },
            {
              "internalType": "string",
              "name": "jewelryType",
              "type": "string"
            },
            {
              "internalType": "string",
              "name": "description",
              "type": "string"
            },
            {
              "internalType": "string",
              "name": "imageHash",
              "type": "string"
            },
            {
              "internalType": "string",
              "name": "metadataURI",
              "type": "string"
            },
            {
              "internalType": "address",
              "name": "currentOwner",
              "type": "address"
            },
            {
              "internalType": "address",
              "name": "jewelryStore",
              "type": "address"
            },
            {
              "internalType": "uint256",
              "name": "creationDate",
              "type": "uint256"
            },
            {
              "internalType": "uint256",
              "name": "lastUpdate",
              "type": "uint256"
            },
            {
              "internalType": "bool",
              "name": "isActive",
              "type": "bool"
            },
            {
              "internalType": "bool",
              "name": "isTransferable",
              "type": "bool"
            },
            {
              "internalType": "uint256",
              "name": "appraisalValue",
              "type": "uint256"
            },
            {
              "internalType": "string",
              "name": "appraisalCurrency",
              "type": "string"
            }
          ],
          "internalType": "struct VeralixMasterRegistryUpgradeable.Certificate",
          "name": "",
          "type": "tuple"
        }
      ],
      "stateMutability": "view",
      "type": "function"
    },
    {
      "inputs": [
        {
          "internalType": "address",
          "name": "storeAddress",
          "type": "address"
        }
      ],
      "name": "getJewelryStore",
      "outputs": [
        {
          "components": [
            {
              "internalType": "address",
              "name": "storeAddress",
              "type": "address"
            },
            {
              "internalType": "string",
              "name": "storeName",
              "type": "string"
            },
            {
              "internalType": "string",
              "name": "licenseNumber",
              "type": "string"
            },
            {
              "internalType": "string",
              "name": "contactInfo",
              "type": "string"
            },
            {
              "internalType": "bool",
              "name": "isActive",
              "type": "bool"
            },
            {
              "internalType": "bool",
              "name": "isVerified",
              "type": "bool"
            },
            {
              "internalType": "uint256",
              "name": "registrationDate",
              "type": "uint256"
            },
            {
              "internalType": "uint256",
              "name": "certificatesIssued",
              "type": "uint256"
            },
            {
              "internalType": "string[]",
              "name": "specializations",
              "type": "string[]"
            }
          ],
          "internalType": "struct VeralixMasterRegistryUpgradeable.JewelryStore",
          "name": "",
          "type": "tuple"
        }
      ],
      "stateMutability": "view",
      "type": "function"
    },
    {
      "inputs": [],
      "name": "getRegisteredStores",
      "outputs": [
        {
          "internalType": "address[]",
          "name": "",
          "type": "address[]"
        }
      ],
      "stateMutability": "view",
      "type": "function"
    },
    {
      "inputs": [
        {
          "internalType": "bytes32",
          "name": "role",
          "type": "bytes32"
        }
      ],
      "name": "getRoleAdmin",
      "outputs": [
        {
          "internalType": "bytes32",
          "name": "",
          "type": "bytes32"
        }
      ],
      "stateMutability": "view",
      "type": "function"
    },
    {
      "inputs": [
        {
          "internalType": "uint256",
          "name": "tokenId",
          "type": "uint256"
        }
      ],
      "name": "getTokenAppraisals",
      "outputs": [
        {
          "components": [
            {
              "internalType": "uint256",
              "name": "tokenId",
              "type": "uint256"
            },
            {
              "internalType": "address",
              "name": "appraiser",
              "type": "address"
            },
            {
              "internalType": "uint256",
              "name": "appraisalValue",
              "type": "uint256"
            },
            {
              "internalType": "string",
              "name": "currency",
              "type": "string"
            },
            {
              "internalType": "uint256",
              "name": "appraisalDate",
              "type": "uint256"
            },
            {
              "internalType": "string",
              "name": "appraisalDocument",
              "type": "string"
            },
            {
              "internalType": "bool",
              "name": "isValid",
              "type": "bool"
            },
            {
              "internalType": "string",
              "name": "notes",
              "type": "string"
            }
          ],
          "internalType": "struct VeralixMasterRegistryUpgradeable.Appraisal[]",
          "name": "",
          "type": "tuple[]"
        }
      ],
      "stateMutability": "view",
      "type": "function"
    },
    {
      "inputs": [
        {
          "internalType": "string",
          "name": "certificateNumber",
          "type": "string"
        }
      ],
      "name": "getTokenIdByCertificateNumber",
      "outputs": [
        {
          "internalType": "uint256",
          "name": "",
          "type": "uint256"
        }
      ],
      "stateMutability": "view",
      "type": "function"
    },
    {
      "inputs": [
        {
          "internalType": "bytes32",
          "name": "role",
          "type": "bytes32"
        },
        {
          "internalType": "address",
          "name": "account",
          "type": "address"
        }
      ],
      "name": "grantRole",
      "outputs": [],
      "stateMutability": "nonpayable",
      "type": "function"
    },
    {
      "inputs": [
        {
          "internalType": "bytes32",
          "name": "role",
          "type": "bytes32"
        },
        {
          "internalType": "address",
          "name": "account",
          "type": "address"
        }
      ],
      "name": "hasRole",
      "outputs": [
        {
          "internalType": "bool",
          "name": "",
          "type": "bool"
        }
      ],
      "stateMutability": "view",
      "type": "function"
    },
    {
      "inputs": [
        {
          "internalType": "string",
          "name": "baseURI",
          "type": "string"
        }
      ],
      "name": "initialize",
      "outputs": [],
      "stateMutability": "nonpayable",
      "type": "function"
    },
    {
      "inputs": [
        {
          "internalType": "address",
          "name": "account",
          "type": "address"
        },
        {
          "internalType": "address",
          "name": "operator",
          "type": "address"
        }
      ],
      "name": "isApprovedForAll",
      "outputs": [
        {
          "internalType": "bool",
          "name": "",
          "type": "bool"
        }
      ],
      "stateMutability": "view",
      "type": "function"
    },
    {
      "inputs": [
        {
          "internalType": "address",
          "name": "",
          "type": "address"
        }
      ],
      "name": "jewelryStores",
      "outputs": [
        {
          "internalType": "address",
          "name": "storeAddress",
          "type": "address"
        },
        {
          "internalType": "string",
          "name": "storeName",
          "type": "string"
        },
        {
          "internalType": "string",
          "name": "licenseNumber",
          "type": "string"
        },
        {
          "internalType": "string",
          "name": "contactInfo",
          "type": "string"
        },
        {
          "internalType": "bool",
          "name": "isActive",
          "type": "bool"
        },
        {
          "internalType": "bool",
          "name": "isVerified",
          "type": "bool"
        },
        {
          "internalType": "uint256",
          "name": "registrationDate",
          "type": "uint256"
        },
        {
          "internalType": "uint256",
          "name": "certificatesIssued",
          "type": "uint256"
        }
      ],
      "stateMutability": "view",
      "type": "function"
    },
    {
      "inputs": [],
      "name": "owner",
      "outputs": [
        {
          "internalType": "address",
          "name": "",
          "type": "address"
        }
      ],
      "stateMutability": "view",
      "type": "function"
    },
    {
      "inputs": [],
      "name": "pause",
      "outputs": [],
      "stateMutability": "nonpayable",
      "type": "function"
    },
    {
      "inputs": [],
      "name": "paused",
      "outputs": [
        {
          "internalType": "bool",
          "name": "",
          "type": "bool"
        }
      ],
      "stateMutability": "view",
      "type": "function"
    },
    {
      "inputs": [],
      "name": "proxiableUUID",
      "outputs": [
        {
          "internalType": "bytes32",
          "name": "",
          "type": "bytes32"
        }
      ],
      "stateMutability": "view",
      "type": "function"
    },
    {
      "inputs": [
        {
          "internalType": "address",
          "name": "storeAddress",
          "type": "address"
        },
        {
          "internalType": "string",
          "name": "storeName",
          "type": "string"
        },
        {
          "internalType": "string",
          "name": "licenseNumber",
          "type": "string"
        },
        {
          "internalType": "string",
          "name": "contactInfo",
          "type": "string"
        },
        {
          "internalType": "string[]",
          "name": "specializations",
          "type": "string[]"
        }
      ],
      "name": "registerJewelryStore",
      "outputs": [],
      "stateMutability": "nonpayable",
      "type": "function"
    },
    {
      "inputs": [
        {
          "internalType": "uint256",
          "name": "",
          "type": "uint256"
        }
      ],
      "name": "registeredStores",
      "outputs": [
        {
          "internalType": "address",
          "name": "",
          "type": "address"
        }
      ],
      "stateMutability": "view",
      "type": "function"
    },
    {
      "inputs": [],
      "name": "renounceOwnership",
      "outputs": [],
      "stateMutability": "nonpayable",
      "type": "function"
    },
    {
      "inputs": [
        {
          "internalType": "bytes32",
          "name": "role",
          "type": "bytes32"
        },
        {
          "internalType": "address",
          "name": "callerConfirmation",
          "type": "address"
        }
      ],
      "name": "renounceRole",
      "outputs": [],
      "stateMutability": "nonpayable",
      "type": "function"
    },
    {
      "inputs": [
        {
          "internalType": "bytes32",
          "name": "role",
          "type": "bytes32"
        },
        {
          "internalType": "address",
          "name": "account",
          "type": "address"
        }
      ],
      "name": "revokeRole",
      "outputs": [],
      "stateMutability": "nonpayable",
      "type": "function"
    },
    {
      "inputs": [
        {
          "internalType": "address",
          "name": "from",
          "type": "address"
        },
        {
          "internalType": "address",
          "name": "to",
          "type": "address"
        },
        {
          "internalType": "uint256[]",
          "name": "ids",
          "type": "uint256[]"
        },
        {
          "internalType": "uint256[]",
          "name": "values",
          "type": "uint256[]"
        },
        {
          "internalType": "bytes",
          "name": "data",
          "type": "bytes"
        }
      ],
      "name": "safeBatchTransferFrom",
      "outputs": [],
      "stateMutability": "nonpayable",
      "type": "function"
    },
    {
      "inputs": [
        {
          "internalType": "address",
          "name": "from",
          "type": "address"
        },
        {
          "internalType": "address",
          "name": "to",
          "type": "address"
        },
        {
          "internalType": "uint256",
          "name": "id",
          "type": "uint256"
        },
        {
          "internalType": "uint256",
          "name": "value",
          "type": "uint256"
        },
        {
          "internalType": "bytes",
          "name": "data",
          "type": "bytes"
        }
      ],
      "name": "safeTransferFrom",
      "outputs": [],
      "stateMutability": "nonpayable",
      "type": "function"
    },
    {
      "inputs": [
        {
          "internalType": "address",
          "name": "operator",
          "type": "address"
        },
        {
          "internalType": "bool",
          "name": "approved",
          "type": "bool"
        }
      ],
      "name": "setApprovalForAll",
      "outputs": [],
      "stateMutability": "nonpayable",
      "type": "function"
    },
    {
      "inputs": [
        {
          "internalType": "bytes4",
          "name": "interfaceId",
          "type": "bytes4"
        }
      ],
      "name": "supportsInterface",
      "outputs": [
        {
          "internalType": "bool",
          "name": "",
          "type": "bool"
        }
      ],
      "stateMutability": "view",
      "type": "function"
    },
    {
      "inputs": [
        {
          "internalType": "address",
          "name": "storeAddress",
          "type": "address"
        },
        {
          "internalType": "string",
          "name": "reason",
          "type": "string"
        }
      ],
      "name": "suspendJewelryStore",
      "outputs": [],
      "stateMutability": "nonpayable",
      "type": "function"
    },
    {
      "inputs": [
        {
          "internalType": "uint256",
          "name": "",
          "type": "uint256"
        },
        {
          "internalType": "uint256",
          "name": "",
          "type": "uint256"
        }
      ],
      "name": "tokenAppraisals",
      "outputs": [
        {
          "internalType": "uint256",
          "name": "tokenId",
          "type": "uint256"
        },
        {
          "internalType": "address",
          "name": "appraiser",
          "type": "address"
        },
        {
          "internalType": "uint256",
          "name": "appraisalValue",
          "type": "uint256"
        },
        {
          "internalType": "string",
          "name": "currency",
          "type": "string"
        },
        {
          "internalType": "uint256",
          "name": "appraisalDate",
          "type": "uint256"
        },
        {
          "internalType": "string",
          "name": "appraisalDocument",
          "type": "string"
        },
        {
          "internalType": "bool",
          "name": "isValid",
          "type": "bool"
        },
        {
          "internalType": "string",
          "name": "notes",
          "type": "string"
        }
      ],
      "stateMutability": "view",
      "type": "function"
    },
    {
      "inputs": [],
      "name": "totalSupply",
      "outputs": [
        {
          "internalType": "uint256",
          "name": "",
          "type": "uint256"
        }
      ],
      "stateMutability": "view",
      "type": "function"
    },
    {
      "inputs": [
        {
          "internalType": "address",
          "name": "newOwner",
          "type": "address"
        }
      ],
      "name": "transferOwnership",
      "outputs": [],
      "stateMutability": "nonpayable",
      "type": "function"
    },
    {
      "inputs": [],
      "name": "unpause",
      "outputs": [],
      "stateMutability": "nonpayable",
      "type": "function"
    },
    {
      "inputs": [
        {
          "internalType": "uint256",
          "name": "tokenId",
          "type": "uint256"
        },
        {
          "internalType": "string",
          "name": "newMetadataURI",
          "type": "string"
        }
      ],
      "name": "updateCertificateMetadata",
      "outputs": [],
      "stateMutability": "nonpayable",
      "type": "function"
    },
    {
      "inputs": [
        {
          "internalType": "uint256[]",
          "name": "tokenIds",
          "type": "uint256[]"
        },
        {
          "internalType": "string[]",
          "name": "newMetadataURIs",
          "type": "string[]"
        }
      ],
      "name": "updateCertificateMetadataBatch",
      "outputs": [],
      "stateMutability": "nonpayable",
      "type": "function"
    },
    {
      "inputs": [
        {
          "internalType": "address",
          "name": "newImplementation",
          "type": "address"
        },
        {
          "internalType": "bytes",
          "name": "data",
          "type": "bytes"
        }
      ],
      "name": "upgradeToAndCall",
      "outputs": [],
      "stateMutability": "payable",
      "type": "function"
    },
    {
      "inputs": [
        {
          "internalType": "uint256",
          "name": "",
          "type": "uint256"
        }
      ],
      "name": "uri",
      "outputs": [
        {
          "internalType": "string",
          "name": "",
          "type": "string"
        }
      ],
      "stateMutability": "view",
      "type": "function"
    }
  ],
  "bytecode": "0x60a0806040523461002b5730608052615ac6908162000031823960805181818161161801526118eb0152f35b600080fdfe6080604052600436101561001257600080fd5b60003560e01c8062fdd58e1461036157806301ffc9a71461035c578063054c6c591461035757806306310e21146103525780630e89341c1461034d57806312480ff11461034857806318160ddd146103435780631c348dd31461033e578063248a9ca3146103395780632eb2c2d6146103345780632eb979b31461032f5780632f2ff15d1461032a57806336568abe146103255780633f4ba83a1461032057806343b6fe00146102f8578063455a43961461031b57806346184dc41461031657806347e63380146103115780634e1273f41461030c5780634f1ef2861461030757806351640fee1461030257806352d1902d146102fd57806353dcc366146102f85780635439b68a146102f35780635c975abb146102ee578063663b3e22146102e95780636b953891146102e45780636c93ea46146102df5780636e1d616e146102da5780636e5a2e41146102d5578063715018a6146102d057806377faa44f146102cb5780638456cb59146102c65780638afbd497146102c15780638da5cb5b146102bc57806391d14854146102b757806393b16b45146102b25780639aa85d00146102ad578063a217fddf146102a8578063a22cb465146102a3578063acdd7c7e1461029e578063ad3cb1cc14610299578063bf10f39614610294578063d53913931461028f578063d547741f1461028a578063d551a21414610285578063d5749d4214610280578063d86ede4a1461027b578063e985e9c514610276578063f242432a14610271578063f2fde38b1461026c578063f62d1888146102675763fff5465b1461026257600080fd5b613140565b612f17565b612eee565b612e46565b612e15565b612c14565b612bd5565b612b0e565b612ac2565b612a87565b612a4c565b612a06565b6129b8565b612940565b612924565b6127b6565b6126a2565b612643565b61260d565b61257d565b612441565b61226e565b612203565b611ed9565b611e9e565b611c6d565b611be1565b611aa4565b6119a2565b611947565b6112ab565b6118d8565b611848565b6115d9565b61151f565b61149f565b611464565b6112f2565b61118c565b611145565b6110f9565b611029565b610ef6565b610da7565b610d76565b610d29565b610bf8565b610a36565b610998565b6104dd565b610455565b6103d7565b600435906001600160a01b038216820361037c57565b600080fd5b602435906001600160a01b038216820361037c57565b60a435906001600160a01b038216820361037c57565b604435906001600160a01b038216820361037c57565b35906001600160a01b038216820361037c57565b3461037c57604036600319011261037c57602061043a6103f5610366565b6024356000527f88be536d5240c274a3b1d3a1be54482fd9caa294f08c62a7cde569f49a3c4500835260406000209060018060a01b0316600052602052604060002090565b54604051908152f35b6001600160e01b031981160361037c57565b3461037c57602036600319011261037c57602060043561047481610443565b63ffffffff60e01b16637965db0b60e01b811490811561049a575b506040519015158152f35b636cdb3d1360e11b8114915081156104cc575b81156104bb575b503861048f565b6301ffc9a760e01b149050386104b4565b6303a24d0760e21b811491506104ad565b3461037c57604036600319011261037c576004356104f9610381565b3360009081527fc4ace3e9825e9c0e31f6bfe0307587a31e0f7e0a8fcde3632614313093ac5ea060205260408120549092919060ff168015610708575b61053f9061324b565b610547614785565b811515806106fc575b610559906132cf565b818352600560205261057260ff6040852054161561332b565b6001600160a01b03818116808552600460205260408520549093919061059b9060ff161561338c565b83156106915761066a906105d16105cc600a6105c1866000526000602052604060002090565b015460081c60ff1690565b6133ee565b826105f960066105eb836000526000602052604060002090565b01546001600160a01b031690565b9182169461060987871415613459565b610643816006610623856000526000602052604060002090565b0180546001600160a01b0319166001600160a01b03909216919091179055565b42600961065a846000526000602052604060002090565b01556106646129f3565b926147b0565b7f6080632022690532a64370168575eb712f301714cae97e67f927a2f9d912c0618480a480f35b60405162461bcd60e51b815260206004820152603760248201527f566572616c69784d617374657252656769737472793a206e6577206f776e657260448201527f2063616e6e6f74206265207a65726f20616464726573730000000000000000006064820152608490fd5b50600654821115610550565b50600080516020615971833981519152546001600160a01b03163314610536565b6001600160a01b031660009081527f88be536d5240c274a3b1d3a1be54482fd9caa294f08c62a7cde569f49a3c45016020526040902090565b90600182811c92168015610792575b602083101461077c57565b634e487b7160e01b600052602260045260246000fd5b91607f1691610771565b634e487b7160e01b600052604160045260246000fd5b6101c081019081106001600160401b038211176107ce57604052565b61079c565b61012081019081106001600160401b038211176107ce57604052565b602081019081106001600160401b038211176107ce57604052565b604081019081106001600160401b038211176107ce57604052565b90601f801991011681019081106001600160401b038211176107ce57604052565b9060405191826000825461085981610762565b908184526020946001916001811690816000146108c9575060011461088a575b50505061088892500383610825565b565b600090815285812095935091905b8183106108b15750506108889350820101388080610879565b85548884018501529485019487945091830191610898565b9250505061088894925060ff191682840152151560051b820101388080610879565b60005b8381106108fe5750506000910152565b81810151838201526020016108ee565b90602091610927815180928185528580860191016108eb565b601f01601f1916010190565b94989796939060e0969361096461098094610972936101009060018060a01b03168a528060208b015289019061090e565b90878203604089015261090e565b90858203606087015261090e565b9615156080840152151560a083015260c08201520152565b3461037c57602036600319011261037c576001600160a01b03806109ba610366565b166000526002602052604060002090815416610a1e6109db60018401610846565b916109e860028501610846565b936109f560038201610846565b91600482015490600660058401549301549360405197889760ff808660081c1695169389610933565b0390f35b906020610a3392818152019061090e565b90565b3461037c5760208060031936011261037c57604051600091600080516020615a718339815191528054610a6881610762565b80855291600191808316908115610af85750600114610a9e575b610a1e85610a9281890382610825565b60405191829182610a22565b60009081529294507ff429cb5e2ec84cbb765e76b31964a56ccde03e7a6122d6cc4afb19edc55edeed5b828410610ae55750505081610a1e93610a92928201019338610a82565b8054858501870152928501928101610ac8565b60ff191686860152505050151560051b8201019150610a9281610a1e38610a82565b6020808201908083528351809252604092604081018260408560051b8401019601946000925b858410610b51575050505050505090565b909192939495968580610be7600193603f198682030188528b51610bc8610bab61010083518552610b8f878501518887019060018060a01b03169052565b8a8401518b86015260609080828601519287015285019061090e565b6080808401519085015260a080840151908583039086015261090e565b60c0828101511515908401529160e0809201519181840391015261090e565b990194019401929594939190610b40565b3461037c5760208060031936011261037c57600480359081151580610d1d575b610c21906132cf565b60009180835260059360058152604091610c4260ff6040872054161561332b565b8452600393600382526040812092835494610c5c86610e1d565b96610c6a6040519889610825565b86885284880195845284842093955b878710610c8e5760405180610a1e8b82610b1a565b6008866001928c610cdf610ca0610de3565b8a548152868b01546001600160a01b0316858201529160028b01548a840152610cca888c01610846565b6060840152888b015460808401528a01610846565b60a0820152610cfe610cf560068b015460ff1690565b151560c0830152565b610d0a60078a01610846565b60e0820152815201950196019593610c79565b50600654821115610c18565b3461037c57600036600319011261037c576020600654604051908152f35b6000527f88be536d5240c274a3b1d3a1be54482fd9caa294f08c62a7cde569f49a3c4500602052604060002090565b3461037c57602036600319011261037c576004356000526005602052602060ff604060002054166040519015158152f35b3461037c57602036600319011261037c576004356000526000805160206159f18339815191526020526020600160406000200154604051908152f35b6040519061010082018281106001600160401b038211176107ce57604052565b60405190610888826107b2565b60405190610888826107d3565b6001600160401b0381116107ce5760051b60200190565b9080601f8301121561037c576020908235610e4e81610e1d565b93610e5c6040519586610825565b81855260208086019260051b82010192831161037c57602001905b828210610e85575050505090565b81358152908301908301610e77565b6001600160401b0381116107ce57601f01601f191660200190565b81601f8201121561037c57803590610ec682610e94565b92610ed46040519485610825565b8284526020838301011161037c57816000926020809301838601378301015290565b3461037c5760a036600319011261037c57610f0f610366565b610f17610381565b90604435916001600160401b039081841161037c57610f3b60049436908601610e34565b9060643583811161037c57610f539036908701610e34565b9260843590811161037c57610f6b9036908701610eaf565b936001600160a01b03808216903382141580610ffa575b610fcd57831615610fb55715610f9e57610f9c95506150dd565b005b604051626a0d4560e21b8152600081880152602490fd5b604051632bfa23e760e11b8152600081890152602490fd5b6040805163711bec9160e11b815233818b019081526001600160a01b038616602082015290918291010390fd5b5060ff6110213361100a86610729565b9060018060a01b0316600052602052604060002090565b541615610f82565b3461037c5761010036600319011261037c576001600160401b036004803582811161037c5761105b9036908301610eaf565b60243583811161037c576110729036908401610eaf565b9060443584811161037c5761108a9036908501610eaf565b60643585811161037c576110a19036908601610eaf565b60843586811161037c576110b89036908701610eaf565b906110c1610397565b9260e43597881161037c576110df6110e997610a1e99369101610eaf565b9560c435956134cb565b6040519081529081906020820190565b3461037c57604036600319011261037c57610f9c600435611118610381565b90806000526000805160206159f1833981519152602052611140600160406000200154614933565b614cb2565b3461037c57604036600319011261037c5761115e610381565b336001600160a01b0382160361117a57610f9c90600435614dbd565b60405163334bd91960e11b8152600490fd5b3461037c57600080600319360112611258578080526000805160206159f183398151915260209081526040808320336000908152925290205460ff168015611237575b6111d89061324b565b600080516020615a11833981519152805460ff8116156112255760ff191690557f5db9ee0a495bf2e6ff9c91a7834c1ba4fdd244a5e8aa4e537bd38aeae4b073aa6020604051338152a180f35b604051638dfc202b60e01b8152600490fd5b50600080516020615971833981519152546001600160a01b031633146111cf565b80fd5b602060031982011261037c57600435906001600160401b03821161037c57610a3391600401610eaf565b602061129e9181604051938285809451938492016108eb565b8101600181520301902090565b3461037c57602061043a6112be3661125b565b611285565b604090600319011261037c576004356001600160a01b038116810361037c5790602435801515810361037c5790565b3461037c57611300366112c3565b336000908152600080516020615991833981519152602052604090205490919060ff168015611443575b6113339061324b565b6001600160a01b038181169290919083156113e1576113ca816113b96113dc9461139f6113977f97b7af35c8c05eca90f543eb78b16fdf2664d3e6c9a907286f310647d9813b7198600080516020615971833981519152541660018060a01b031690565b891415613b4f565b6001600160a01b0316600090815260046020526040902090565b9060ff801983541691151516179055565b60405190151581529081906020820190565b0390a2005b60405162461bcd60e51b815260206004820152603460248201527f566572616c69784d617374657252656769737472793a2063616e6e6f7420626c60448201527361636b6c697374207a65726f206164647265737360601b6064820152608490fd5b50600080516020615971833981519152546001600160a01b0316331461132a565b3461037c57600036600319011261037c5760206040517f1ca4917a93bbf937a078cf9cc2b3d0c4aaac3367aae1018d3d982bb6e49887f18152f35b3461037c57600036600319011261037c5760206040517f73e573f9566d61418a34d5de3ff49360f9c51fec37f7486551670290f6285dab8152f35b90815180825260208080930193019160005b8281106114fa575050505090565b8351855293810193928101926001016114ec565b906020610a339281815201906114da565b3461037c57604036600319011261037c576004356001600160401b0380821161037c573660238301121561037c57816004013561155b81610e1d565b926115696040519485610825565b8184526020916024602086019160051b8301019136831161037c57602401905b8282106115c2578560243586811161037c57610a1e916115b06115b6923690600401610e34565b90613bf7565b6040519182918261150e565b8380916115ce846103c3565b815201910190611589565b604036600319011261037c576115ed610366565b6024356001600160401b03811161037c5761160c903690600401610eaf565b6001600160a01b0391907f00000000000000000000000000000000000000000000000000000000000000008316308114908115611717575b506117055760206004936116566148ed565b6040516352d1902d60e01b8152948591829086165afa600093816116d4575b5061169b57604051634c9c8ce360e01b81526001600160a01b0383166004820152602490fd5b906000805160206159b183398151915283036116bb57610f9c925061519e565b604051632a87526960e21b815260048101849052602490fd5b6116f791945060203d6020116116fe575b6116ef8183610825565b810190614df7565b9238611675565b503d6116e5565b60405163703e46dd60e11b8152600490fd5b9050836000805160206159b18339815191525416141538611644565b90610a339160208152815160208201526020820151906117616101c0928360408401526101e083019061090e565b916117c36117af61179b611787604088015196601f19978888830301606089015261090e565b60608801518787830301608088015261090e565b6080870151868683030160a087015261090e565b60a0860151858583030160c086015261090e565b60c08501516001600160a01b031660e08401529360e08101516001600160a01b03166101008481019190915281015161012090818501528101516101409081850152810151611819610160918286019015159052565b81015161182d610180918286019015159052565b810151906101a091828501520151928285030191015261090e565b3461037c57602036600319011261037c57604051611865816107b2565b6101a060009182815260609283602083015283604083015283808301528360808301528360a08301528060c08301528060e0830152806101008301528061012083015280610140830152806101608301526101808201520152610a1e6118cc600435613cb4565b60405191829182611733565b3461037c57600036600319011261037c577f00000000000000000000000000000000000000000000000000000000000000006001600160a01b031630036117055760206040516000805160206159b18339815191528152f35b634e487b7160e01b600052603260045260246000fd5b3461037c57602036600319011261037c5760043560075481101561037c5760076000527fa66cc928b5edb82af9bd49922954155ab7b0942694bea4ce44661d9a8736c68801546040516001600160a01b039091168152602090f35b3461037c57600036600319011261037c57602060ff600080516020615a1183398151915254166040519015158152f35b9a95611a4e90610a339f9d9993611a86999f9c978e90611a32611a909e99611a24611a709a611a16611a4097611a609b6101c09089528060208a015288019061090e565b90868203604088015261090e565b90848203606086015261090e565b91608081840391015261090e565b8d810360a08f01529061090e565b6001600160a01b03909d1660c08c0152565b6001600160a01b031660e08a0152565b6101008801526101208701521515610140860152565b1515610160840152565b6101808201526101a081840391015261090e565b3461037c57602036600319011261037c57600435600052600060205260406000208054610a1e611ad660018401610846565b91611ae360028501610846565b93611af060038201610846565b91611afd60048301610846565b90611b0a60058401610846565b60068401546001600160a01b031660078501546001600160a01b0316600886015491600987015493600a88015496611b49600c600b8b01549a01610846565b996040519d8e9d8e9960ff808d60081c169c169a6119d2565b81601f8201121561037c57803591602091611b7c84610e1d565b93611b8a6040519586610825565b808552838086019160051b8301019280841161037c57848301915b848310611bb55750505050505090565b82356001600160401b03811161037c578691611bd684848094890101610eaf565b815201920191611ba5565b3461037c5760a036600319011261037c57611bfa610366565b6001600160401b039060243582811161037c57611c1b903690600401610eaf565b60443583811161037c57611c33903690600401610eaf565b60643584811161037c57611c4b903690600401610eaf565b9160843594851161037c57611c67610f9c953690600401611b62565b93613ddb565b3461037c57604036600319011261037c576001600160401b0360043560243582811161037c57611ca1903690600401610eaf565b3360009081527f268477d1c17bf7595397186358fec802c44c92bb39292de205ad03cbfe096e02602090815260408220549194909160ff168015611e7d575b611ce99061324b565b611cf1614785565b83151580611e71575b611d03906132cf565b83855260058252611d1b60ff6040872054161561332b565b611d278351151561423f565b838552848252600560408620019183519182116107ce57611d5282611d4c8554610762565b85613933565b80601f8311600114611ddf575091611da6827f2515fafa24747db25d60fb3f86f82f18e969dee98607cc863ced46768089b9299593611dce958991611dd4575b508160011b916000199060031b1c19161790565b90555b426009611dc0866000526000602052604060002090565b015560405191829182610a22565b0390a280f35b905084015138611d92565b90601f198316611df485600052602060002090565b9288905b828210611e5957505092611dce9492600192827f2515fafa24747db25d60fb3f86f82f18e969dee98607cc863ced46768089b929989610611e40575b5050811b019055611da9565b85015160001960f88460031b161c191690553880611e34565b80600185968294968b01518155019501930190611df8565b50600654841115611cfa565b50600080516020615971833981519152546001600160a01b03163314611ce0565b3461037c57600036600319011261037c5760206040517f59a1c48e5837ad7a7f3dcedcbe129bf3249ec4fbf651fd4f5e2600ead39fe2f58152f35b3461037c5760608060031936011261037c576001600160401b039060043582811161037c57611f0c903690600401611b62565b9160243590811161037c57611f25903690600401611b62565b90611f2e6103ad565b3360009081526000805160206159d1833981519152602090815260408083205492969094909260ff1680156121e2575b611f679061324b565b611f6f614785565b611f77614877565b6001600160a01b03841680885260046020526040882054909590611f9e9060ff161561338c565b336000908152600260205260409020611fc690611fc1906004905b015460ff1690565b61380a565b835193611fd48515156142a7565b611fe0858951146142fe565b611fe985613bb1565b97611ff386613bb1565b9988151595815b88811061209357610a1e8c8c8f8d612048918e612037600661202e3360018060a01b03166000526002602052604060002090565b0191825461438e565b9055846120426129f3565b92614e06565b6040517fb41486d0e77ec354cb1b377f4db490db23ed03c55dcf6c99bfb62e1f0b356b09339180612079868261150e565b0390a36115b66001600080516020615a3183398151915255565b8060016121db8f938f948b8f838f988e6121cf8f8f8f918f8d9f926120e8946121736121d59b6121ca946120fa8d986120d86120cf8b8b613be3565b515115156136be565b6120f56120ee6120e88c8c613be3565b51611285565b5415613730565b6137a2565b600661210e6121098254613884565b600655565b549e8f9b8c966121298b612122818d613be3565b5192613be3565b5193612133610e03565b98895288015261214161435f565b9087015261214d6129f3565b908601526121596129f3565b608086015260a08501526001600160a01b031660c0840152565b3360e08301524261010083015242610120830152612195610140830160019052565b60016101608301526101808201526121ab6129f3565b6101a08201526121c5876000526000602052604060002090565b613a42565b613be3565b55613be3565b52613be3565b5201611ffa565b50600080516020615971833981519152546001600160a01b03163314611f5e565b3461037c576000806003193601126112585761221d614e21565b60008051602061597183398151915280546001600160a01b0319811690915581906001600160a01b03167f8be0079c531659141344cd1fd0a4f28419497f9722a3daafe3b4186f6b6457e08280a380f35b3461037c5760408060031936011261037c576001600160401b039060043582811161037c576122a1903690600401610e34565b9160243590811161037c576122ba903690600401611b62565b3360009081527f268477d1c17bf7595397186358fec802c44c92bb39292de205ad03cbfe096e02602052604090205460ff168015612420575b6122fc9061324b565b612304614785565b61231183518251146142fe565b82519161231f8315156142a7565b60005b83811061232b57005b8061233860019287613be3565b5180151580612414575b61234b906132cf565b61237861237361236f612368846000526005602052604060002090565b5460ff1690565b1590565b61332b565b61238e6123858387613be3565b5151151561423f565b6123b861239b8387613be3565b5160056123b2846000526000602052604060002090565b0161396d565b4260096123cf836000526000602052604060002090565b01557f2515fafa24747db25d60fb3f86f82f18e969dee98607cc863ced46768089b92961240b6123ff8488613be3565b51865191829182610a22565b0390a201612322565b50600654811115612342565b50600080516020615971833981519152546001600160a01b031633146122f3565b3461037c57600080600319360112611258578080526000805160206159f183398151915260209081526040808320336000908152925290205460ff1680156124dc575b61248d9061324b565b612495614785565b600080516020615a11833981519152600160ff198254161790557f62e78cea01bee320cd4e420270b5ea74000d11b0c9f74754ebdbfc544b05a2586020604051338152a180f35b50600080516020615971833981519152546001600160a01b03163314612484565b80548210156125195760005260206000209060031b0190600090565b611931565b9492936125559161256895610a339a989461010092895260018060a01b03166020890152604088015280606088015286019061090e565b91608085015283820360a085015261090e565b92151560c082015260e081840391015261090e565b3461037c57604036600319011261037c576024356004356000526003602052604060002090815481101561037c576125b4916124fd565b508054610a1e60018060a01b03600184015416926002810154906125da60038201610846565b60048201546125eb60058401610846565b91612600600760ff6006870154169501610846565b946040519889988961251e565b3461037c57600036600319011261037c57600080516020615971833981519152546040516001600160a01b039091168152602090f35b3461037c57604036600319011261037c57602060ff612696612663610381565b6004356000526000805160206159f1833981519152845260406000209060018060a01b0316600052602052604060002090565b54166040519015158152f35b3461037c57602036600319011261037c573360009081526000805160206159d183398151915260205260408120546004359060ff168015612795575b6126e79061324b565b6126ef614785565b80151580612789575b612701906132cf565b808252600560205261271a60ff6040842054161561332b565b808252816020526127608160408420600a60018060a01b03600683015416910160ff198154169055600560205261275b60408620600160ff19825416179055565b614e5a565b33907f639fd397b18e31e94b1cb8d126890a9123d56692f1d9cd3f5d55b37642f0e5778380a380f35b506006548111156126f8565b50600080516020615971833981519152546001600160a01b031633146126de565b3461037c57604036600319011261037c576127cf610366565b6024356001600160401b03811161037c576127ee903690600401610eaf565b33600090815260008051602061599183398151915260205260408120549092919060ff168015612903575b6128229061324b565b6001600160a01b0382168084526002602052604084206004015490929060ff16156128ae577f081ea0b52facb7cae099d66560c7980b7e775bfb1cb54c8fe7792c672965cf71916128a18261289c6004612891611dce9660018060a01b03166000526002602052604060002090565b01805460ff19169055565b614cec565b5060405191829182610a22565b60405162461bcd60e51b815260206004820152602760248201527f566572616c69784d617374657252656769737472793a2073746f7265206e6f746044820152662061637469766560c81b6064820152608490fd5b50600080516020615971833981519152546001600160a01b03163314612819565b3461037c57600036600319011261037c57602060405160008152f35b3461037c5761294e366112c3565b6001600160a01b0382169182156129a057816113b96129709261100a33610729565b60405190151581527f17307eab39ab6107e8899845ad3d59bd9653f200f220920489ca2b5937696c3160203392a3005b60405162ced3e160e81b815260006004820152602490fd5b3461037c57600036600319011261037c5760206040517f8f831c56b3d9bf5e541f4e1b3b7f898cdb4b80ba7a4af71f8797c706fd21674e8152f35b60405190612a00826107ef565b60008252565b3461037c57600036600319011261037c57610a1e604051612a268161080a565b60058152640352e302e360dc1b602082015260405191829160208352602083019061090e565b3461037c57600036600319011261037c5760206040517f458e7120010273a45c50a429c988a509adeb4407885607d9797da91c85e8d7068152f35b3461037c57600036600319011261037c5760206040517f9f2df0fed2c77648de5860a4cc508cd0818c85b8b8a1ab4ceeef8d981c8956a68152f35b3461037c57604036600319011261037c57610f9c600435612ae1610381565b90806000526000805160206159f1833981519152602052612b09600160406000200154614933565b614dbd565b3461037c576000806003193601126112585760405180916007549081835260208093018092600783527fa66cc928b5edb82af9bd49922954155ab7b0942694bea4ce44661d9a8736c68890835b818110612bb85750505084612b71910385610825565b60405193838594850191818652518092526040850193925b828110612b9857505050500390f35b83516001600160a01b031685528695509381019392810192600101612b89565b82546001600160a01b031684529286019260019283019201612b5b565b3461037c57602036600319011261037c576001600160a01b03612bf6610366565b166000526004602052602060ff604060002054166040519015158152f35b3461037c5760a036600319011261037c576001600160401b0360243560043560443583811161037c57612c4b903690600401610eaf565b60643584811161037c57612c63903690600401610eaf565b9360843590811161037c577f181bb78e3b1b1c153d2d9f944d8bd6f6198aafd00f492a75f347987dc466972191612d88612ca4612de2933690600401610eaf565b3360009081527f5fea0257c15a54c2a392cae6eefe907a9f0adbe261851b7e7f874aec8af845a260205260408120549098919060ff168015612df4575b612cea9061324b565b612cf2614785565b86151580612de8575b612d04906132cf565b8689526005602052612d1d60ff60408b2054161561332b565b612d2888151561439b565b612d348451151561440c565b612d3c610de3565b8781523360208201529188604084015284606084015242608084015260a0830152612d6a60c0830160019052565b60e0820152612d83866000526003602052604060002090565b614470565b84600b612d9f866000526000602052604060002090565b0155612dbb81600c6123b2876000526000602052604060002090565b426009612dd2866000526000602052604060002090565b015560405191829133968361452e565b0390a380f35b50600654871115612cfb565b50600080516020615971833981519152546001600160a01b03163314612ce1565b3461037c57604036600319011261037c57602060ff612696612e35610366565b61100a612e40610381565b91610729565b3461037c5760a036600319011261037c57612e5f610366565b612e67610381565b6084356001600160401b03811161037c57612e86903690600401610eaf565b906001600160a01b03831633141580612ed6575b612eaf57610f9c926064359160443591614831565b60405163711bec9160e11b81523360048201526001600160a01b0384166024820152604490fd5b5060ff612ee63361100a86610729565b541615612e9a565b3461037c57602036600319011261037c57610f9c612f0a610366565b612f12614e21565b614545565b3461037c57612f253661125b565b600080516020615a5183398151915254906001600160401b0360ff8360401c1615921680159081613030575b6001149081613026575b15908161301d575b5061300b57600080516020615a51833981519152805467ffffffffffffffff19166001179055612f979082612fe6576145b9565b612f9d57005b600080516020615a51833981519152805460ff60401b19169055604051600181527fc7f505b2f371ae2175ee4913f4499e1f2633a7b5936321eed1cdaeb6115181d290602090a1005b600080516020615a51833981519152805460ff60401b1916600160401b1790556145b9565b60405163f92ee8a960e01b8152600490fd5b90501538612f63565b303b159150612f5b565b839150612f51565b90808251908181526020809101926020808460051b8301019501936000915b8483106130675750505050505090565b9091929394958480613085600193601f198682030187528a5161090e565b9801930193019194939290613057565b602080825282516001600160a01b031690820152610a3391906020820151906130cc6101209283604084015261014083019061090e565b916131006130ec604086015194601f19958686830301606087015261090e565b60608601518585830301608086015261090e565b6080850151151560a08401529360a0810151151560c084015260c081015160e084015260e081015190610100918285015201519282850301910152613038565b3461037c57602036600319011261037c57610a1e61315c610366565b604051613168816107d3565b61323b600760406000808552606095866020870152868387015286808701528160808701528160a08701528160c08701528160e0870152866101008097015260018060a01b031681526002602052206131bf610e10565b81546001600160a01b03168152946131d960018301610846565b60208701526131ea60028301610846565b60408701526131fb60038301610846565b90860152600481015460ff818116151560808801526132219160081c16151560a0870152565b600581015460c0860152600681015460e086015201614730565b9082015260405191829182613095565b1561325257565b60405162461bcd60e51b815260206004820152604960248201527f566572616c69784d617374657252656769737472793a2063616c6c657220646f60448201527f6573206e6f74206861766520726571756972656420726f6c65206f72206973206064820152683737ba1037bbb732b960b91b608482015260a490fd5b156132d657565b60405162461bcd60e51b815260206004820152602760248201527f566572616c69784d617374657252656769737472793a20696e76616c696420746044820152661bdad95b88125160ca1b6064820152608490fd5b1561333257565b60405162461bcd60e51b815260206004820152602c60248201527f566572616c69784d617374657252656769737472793a20746f6b656e2068617360448201526b081899595b88189d5c9b995960a21b6064820152608490fd5b1561339357565b60405162461bcd60e51b815260206004820152602d60248201527f566572616c69784d617374657252656769737472793a2061646472657373206960448201526c1cc8189b1858dadb1a5cdd1959609a1b6064820152608490fd5b156133f557565b60405162461bcd60e51b815260206004820152603660248201527f566572616c69784d617374657252656769737472793a206365727469666963616044820152757465206973206e6f74207472616e7366657261626c6560501b6064820152608490fd5b1561346057565b60405162461bcd60e51b815260206004820152603d60248201527f566572616c69784d617374657252656769737472793a206e6577206f776e657260448201527f206973207468652073616d652061732063757272656e74206f776e65720000006064820152608490fd5b3360009081526000805160206159d1833981519152602052604090205492979396909561365295909461361a949092919060ff16801561369d575b61350f9061324b565b613517614785565b61351f614877565b60018060a01b0386169889600052600460205261354460ff604060002054161561338c565b613550895115156136be565b61355c6120ee8a611285565b6135678a15156137a2565b33600090815260026020526040902061358690611fc190600490611fb9565b613594612109600654613884565b6006549a6135a0610e03565b8c8152602081018b905260408101969096526060860152608085015260a08401526001600160a01b03851660c08401523360e084015242610100840152426101208401526135f2610140840160019052565b60016101608401526101808301526101a08201526121c5876000526000602052604060002090565b8461362484611285565b553360009081526002602052604090206006016136418154613884565b90558461364c6129f3565b916148a7565b827f60469ec7c6ee62537e37b986f9f7be5bb53b61f0d662dd0e088fb274421e3c6d60405180613683339582610a22565b0390a4610a336001600080516020615a3183398151915255565b50600080516020615971833981519152546001600160a01b03163314613506565b156136c557565b60405162461bcd60e51b815260206004820152603960248201527f566572616c69784d617374657252656769737472793a2063657274696669636160448201527f7465206e756d6265722063616e6e6f7420626520656d707479000000000000006064820152608490fd5b1561373757565b60405162461bcd60e51b815260206004820152603860248201527f566572616c69784d617374657252656769737472793a2063657274696669636160448201527f7465206e756d62657220616c72656164792065786973747300000000000000006064820152608490fd5b156137a957565b60405162461bcd60e51b815260206004820152603360248201527f566572616c69784d617374657252656769737472793a206f776e65722063616e6044820152726e6f74206265207a65726f206164647265737360681b6064820152608490fd5b1561381157565b60405162461bcd60e51b815260206004820152602f60248201527f566572616c69784d617374657252656769737472793a206a6577656c7279207360448201526e746f7265206e6f742061637469766560881b6064820152608490fd5b634e487b7160e01b600052601160045260246000fd5b60001981146138935760010190565b61386e565b634e487b7160e01b600052600060045260246000fd5b8181106138b9575050565b600081556001016138ae565b90601f82116138d2575050565b61088891600080516020615a718339815191526000527ff429cb5e2ec84cbb765e76b31964a56ccde03e7a6122d6cc4afb19edc55edeed906020601f840160051c83019310613929575b601f0160051c01906138ae565b909150819061391c565b9190601f811161394257505050565b610888926000526020600020906020601f840160051c8301931061392957601f0160051c01906138ae565b91909182516001600160401b0381116107ce576139948161398e8454610762565b84613933565b602080601f83116001146139d7575081906139c89394956000926139cc575b50508160011b916000199060031b1c19161790565b9055565b0151905038806139b3565b90601f198316956139ed85600052602060002090565b926000905b888210613a2a57505083600195969710613a11575b505050811b019055565b015160001960f88460031b161c19169055388080613a07565b806001859682949686015181550195019301906139f2565b600c6101a06108889380518455613a6060208201516001860161396d565b613a7160408201516002860161396d565b613a8260608201516003860161396d565b613a9360808201516004860161396d565b613aa460a08201516005860161396d565b60c08101516006850180546001600160a01b039283166001600160a01b03199182161790915560e083015160078701805491909316911617905561010081015160088501556101208101516009850155610140810151613b3b90600a860190613b1c9015155b829060ff801983541691151516179055565b61016083015115155b815461ff00191690151560081b61ff0016179055565b610180810151600b8501550151910161396d565b15613b5657565b60405162461bcd60e51b815260206004820152602d60248201527f566572616c69784d617374657252656769737472793a2063616e6e6f7420626c60448201526c30b1b5b634b9ba1037bbb732b960991b6064820152608490fd5b90613bbb82610e1d565b613bc86040519182610825565b8281528092613bd9601f1991610e1d565b0190602036910137565b80518210156125195760209160051b010190565b91909180518351808203613c92575050613c118151613bb1565b9060009060005b8151811015613c8a5780613c7860019260051b7f88be536d5240c274a3b1d3a1be54482fd9caa294f08c62a7cde569f49a3c4500602080808489010151938c010151885252604086209060018060a01b0316600052602052604060002090565b54613c838287613be3565b5201613c18565b509193505050565b604051635b05999160e01b815260048101919091526024810191909152604490fd5b80151580613dcf575b613cc6906132cf565b806000526005602052613ce160ff604060002054161561332b565b60005260006020526040600020613dc6600c613cfb610e03565b9280548452613d0c60018201610846565b6020850152613d1d60028201610846565b6040850152613d2e60038201610846565b6060850152613d3f60048201610846565b6080850152613d5060058201610846565b60a085015260068101546001600160a01b031660c085015260078101546001600160a01b031660e085015260088101546101008501526009810154610120850152600a81015460ff8181161515610140870152613db59160081c161515610160860152565b600b81015461018085015201610846565b6101a082015290565b50600654811115613cbd565b336000908152600080516020615991833981519152602052604090205493947fcaff446130e685d1fddb714a7925ecac5674d9aa281d7d556b20421c30ff319f94613f05946128a19392613ef79260ff168015613f0a575b613e3c9061324b565b6001600160a01b03841698613e528a1515613f2b565b613e5e87511515613f93565b613e8a613e8561236f6004611fb98960018060a01b03166000526002602052604060002090565b613ff9565b613e92610e10565b6001600160a01b03861681529287602085015260408401526060830152613ebc6080830160019052565b600060a08301524260c0830152600060e0830152610100820152613ef28360018060a01b03166000526002602052604060002090565b614141565b613f00816141db565b614983565b0390a2565b50600080516020615971833981519152546001600160a01b03163314613e33565b15613f3257565b60405162461bcd60e51b815260206004820152603360248201527f566572616c69784d617374657252656769737472793a2073746f726520616464604482015272726573732063616e6e6f74206265207a65726f60681b6064820152608490fd5b15613f9a57565b60405162461bcd60e51b815260206004820152603160248201527f566572616c69784d617374657252656769737472793a2073746f7265206e616d604482015270652063616e6e6f7420626520656d70747960781b6064820152608490fd5b1561400057565b60405162461bcd60e51b815260206004820152602f60248201527f566572616c69784d617374657252656769737472793a2073746f726520616c7260448201526e1958591e481c9959da5cdd195c9959608a1b6064820152608490fd5b815191600160401b83116107ce5781548383558084106140bb575b5061408d602080920192600052602060002090565b6000925b84841061409f575050505050565b600183826140af8394518661396d565b01920193019290614091565b60008360005284602060002092830192015b8281106140db575050614078565b806140e860019254610762565b806140f5575b50016140cd565b601f90818111841461410d5750508281555b386140ee565b8361412f9261412185600052602060002090565b920160051c820191016138ae565b60008181526020812081835555614107565b815181546001600160a01b0319166001600160a01b03909116178155610888916007906101009061417960208201516001860161396d565b61418a60408201516002860161396d565b61419b60608201516003860161396d565b6141be600485016141b2613b0a6080850151151590565b60a08301511515613b25565b60c0810151600585015560e081015160068501550151910161405d565b600754600160401b8110156107ce5760018101806007558110156125195760076000527fa66cc928b5edb82af9bd49922954155ab7b0942694bea4ce44661d9a8736c6880180546001600160a01b0319166001600160a01b03909216919091179055565b1561424657565b60405162461bcd60e51b815260206004820152603360248201527f566572616c69784d617374657252656769737472793a206d65746164617461206044820152725552492063616e6e6f7420626520656d70747960681b6064820152608490fd5b156142ae57565b60405162461bcd60e51b815260206004820152602260248201527f566572616c69784d617374657252656769737472793a20656d707479206261746044820152610c6d60f31b6064820152608490fd5b1561430557565b60405162461bcd60e51b815260206004820152602c60248201527f566572616c69784d617374657252656769737472793a206172726179206c656e60448201526b0cee8d040dad2e6dac2e8c6d60a31b6064820152608490fd5b6040519061436c8261080a565b60138252724a6577656c727920436572746966696361746560681b6020830152565b9190820180921161389357565b156143a257565b608460405162461bcd60e51b815260206004820152604060248201527f566572616c69784d617374657252656769737472793a2061707072616973616c60448201527f2076616c7565206d7573742062652067726561746572207468616e207a65726f6064820152fd5b1561441357565b60405162461bcd60e51b815260206004820152602f60248201527f566572616c69784d617374657252656769737472793a2063757272656e63792060448201526e63616e6e6f7420626520656d70747960881b6064820152608490fd5b8054600160401b8110156107ce5761448d916001820181556124fd565b614529578151815560208201516001820180546001600160a01b0319166001600160a01b039092169190911790556108889160079060e090604081015160028501556144e060608201516003860161396d565b608081015160048501556144fb60a08201516005860161396d565b61452061450b60c0830151151590565b600686019060ff801983541691151516179055565b0151910161396d565b613898565b604090610a3393928152816020820152019061090e565b6001600160a01b039081169081156145a05760008051602061597183398151915280546001600160a01b031981168417909155167f8be0079c531659141344cd1fd0a4f28419497f9722a3daafe3b4186f6b6457e0600080a3565b604051631e4fbdf760e01b815260006004820152602490fd5b906145c2615245565b6145ca615245565b81516001600160401b0381116107ce57600080516020615a71833981519152906145fd816145f88454610762565b6138c5565b602080601f8311600114614698575081906146309394956000926139cc5750508160011b916000199060031b1c19161790565b90555b61463b615245565b61464433614f2b565b61464c615245565b614654614f3f565b61465c615245565b61466533614a5d565b5061466f33614b00565b5061467933614b5f565b5061468333614bd0565b5061468d33614c41565b506108886000600655565b90601f198316956146d8600080516020615a718339815191526000527ff429cb5e2ec84cbb765e76b31964a56ccde03e7a6122d6cc4afb19edc55edeed90565b926000905b888210614718575050836001959697106146ff575b505050811b019055614633565b015160001960f88460031b161c191690553880806146f2565b806001859682949686015181550195019301906146dd565b90815461473c81610e1d565b9261474a6040519485610825565b818452600090815260208082208186015b848410614769575050505050565b600183819261477785610846565b81520192019301929061475b565b60ff600080516020615a11833981519152541661479e57565b60405163d93c066560e01b8152600490fd5b9192916001600160a01b038281161561481857811615614800576147f86108889490604051916001835260208301526040820190600182526001606084015260808301604052565b9290916150dd565b604051626a0d4560e21b815260006004820152602490fd5b604051632bfa23e760e11b815260006004820152602490fd5b939291906001600160a01b0380821615614818578516156148005761088894604051926001845260208401526040830193600185526060840152608083016040526150dd565b600080516020615a3183398151915260028154146148955760029055565b604051633ee5aeb560e01b8152600490fd5b9091906001600160a01b03811615614818576148e76108889390604051916001835260208301526040820190600182526001606084015260808301604052565b91614f63565b336000908152600080516020615991833981519152602052604090205460ff161561491457565b60405163e2517d3f60e01b815233600482015260006024820152604490fd5b60008181526000805160206159f18339815191526020908152604080832033845290915290205460ff16156149655750565b6044906040519063e2517d3f60e01b82523360048301526024820152fd5b6001600160a01b03811660009081527f67586683f6d64b48ae561a6b67340d13089731f2f08fd2973581b1fc3e96e39d602052604081207f458e7120010273a45c50a429c988a509adeb4407885607d9797da91c85e8d706906000805160206159f18339815191529060ff905b5416614a5657818352602090815260408084206001600160a01b038616600090815292529020805460ff1916600117905533926001600160a01b0316917f2f8788117e7eff1d82e926ec794901d17c78024a50270940304540a733656f0d9080a4600190565b5050905090565b6001600160a01b038116600090815260008051602061599183398151915260205260408120546000805160206159f18339815191529060ff16614afa57818052602090815260408083206001600160a01b038516600090815292529020805460ff1916600117905533916001600160a01b0316907f2f8788117e7eff1d82e926ec794901d17c78024a50270940304540a733656f0d8180a4600190565b50905090565b6001600160a01b03811660009081526000805160206159d1833981519152602052604081207f9f2df0fed2c77648de5860a4cc508cd0818c85b8b8a1ab4ceeef8d981c8956a6906000805160206159f18339815191529060ff906149f0565b6001600160a01b03811660009081527fc4ace3e9825e9c0e31f6bfe0307587a31e0f7e0a8fcde3632614313093ac5ea0602052604081207f1ca4917a93bbf937a078cf9cc2b3d0c4aaac3367aae1018d3d982bb6e49887f1906000805160206159f18339815191529060ff906149f0565b6001600160a01b03811660009081527f268477d1c17bf7595397186358fec802c44c92bb39292de205ad03cbfe096e02602052604081207f73e573f9566d61418a34d5de3ff49360f9c51fec37f7486551670290f6285dab906000805160206159f18339815191529060ff906149f0565b6001600160a01b03811660009081527fc3e71cdf4d6b19b51728813415f497e36084f42794ee08da6ceade2e0e3ab212602052604081207f59a1c48e5837ad7a7f3dcedcbe129bf3249ec4fbf651fd4f5e2600ead39fe2f5906000805160206159f18339815191529060ff906149f0565b60008181526000805160206159f1833981519152602081815260408084206001600160a01b0387168552909152822091929160ff906149f0565b6001600160a01b03811660009081527f67586683f6d64b48ae561a6b67340d13089731f2f08fd2973581b1fc3e96e39d602052604081207f458e7120010273a45c50a429c988a509adeb4407885607d9797da91c85e8d706906000805160206159f18339815191529060ff905b541615614a5657818352602090815260408084206001600160a01b038616600090815292529020805460ff1916905533926001600160a01b0316917ff6391f5c32d9c69d2a47ea670b442974b53935d1edc7fd64eb21e047a839171b9080a4600190565b60008181526000805160206159f1833981519152602081815260408084206001600160a01b0387168552909152822091929160ff90614d59565b9081602091031261037c575190565b9291906001600160a01b038416156148185761088893614f63565b600080516020615971833981519152546001600160a01b03163303614e4257565b60405163118cdaa760e01b8152336004820152602490fd5b906001600160a01b03821690811561480057614e95604051916001835260208301526040820190600182526001606084015260808301604052565b916000604051614ea4816107ef565b52614ead614785565b600052600460205260ff60406000205416614ecb5761088892615636565b60405162461bcd60e51b815260206004820152603260248201527f566572616c69784d617374657252656769737472793a2066726f6d2061646472604482015271195cdcc81a5cc8189b1858dadb1a5cdd195960721b6064820152608490fd5b61088890614f37615245565b612f12615245565b614f47615245565b614f4f615245565b6001600080516020615a3183398151915255565b909291614f6e614785565b6001600160a01b0382169384151593846150b2575b8151835190818103613c9257505060005b8251811015614fe45780868660019360051b6020808289010151918901015192614fc2575b50505001614f94565b614fda9161100a614fd292610d47565b91825461438e565b9055388681614fb9565b50939091929460018351146000146150765760208381015185820151604080519283529282015260009133917fc3d58168c5ae7397731d063d5bbf3d657854427343f4c083240f7aacaa2d0f629190a45b615040575b50505050565b8051600103615067579060208061505e959301519101519133615587565b3880808061503a565b615071933361538d565b61505e565b60006040517f4a39dc06d4c0dbc64b70af90fd698a233a518aa5d07e595d983b8c0526c8f7fb3391806150aa898983615611565b0390a4615035565b6001600160a01b0384166000908152600460205260409020546150d89060ff1615615274565b614f83565b919392906150e9614785565b6001600160a01b0383811680615183575b508116151580615154575b61511183878487615787565b61511d575b5050505050565b84516001036151435760208061513996015192015192336155bc565b3880808080615116565b61514f94919233615488565b615139565b61517e61517961236f6123688560018060a01b03166000526004602052604060002090565b615274565b615105565b600052600460205260ff60406000205416614ecb57386150fa565b90813b15615224576000805160206159b183398151915280546001600160a01b0319166001600160a01b0384169081179091557fbc7cd75a20ee27fd9adebab32041f755214dbc6bffa90cc0225b39da2e5c2d3b600080a280511561520957615206916155f3565b50565b50503461521257565b60405163b398979f60e01b8152600490fd5b604051634c9c8ce360e01b81526001600160a01b0383166004820152602490fd5b60ff600080516020615a518339815191525460401c161561526257565b604051631afcd79f60e31b8152600490fd5b1561527b57565b60405162461bcd60e51b815260206004820152603060248201527f566572616c69784d617374657252656769737472793a20746f2061646472657360448201526f1cc81a5cc8189b1858dadb1a5cdd195960821b6064820152608490fd5b9081602091031261037c5751610a3381610443565b9261531d610a339593611a329360018060a01b031686526000602087015260a0604087015260a08601906114da565b9084820360608601526114da565b9390610a33959361531d91611a329460018060a01b03809216885216602087015260a0604087015260a08601906114da565b3d15615388573d9061536e82610e94565b9161537c6040519384610825565b82523d6000602084013e565b606090565b9293919093843b61539f575050505050565b6020916153c2604051948593849363bc197c8160e01b98898652600486016152ee565b038160006001600160a01b0388165af160009181615457575b5061541a57826153e961535d565b805191908261541357604051632bfa23e760e11b81526001600160a01b0383166004820152602490fd5b6020915001fd5b6001600160e01b0319160361543457503880808080615116565b604051632bfa23e760e11b81526001600160a01b03919091166004820152602490fd5b61547a91925060203d602011615481575b6154728183610825565b8101906152d9565b90386153db565b503d615468565b939290949194853b61549d575b505050505050565b6154c0602093604051958694859463bc197c8160e01b998a87526004870161532b565b038160006001600160a01b0388165af160009181615502575b506154e757826153e961535d565b6001600160e01b031916036154345750388080808080615495565b61551c91925060203d602011615481576154728183610825565b90386154d9565b909260a092610a339594600180861b031683526000602084015260408301526060820152816080820152019061090e565b9192610a3395949160a094600180871b03809216855216602084015260408301526060820152816080820152019061090e565b9293919093843b615599575050505050565b6020916153c2604051948593849363f23a6e6160e01b9889865260048601615523565b939290949194853b6155d057505050505050565b6154c0602093604051958694859463f23a6e6160e01b998a875260048701615554565b600080610a3393602081519101845af461560b61535d565b9161590d565b9091615628610a33936040845260408401906114da565b9160208184039101526114da565b9291908051825190818103613c9257505060005b81518110156156e757600581901b82810160209081015191850101516001600160a01b03871661567f575b505060010161564a565b61568c8761100a84610d47565b548181106156b0578761100a60019594936156a8930393610d47565b559038615675565b6040516303dee4c560e01b81526001600160a01b038916600482015260248101919091526044810182905260648101839052608490fd5b5090600092939160018151148414615748576020908101519181015160408051938452918301526001600160a01b039092169133917fc3d58168c5ae7397731d063d5bbf3d657854427343f4c083240f7aacaa2d0f6291819081015b0390a4565b6040516001600160a01b039093169233927f4a39dc06d4c0dbc64b70af90fd698a233a518aa5d07e595d983b8c0526c8f7fb9282916157439183615611565b9392918051835190818103613c9257505060005b815181101561586857600581901b82810160209081015191860101516001600160a01b03929185908985166157f8575b60019482166157de575b5050500161579b565b6157ee9161100a614fd292610d47565b90553884816157d5565b919293905061580a8961100a84610d47565b5483811061583157918691846001969594036158298c61100a85610d47565b5594506157cb565b6040516303dee4c560e01b81526001600160a01b038b16600482015260248101919091526044810184905260648101839052608490fd5b5080519394939192916001036158ca576020908101519181015160408051938452918301526001600160a01b03928316939092169133917fc3d58168c5ae7397731d063d5bbf3d657854427343f4c083240f7aacaa2d0f629181908101615743565b6040516001600160a01b03938416949093169233927f4a39dc06d4c0dbc64b70af90fd698a233a518aa5d07e595d983b8c0526c8f7fb9282916157439183615611565b90615934575080511561592257602081519101fd5b60405163d6bda27560e01b8152600490fd5b81511580615967575b615945575090565b604051639996b31560e01b81526001600160a01b039091166004820152602490fd5b50803b1561593d56fe9016d09d72d40fdae2fd8ceac6b6234c7706214fd39c1cd1e609a0528c199300b7db2dd08fcb62d0c9e08c51941cae53c267786a0b75803fb7960902fc8ef97d360894a13ba1a3210667c828492db98dca3e2076cc3735a920a3ca505d382bbc549fe2656c81d2947b3b913f0a53b9ea86c71e049f3a1b8aa23c09a8a05cb8d402dd7bc7dec4dceedda775e58dd541e08a116c6c53815c0bd028192f7b626800cd5ed15c6e187e77e9aee88184c21f4f2182ab5827cb3b7e07fbedcd63f033009b779b17422d0df92223018b32b4d1fa46e071723d6817e2486d003becc55f00f0c57e16840df040f15088dc2f81fe391c3923bec73e23a9662efc9c229c6a0088be536d5240c274a3b1d3a1be54482fd9caa294f08c62a7cde569f49a3c4502a26469706673582212201a008624d346420cb072cef78ef8dc7324734c77de8b4c62f2904eec7e895b4864736f6c63430008160033",
  "linkReferences": {},
  "deployedLinkReferences": {}
}