{"contracts/VeralixMasterRegistryUpgradeable.sol":{"VeralixMasterRegistryUpgradeable":{"abi":[{"inputs":[],"name":"AccessControlBadConfirmation","type":"error"},{"inputs":[{"internalType":"address","name":"account","type":"address"},{"internalType":"bytes32","name":"neededRole","type":"bytes32"}],"name":"AccessControlUnauthorizedAccount","type":"error"},{"inputs":[{"internalType":"address","name":"target","type":"address"}],"name":"AddressEmptyCode","type":"error"},{"inputs":[{"internalType":"address","name":"sender","type":"address"},{"internalType":"uint256","name":"balance","type":"uint256"},{"internalType":"uint256","name":"needed","type":"uint256"},{"internalType":"uint256","name":"tokenId","type":"uint256"}],"name":"ERC1155InsufficientBalance","type":"error"},{"inputs":[{"internalType":"address","name":"approver","type":"address"}],"name":"ERC1155InvalidApprover","type":"error"},{"inputs":[{"internalType":"uint256","name":"idsLength","type":"uint256"},{"internalType":"uint256","name":"valuesLength","type":"uint256"}],"name":"ERC1155InvalidArrayLength","type":"error"},{"inputs":[{"internalType":"address","name":"operator","type":"address"}],"name":"ERC1155InvalidOperator","type":"error"},{"inputs":[{"internalType":"address","name":"receiver","type":"address"}],"name":"ERC1155InvalidReceiver","type":"error"},{"inputs":[{"internalType":"address","name":"sender","type":"address"}],"name":"ERC1155InvalidSender","type":"error"},{"inputs":[{"internalType":"address","name":"operator","type":"address"},{"internalType":"address","name":"owner","type":"address"}],"name":"ERC1155MissingApprovalForAll","type":"error"},{"inputs":[{"internalType":"address","name":"implementation","type":"address"}],"name":"ERC1967InvalidImplementation","type":"error"},{"inputs":[],"name":"ERC1967NonPayable","type":"error"},{"inputs":[],"name":"EnforcedPause","type":"error"},{"inputs":[],"name":"ExpectedPause","type":"error"},{"inputs":[],"name":"FailedCall","type":"error"},{"inputs":[],"name":"InvalidInitialization","type":"error"},{"inputs":[],"name":"NotInitializing","type":"error"},{"inputs":[{"internalType":"address","name":"owner","type":"address"}],"name":"OwnableInvalidOwner","type":"error"},{"inputs":[{"internalType":"address","name":"account","type":"address"}],"name":"OwnableUnauthorizedAccount","type":"error"},{"inputs":[],"name":"ReentrancyGuardReentrantCall","type":"error"},{"inputs":[],"name":"UUPSUnauthorizedCallContext","type":"error"},{"inputs":[{"internalType":"bytes32","name":"slot","type":"bytes32"}],"name":"UUPSUnsupportedProxiableUUID","type":"error"},{"anonymous":false,"inputs":[{"indexed":true,"internalType":"address","name":"account","type":"address"},{"indexed":false,"internalType":"bool","name":"status","type":"bool"}],"name":"AddressBlacklisted","type":"event"},{"anonymous":false,"inputs":[{"indexed":true,"internalType":"uint256","name":"tokenId","type":"uint256"},{"indexed":true,"internalType":"address","name":"appraiser","type":"address"},{"indexed":false,"internalType":"uint256","name":"value","type":"uint256"},{"indexed":false,"internalType":"string","name":"currency","type":"string"}],"name":"AppraisalAdded","type":"event"},{"anonymous":false,"inputs":[{"indexed":true,"internalType":"address","name":"account","type":"address"},{"indexed":true,"internalType":"address","name":"operator","type":"address"},{"indexed":false,"internalType":"bool","name":"approved","type":"bool"}],"name":"ApprovalForAll","type":"event"},{"anonymous":false,"inputs":[{"indexed":true,"internalType":"uint256","name":"tokenId","type":"uint256"},{"indexed":true,"internalType":"address","name":"from","type":"address"},{"indexed":true,"internalType":"address","name":"to","type":"address"}],"name":"CertificateAssigned","type":"event"},{"anonymous":false,"inputs":[{"indexed":true,"internalType":"uint256","name":"tokenId","type":"uint256"},{"indexed":true,"internalType":"address","name":"burner","type":"address"}],"name":"CertificateBurned","type":"event"},{"anonymous":false,"inputs":[{"indexed":true,"internalType":"uint256","name":"tokenId","type":"uint256"},{"indexed":false,"internalType":"string","name":"certificateNumber","type":"string"},{"indexed":true,"internalType":"address","name":"jewelryStore","type":"address"},{"indexed":true,"internalType":"address","name":"owner","type":"address"}],"name":"CertificateCreated","type":"event"},{"anonymous":false,"inputs":[{"indexed":true,"internalType":"uint256","name":"tokenId","type":"uint256"},{"indexed":false,"internalType":"string","name":"newMetadataURI","type":"string"}],"name":"CertificateUpdated","type":"event"},{"anonymous":false,"inputs":[{"indexed":false,"internalType":"uint256[]","name":"tokenIds","type":"uint256[]"},{"indexed":true,"internalType":"address","name":"jewelryStore","type":"address"},{"indexed":true,"internalType":"address","name":"owner","type":"address"}],"name":"CertificatesBatchCreated","type":"event"},{"anonymous":false,"inputs":[{"indexed":false,"internalType":"uint64","name":"version","type":"uint64"}],"name":"Initialized","type":"event"},{"anonymous":false,"inputs":[{"indexed":true,"internalType":"address","name":"storeAddress","type":"address"},{"indexed":false,"internalType":"string","name":"storeName","type":"string"}],"name":"JewelryStoreRegistered","type":"event"},{"anonymous":false,"inputs":[{"indexed":true,"internalType":"address","name":"storeAddress","type":"address"},{"indexed":false,"internalType":"string","name":"reason","type":"string"}],"name":"JewelryStoreSuspended","type":"event"},{"anonymous":false,"inputs":[{"indexed":true,"internalType":"address","name":"previousOwner","type":"address"},{"indexed":true,"internalType":"address","name":"newOwner","type":"address"}],"name":"OwnershipTransferred","type":"event"},{"anonymous":false,"inputs":[{"indexed":false,"internalType":"address","name":"account","type":"address"}],"name":"Paused","type":"event"},{"anonymous":false,"inputs":[{"indexed":true,"internalType":"bytes32","name":"role","type":"bytes32"},{"indexed":true,"internalType":"bytes32","name":"previousAdminRole","type":"bytes32"},{"indexed":true,"internalType":"bytes32","name":"newAdminRole","type":"bytes32"}],"name":"RoleAdminChanged","type":"event"},{"anonymous":false,"inputs":[{"indexed":true,"internalType":"bytes32","name":"role","type":"bytes32"},{"indexed":true,"internalType":"address","name":"account","type":"address"},{"indexed":true,"internalType":"address","name":"sender","type":"address"}],"name":"RoleGranted","type":"event"},{"anonymous":false,"inputs":[{"indexed":true,"internalType":"bytes32","name":"role","type":"bytes32"},{"indexed":true,"internalType":"address","name":"account","type":"address"},{"indexed":true,"internalType":"address","name":"sender","type":"address"}],"name":"RoleRevoked","type":"event"},{"anonymous":false,"inputs":[{"indexed":true,"internalType":"address","name":"operator","type":"address"},{"indexed":true,"internalType":"address","name":"from","type":"address"},{"indexed":true,"internalType":"address","name":"to","type":"address"},{"indexed":false,"internalType":"uint256[]","name":"ids","type":"uint256[]"},{"indexed":false,"internalType":"uint256[]","name":"values","type":"uint256[]"}],"name":"TransferBatch","type":"event"},{"anonymous":false,"inputs":[{"indexed":true,"internalType":"address","name":"operator","type":"address"},{"indexed":true,"internalType":"address","name":"from","type":"address"},{"indexed":true,"internalType":"address","name":"to","type":"address"},{"indexed":false,"internalType":"uint256","name":"id","type":"uint256"},{"indexed":false,"internalType":"uint256","name":"value","type":"uint256"}],"name":"TransferSingle","type":"event"},{"anonymous":false,"inputs":[{"indexed":false,"internalType":"string","name":"value","type":"string"},{"indexed":true,"internalType":"uint256","name":"id","type":"uint256"}],"name":"URI","type":"event"},{"anonymous":false,"inputs":[{"indexed":false,"internalType":"address","name":"account","type":"address"}],"name":"Unpaused","type":"event"},{"anonymous":false,"inputs":[{"indexed":true,"internalType":"address","name":"implementation","type":"address"}],"name":"Upgraded","type":"event"},{"inputs":[],"name":"APPRAISER_ROLE","outputs":[{"internalType":"bytes32","name":"","type":"bytes32"}],"stateMutability":"view","type":"function"},{"inputs":[],"name":"ASSIGNER_ROLE","outputs":[{"internalType":"bytes32","name":"","type":"bytes32"}],"stateMutability":"view","type":"function"},{"inputs":[],"name":"AUDITOR_ROLE","outputs":[{"internalType":"bytes32","name":"","type":"bytes32"}],"stateMutability":"view","type":"function"},{"inputs":[],"name":"DEFAULT_ADMIN_ROLE","outputs":[{"internalType":"bytes32","name":"","type":"bytes32"}],"stateMutability":"view","type":"function"},{"inputs":[],"name":"JEWELRY_STORE_ROLE","outputs":[{"internalType":"bytes32","name":"","type":"bytes32"}],"stateMutability":"view","type":"function"},{"inputs":[],"name":"MINTER_ROLE","outputs":[{"internalType":"bytes32","name":"","type":"bytes32"}],"stateMutability":"view","type":"function"},{"inputs":[],"name":"UPDATER_ROLE","outputs":[{"internalType":"bytes32","name":"","type":"bytes32"}],"stateMutability":"view","type":"function"},{"inputs":[],"name":"UPGRADE_INTERFACE_VERSION","outputs":[{"internalType":"string","name":"","type":"string"}],"stateMutability":"view","type":"function"},{"inputs":[{"internalType":"uint256","name":"tokenId","type":"uint256"},{"internalType":"uint256","name":"appraisalValue","type":"uint256"},{"internalType":"string","name":"currency","type":"string"},{"internalType":"string","name":"appraisalDocument","type":"string"},{"internalType":"string","name":"notes","type":"string"}],"name":"addAppraisal","outputs":[],"stateMutability":"nonpayable","type":"function"},{"inputs":[{"internalType":"uint256","name":"tokenId","type":"uint256"},{"internalType":"address","name":"newOwner","type":"address"}],"name":"assignCertificate","outputs":[],"stateMutability":"nonpayable","type":"function"},{"inputs":[{"internalType":"address","name":"account","type":"address"},{"internalType":"uint256","name":"id","type":"uint256"}],"name":"balanceOf","outputs":[{"internalType":"uint256","name":"","type":"uint256"}],"stateMutability":"view","type":"function"},{"inputs":[{"internalType":"address[]","name":"accounts","type":"address[]"},{"internalType":"uint256[]","name":"ids","type":"uint256[]"}],"name":"balanceOfBatch","outputs":[{"internalType":"uint256[]","name":"","type":"uint256[]"}],"stateMutability":"view","type":"function"},{"inputs":[{"internalType":"address","name":"account","type":"address"},{"internalType":"bool","name":"status","type":"bool"}],"name":"blacklistAddress","outputs":[],"stateMutability":"nonpayable","type":"function"},{"inputs":[{"internalType":"address","name":"","type":"address"}],"name":"blacklistedAddresses","outputs":[{"internalType":"bool","name":"","type":"bool"}],"stateMutability":"view","type":"function"},{"inputs":[{"internalType":"uint256","name":"tokenId","type":"uint256"}],"name":"burnCertificate","outputs":[],"stateMutability":"nonpayable","type":"function"},{"inputs":[{"internalType":"uint256","name":"","type":"uint256"}],"name":"burnedTokens","outputs":[{"internalType":"bool","name":"","type":"bool"}],"stateMutability":"view","type":"function"},{"inputs":[{"internalType":"string","name":"","type":"string"}],"name":"certificateNumberToTokenId","outputs":[{"internalType":"uint256","name":"","type":"uint256"}],"stateMutability":"view","type":"function"},{"inputs":[{"internalType":"uint256","name":"","type":"uint256"}],"name":"certificates","outputs":[{"internalType":"uint256","name":"tokenId","type":"uint256"},{"internalType":"string","name":"certificateNumber","type":"string"},{"internalType":"string","name":"jewelryType","type":"string"},{"internalType":"string","name":"description","type":"string"},{"internalType":"string","name":"imageHash","type":"string"},{"internalType":"string","name":"metadataURI","type":"string"},{"internalType":"address","name":"currentOwner","type":"address"},{"internalType":"address","name":"jewelryStore","type":"address"},{"internalType":"uint256","name":"creationDate","type":"uint256"},{"internalType":"uint256","name":"lastUpdate","type":"uint256"},{"internalType":"bool","name":"isActive","type":"bool"},{"internalType":"bool","name":"isTransferable","type":"bool"},{"internalType":"uint256","name":"appraisalValue","type":"uint256"},{"internalType":"string","name":"appraisalCurrency","type":"string"}],"stateMutability":"view","type":"function"},{"inputs":[{"internalType":"string","name":"certificateNumber","type":"string"},{"internalType":"string","name":"jewelryType","type":"string"},{"internalType":"string","name":"description","type":"string"},{"internalType":"string","name":"imageHash","type":"string"},{"internalType":"string","name":"metadataURI","type":"string"},{"internalType":"address","name":"owner","type":"address"},{"internalType":"uint256","name":"appraisalValue","type":"uint256"},{"internalType":"string","name":"appraisalCurrency","type":"string"}],"name":"createCertificate","outputs":[{"internalType":"uint256","name":"","type":"uint256"}],"stateMutability":"nonpayable","type":"function"},{"inputs":[{"internalType":"string[]","name":"certificateNumbers","type":"string[]"},{"internalType":"string[]","name":"metadataURIs","type":"string[]"},{"internalType":"address","name":"owner","type":"address"}],"name":"createCertificatesBatchSingleOwner","outputs":[{"internalType":"uint256[]","name":"","type":"uint256[]"}],"stateMutability":"nonpayable","type":"function"},{"inputs":[{"internalType":"uint256","name":"tokenId","type":"uint256"}],"name":"getCertificate","outputs":[{"components":[{"internalType":"uint256","name":"tokenId","type":"uint256"},{"internalType":"string","name":"certificateNumber","type":"string"},{"internalType":"string","name":"jewelryType","type":"string"},{"internalType":"string","name":"description","type":"string"},{"internalType":"string","name":"imageHash","type":"string"},{"internalType":"string","name":"metadataURI","type":"string"},{"internalType":"address","name":"currentOwner","type":"address"},{"internalType":"address","name":"jewelryStore","type":"address"},{"internalType":"uint256","name":"creationDate","type":"uint256"},{"internalType":"uint256","name":"lastUpdate","type":"uint256"},{"internalType":"bool","name":"isActive","type":"bool"},{"internalType":"bool","name":"isTransferable","type":"bool"},{"internalType":"uint256","name":"appraisalValue","type":"uint256"},{"internalType":"string","name":"appraisalCurrency","type":"string"}],"internalType":"struct VeralixMasterRegistryUpgradeable.Certificate","name":"","type":"tuple"}],"stateMutability":"view","type":"function"},{"inputs":[{"internalType":"address","name":"storeAddress","type":"address"}],"name":"getJewelryStore","outputs":[{"components":[{"internalType":"address","name":"storeAddress","type":"address"},{"internalType":"string","name":"storeName","type":"string"},{"internalType":"string","name":"licenseNumber","type":"string"},{"internalType":"string","name":"contactInfo","type":"string"},{"internalType":"bool","name":"isActive","type":"bool"},{"internalType":"bool","name":"isVerified","type":"bool"},{"internalType":"uint256","name":"registrationDate","type":"uint256"},{"internalType":"uint256","name":"certificatesIssued","type":"uint256"},{"internalType":"string[]","name":"specializations","type":"string[]"}],"internalType":"struct VeralixMasterRegistryUpgradeable.JewelryStore","name":"","type":"tuple"}],"stateMutability":"view","type":"function"},{"inputs":[],"name":"getRegisteredStores","outputs":[{"internalType":"address[]","name":"","type":"address[]"}],"stateMutability":"view","type":"function"},{"inputs":[{"internalType":"bytes32","name":"role","type":"bytes32"}],"name":"getRoleAdmin","outputs":[{"internalType":"bytes32","name":"","type":"bytes32"}],"stateMutability":"view","type":"function"},{"inputs":[{"internalType":"uint256","name":"tokenId","type":"uint256"}],"name":"getTokenAppraisals","outputs":[{"components":[{"internalType":"uint256","name":"tokenId","type":"uint256"},{"internalType":"address","name":"appraiser","type":"address"},{"internalType":"uint256","name":"appraisalValue","type":"uint256"},{"internalType":"string","name":"currency","type":"string"},{"internalType":"uint256","name":"appraisalDate","type":"uint256"},{"internalType":"string","name":"appraisalDocument","type":"string"},{"internalType":"bool","name":"isValid","type":"bool"},{"internalType":"string","name":"notes","type":"string"}],"internalType":"struct VeralixMasterRegistryUpgradeable.Appraisal[]","name":"","type":"tuple[]"}],"stateMutability":"view","type":"function"},{"inputs":[{"internalType":"string","name":"certificateNumber","type":"string"}],"name":"getTokenIdByCertificateNumber","outputs":[{"internalType":"uint256","name":"","type":"uint256"}],"stateMutability":"view","type":"function"},{"inputs":[{"internalType":"bytes32","name":"role","type":"bytes32"},{"internalType":"address","name":"account","type":"address"}],"name":"grantRole","outputs":[],"stateMutability":"nonpayable","type":"function"},{"inputs":[{"internalType":"bytes32","name":"role","type":"bytes32"},{"internalType":"address","name":"account","type":"address"}],"name":"hasRole","outputs":[{"internalType":"bool","name":"","type":"bool"}],"stateMutability":"view","type":"function"},{"inputs":[{"internalType":"string","name":"baseURI","type":"string"}],"name":"initialize","outputs":[],"stateMutability":"nonpayable","type":"function"},{"inputs":[{"internalType":"address","name":"account","type":"address"},{"internalType":"address","name":"operator","type":"address"}],"name":"isApprovedForAll","outputs":[{"internalType":"bool","name":"","type":"bool"}],"stateMutability":"view","type":"function"},{"inputs":[{"internalType":"address","name":"","type":"address"}],"name":"jewelryStores","outputs":[{"internalType":"address","name":"storeAddress","type":"address"},{"internalType":"string","name":"storeName","type":"string"},{"internalType":"string","name":"licenseNumber","type":"string"},{"internalType":"string","name":"contactInfo","type":"string"},{"internalType":"bool","name":"isActive","type":"bool"},{"internalType":"bool","name":"isVerified","type":"bool"},{"internalType":"uint256","name":"registrationDate","type":"uint256"},{"internalType":"uint256","name":"certificatesIssued","type":"uint256"}],"stateMutability":"view","type":"function"},{"inputs":[],"name":"owner","outputs":[{"internalType":"address","name":"","type":"address"}],"stateMutability":"view","type":"function"},{"inputs":[],"name":"pause","outputs":[],"stateMutability":"nonpayable","type":"function"},{"inputs":[],"name":"paused","outputs":[{"internalType":"bool","name":"","type":"bool"}],"stateMutability":"view","type":"function"},{"inputs":[],"name":"proxiableUUID","outputs":[{"internalType":"bytes32","name":"","type":"bytes32"}],"stateMutability":"view","type":"function"},{"inputs":[{"internalType":"address","name":"storeAddress","type":"address"},{"internalType":"string","name":"storeName","type":"string"},{"internalType":"string","name":"licenseNumber","type":"string"},{"internalType":"string","name":"contactInfo","type":"string"},{"internalType":"string[]","name":"specializations","type":"string[]"}],"name":"registerJewelryStore","outputs":[],"stateMutability":"nonpayable","type":"function"},{"inputs":[{"internalType":"uint256","name":"","type":"uint256"}],"name":"registeredStores","outputs":[{"internalType":"address","name":"","type":"address"}],"stateMutability":"view","type":"function"},{"inputs":[],"name":"renounceOwnership","outputs":[],"stateMutability":"nonpayable","type":"function"},{"inputs":[{"internalType":"bytes32","name":"role","type":"bytes32"},{"internalType":"address","name":"callerConfirmation","type":"address"}],"name":"renounceRole","outputs":[],"stateMutability":"nonpayable","type":"function"},{"inputs":[{"internalType":"bytes32","name":"role","type":"bytes32"},{"internalType":"address","name":"account","type":"address"}],"name":"revokeRole","outputs":[],"stateMutability":"nonpayable","type":"function"},{"inputs":[{"internalType":"address","name":"from","type":"address"},{"internalType":"address","name":"to","type":"address"},{"internalType":"uint256[]","name":"ids","type":"uint256[]"},{"internalType":"uint256[]","name":"values","type":"uint256[]"},{"internalType":"bytes","name":"data","type":"bytes"}],"name":"safeBatchTransferFrom","outputs":[],"stateMutability":"nonpayable","type":"function"},{"inputs":[{"internalType":"address","name":"from","type":"address"},{"internalType":"address","name":"to","type":"address"},{"internalType":"uint256","name":"id","type":"uint256"},{"internalType":"uint256","name":"value","type":"uint256"},{"internalType":"bytes","name":"data","type":"bytes"}],"name":"safeTransferFrom","outputs":[],"stateMutability":"nonpayable","type":"function"},{"inputs":[{"internalType":"address","name":"operator","type":"address"},{"internalType":"bool","name":"approved","type":"bool"}],"name":"setApprovalForAll","outputs":[],"stateMutability":"nonpayable","type":"function"},{"inputs":[{"internalType":"bytes4","name":"interfaceId","type":"bytes4"}],"name":"supportsInterface","outputs":[{"internalType":"bool","name":"","type":"bool"}],"stateMutability":"view","type":"function"},{"inputs":[{"internalType":"address","name":"storeAddress","type":"address"},{"internalType":"string","name":"reason","type":"string"}],"name":"suspendJewelryStore","outputs":[],"stateMutability":"nonpayable","type":"function"},{"inputs":[{"internalType":"uint256","name":"","type":"uint256"},{"internalType":"uint256","name":"","type":"uint256"}],"name":"tokenAppraisals","outputs":[{"internalType":"uint256","name":"tokenId","type":"uint256"},{"internalType":"address","name":"appraiser","type":"address"},{"internalType":"uint256","name":"appraisalValue","type":"uint256"},{"internalType":"string","name":"currency","type":"string"},{"internalType":"uint256","name":"appraisalDate","type":"uint256"},{"internalType":"string","name":"appraisalDocument","type":"string"},{"internalType":"bool","name":"isValid","type":"bool"},{"internalType":"string","name":"notes","type":"string"}],"stateMutability":"view","type":"function"},{"inputs":[],"name":"totalSupply","outputs":[{"internalType":"uint256","name":"","type":"uint256"}],"stateMutability":"view","type":"function"},{"inputs":[{"internalType":"address","name":"newOwner","type":"address"}],"name":"transferOwnership","outputs":[],"stateMutability":"nonpayable","type":"function"},{"inputs":[],"name":"unpause","outputs":[],"stateMutability":"nonpayable","type":"function"},{"inputs":[{"internalType":"uint256","name":"tokenId","type":"uint256"},{"internalType":"string","name":"newMetadataURI","type":"string"}],"name":"updateCertificateMetadata","outputs":[],"stateMutability":"nonpayable","type":"function"},{"inputs":[{"internalType":"uint256[]","name":"tokenIds","type":"uint256[]"},{"internalType":"string[]","name":"newMetadataURIs","type":"string[]"}],"name":"updateCertificateMetadataBatch","outputs":[],"stateMutability":"nonpayable","type":"function"},{"inputs":[{"internalType":"address","name":"newImplementation","type":"address"},{"internalType":"bytes","name":"data","type":"bytes"}],"name":"upgradeToAndCall","outputs":[],"stateMutability":"payable","type":"function"},{"inputs":[{"internalType":"uint256","name":"","type":"uint256"}],"name":"uri","outputs":[{"internalType":"string","name":"","type":"string"}],"stateMutability":"view","type":"function"}],"evm":{"bytecode":{"linkReferences":{},"object":"60a0806040523461002b5730608052615ac6908162000031823960805181818161161801526118eb0152f35b600080fdfe6080604052600436101561001257600080fd5b60003560e01c8062fdd58e1461036157806301ffc9a71461035c578063054c6c591461035757806306310e21146103525780630e89341c1461034d57806312480ff11461034857806318160ddd146103435780631c348dd31461033e578063248a9ca3146103395780632eb2c2d6146103345780632eb979b31461032f5780632f2ff15d1461032a57806336568abe146103255780633f4ba83a1461032057806343b6fe00146102f8578063455a43961461031b57806346184dc41461031657806347e63380146103115780634e1273f41461030c5780634f1ef2861461030757806351640fee1461030257806352d1902d146102fd57806353dcc366146102f85780635439b68a146102f35780635c975abb146102ee578063663b3e22146102e95780636b953891146102e45780636c93ea46146102df5780636e1d616e146102da5780636e5a2e41146102d5578063715018a6146102d057806377faa44f146102cb5780638456cb59146102c65780638afbd497146102c15780638da5cb5b146102bc57806391d14854146102b757806393b16b45146102b25780639aa85d00146102ad578063a217fddf146102a8578063a22cb465146102a3578063acdd7c7e1461029e578063ad3cb1cc14610299578063bf10f39614610294578063d53913931461028f578063d547741f1461028a578063d551a21414610285578063d5749d4214610280578063d86ede4a1461027b578063e985e9c514610276578063f242432a14610271578063f2fde38b1461026c578063f62d1888146102675763fff5465b1461026257600080fd5b613140565b612f17565b612eee565b612e46565b612e15565b612c14565b612bd5565b612b0e565b612ac2565b612a87565b612a4c565b612a06565b6129b8565b612940565b612924565b6127b6565b6126a2565b612643565b61260d565b61257d565b612441565b61226e565b612203565b611ed9565b611e9e565b611c6d565b611be1565b611aa4565b6119a2565b611947565b6112ab565b6118d8565b611848565b6115d9565b61151f565b61149f565b611464565b6112f2565b61118c565b611145565b6110f9565b611029565b610ef6565b610da7565b610d76565b610d29565b610bf8565b610a36565b610998565b6104dd565b610455565b6103d7565b600435906001600160a01b038216820361037c57565b600080fd5b602435906001600160a01b038216820361037c57565b60a435906001600160a01b038216820361037c57565b604435906001600160a01b038216820361037c57565b35906001600160a01b038216820361037c57565b3461037c57604036600319011261037c57602061043a6103f5610366565b6024356000527f88be536d5240c274a3b1d3a1be54482fd9caa294f08c62a7cde569f49a3c4500835260406000209060018060a01b0316600052602052604060002090565b54604051908152f35b6001600160e01b031981160361037c57565b3461037c57602036600319011261037c57602060043561047481610443565b63ffffffff60e01b16637965db0b60e01b811490811561049a575b506040519015158152f35b636cdb3d1360e11b8114915081156104cc575b81156104bb575b503861048f565b6301ffc9a760e01b149050386104b4565b6303a24d0760e21b811491506104ad565b3461037c57604036600319011261037c576004356104f9610381565b3360009081527fc4ace3e9825e9c0e31f6bfe0307587a31e0f7e0a8fcde3632614313093ac5ea060205260408120549092919060ff168015610708575b61053f9061324b565b610547614785565b811515806106fc575b610559906132cf565b818352600560205261057260ff6040852054161561332b565b6001600160a01b03818116808552600460205260408520549093919061059b9060ff161561338c565b83156106915761066a906105d16105cc600a6105c1866000526000602052604060002090565b015460081c60ff1690565b6133ee565b826105f960066105eb836000526000602052604060002090565b01546001600160a01b031690565b9182169461060987871415613459565b610643816006610623856000526000602052604060002090565b0180546001600160a01b0319166001600160a01b03909216919091179055565b42600961065a846000526000602052604060002090565b01556106646129f3565b926147b0565b7f6080632022690532a64370168575eb712f301714cae97e67f927a2f9d912c0618480a480f35b60405162461bcd60e51b815260206004820152603760248201527f566572616c69784d617374657252656769737472793a206e6577206f776e657260448201527f2063616e6e6f74206265207a65726f20616464726573730000000000000000006064820152608490fd5b50600654821115610550565b50600080516020615971833981519152546001600160a01b03163314610536565b6001600160a01b031660009081527f88be536d5240c274a3b1d3a1be54482fd9caa294f08c62a7cde569f49a3c45016020526040902090565b90600182811c92168015610792575b602083101461077c57565b634e487b7160e01b600052602260045260246000fd5b91607f1691610771565b634e487b7160e01b600052604160045260246000fd5b6101c081019081106001600160401b038211176107ce57604052565b61079c565b61012081019081106001600160401b038211176107ce57604052565b602081019081106001600160401b038211176107ce57604052565b604081019081106001600160401b038211176107ce57604052565b90601f801991011681019081106001600160401b038211176107ce57604052565b9060405191826000825461085981610762565b908184526020946001916001811690816000146108c9575060011461088a575b50505061088892500383610825565b565b600090815285812095935091905b8183106108b15750506108889350820101388080610879565b85548884018501529485019487945091830191610898565b9250505061088894925060ff191682840152151560051b820101388080610879565b60005b8381106108fe5750506000910152565b81810151838201526020016108ee565b90602091610927815180928185528580860191016108eb565b601f01601f1916010190565b94989796939060e0969361096461098094610972936101009060018060a01b03168a528060208b015289019061090e565b90878203604089015261090e565b90858203606087015261090e565b9615156080840152151560a083015260c08201520152565b3461037c57602036600319011261037c576001600160a01b03806109ba610366565b166000526002602052604060002090815416610a1e6109db60018401610846565b916109e860028501610846565b936109f560038201610846565b91600482015490600660058401549301549360405197889760ff808660081c1695169389610933565b0390f35b906020610a3392818152019061090e565b90565b3461037c5760208060031936011261037c57604051600091600080516020615a718339815191528054610a6881610762565b80855291600191808316908115610af85750600114610a9e575b610a1e85610a9281890382610825565b60405191829182610a22565b60009081529294507ff429cb5e2ec84cbb765e76b31964a56ccde03e7a6122d6cc4afb19edc55edeed5b828410610ae55750505081610a1e93610a92928201019338610a82565b8054858501870152928501928101610ac8565b60ff191686860152505050151560051b8201019150610a9281610a1e38610a82565b6020808201908083528351809252604092604081018260408560051b8401019601946000925b858410610b51575050505050505090565b909192939495968580610be7600193603f198682030188528b51610bc8610bab61010083518552610b8f878501518887019060018060a01b03169052565b8a8401518b86015260609080828601519287015285019061090e565b6080808401519085015260a080840151908583039086015261090e565b60c0828101511515908401529160e0809201519181840391015261090e565b990194019401929594939190610b40565b3461037c5760208060031936011261037c57600480359081151580610d1d575b610c21906132cf565b60009180835260059360058152604091610c4260ff6040872054161561332b565b8452600393600382526040812092835494610c5c86610e1d565b96610c6a6040519889610825565b86885284880195845284842093955b878710610c8e5760405180610a1e8b82610b1a565b6008866001928c610cdf610ca0610de3565b8a548152868b01546001600160a01b0316858201529160028b01548a840152610cca888c01610846565b6060840152888b015460808401528a01610846565b60a0820152610cfe610cf560068b015460ff1690565b151560c0830152565b610d0a60078a01610846565b60e0820152815201950196019593610c79565b50600654821115610c18565b3461037c57600036600319011261037c576020600654604051908152f35b6000527f88be536d5240c274a3b1d3a1be54482fd9caa294f08c62a7cde569f49a3c4500602052604060002090565b3461037c57602036600319011261037c576004356000526005602052602060ff604060002054166040519015158152f35b3461037c57602036600319011261037c576004356000526000805160206159f18339815191526020526020600160406000200154604051908152f35b6040519061010082018281106001600160401b038211176107ce57604052565b60405190610888826107b2565b60405190610888826107d3565b6001600160401b0381116107ce5760051b60200190565b9080601f8301121561037c576020908235610e4e81610e1d565b93610e5c6040519586610825565b81855260208086019260051b82010192831161037c57602001905b828210610e85575050505090565b81358152908301908301610e77565b6001600160401b0381116107ce57601f01601f191660200190565b81601f8201121561037c57803590610ec682610e94565b92610ed46040519485610825565b8284526020838301011161037c57816000926020809301838601378301015290565b3461037c5760a036600319011261037c57610f0f610366565b610f17610381565b90604435916001600160401b039081841161037c57610f3b60049436908601610e34565b9060643583811161037c57610f539036908701610e34565b9260843590811161037c57610f6b9036908701610eaf565b936001600160a01b03808216903382141580610ffa575b610fcd57831615610fb55715610f9e57610f9c95506150dd565b005b604051626a0d4560e21b8152600081880152602490fd5b604051632bfa23e760e11b8152600081890152602490fd5b6040805163711bec9160e11b815233818b019081526001600160a01b038616602082015290918291010390fd5b5060ff6110213361100a86610729565b9060018060a01b0316600052602052604060002090565b541615610f82565b3461037c5761010036600319011261037c576001600160401b036004803582811161037c5761105b9036908301610eaf565b60243583811161037c576110729036908401610eaf565b9060443584811161037c5761108a9036908501610eaf565b60643585811161037c576110a19036908601610eaf565b60843586811161037c576110b89036908701610eaf565b906110c1610397565b9260e43597881161037c576110df6110e997610a1e99369101610eaf565b9560c435956134cb565b6040519081529081906020820190565b3461037c57604036600319011261037c57610f9c600435611118610381565b90806000526000805160206159f1833981519152602052611140600160406000200154614933565b614cb2565b3461037c57604036600319011261037c5761115e610381565b336001600160a01b0382160361117a57610f9c90600435614dbd565b60405163334bd91960e11b8152600490fd5b3461037c57600080600319360112611258578080526000805160206159f183398151915260209081526040808320336000908152925290205460ff168015611237575b6111d89061324b565b600080516020615a11833981519152805460ff8116156112255760ff191690557f5db9ee0a495bf2e6ff9c91a7834c1ba4fdd244a5e8aa4e537bd38aeae4b073aa6020604051338152a180f35b604051638dfc202b60e01b8152600490fd5b50600080516020615971833981519152546001600160a01b031633146111cf565b80fd5b602060031982011261037c57600435906001600160401b03821161037c57610a3391600401610eaf565b602061129e9181604051938285809451938492016108eb565b8101600181520301902090565b3461037c57602061043a6112be3661125b565b611285565b604090600319011261037c576004356001600160a01b038116810361037c5790602435801515810361037c5790565b3461037c57611300366112c3565b336000908152600080516020615991833981519152602052604090205490919060ff168015611443575b6113339061324b565b6001600160a01b038181169290919083156113e1576113ca816113b96113dc9461139f6113977f97b7af35c8c05eca90f543eb78b16fdf2664d3e6c9a907286f310647d9813b7198600080516020615971833981519152541660018060a01b031690565b891415613b4f565b6001600160a01b0316600090815260046020526040902090565b9060ff801983541691151516179055565b60405190151581529081906020820190565b0390a2005b60405162461bcd60e51b815260206004820152603460248201527f566572616c69784d617374657252656769737472793a2063616e6e6f7420626c60448201527361636b6c697374207a65726f206164647265737360601b6064820152608490fd5b50600080516020615971833981519152546001600160a01b0316331461132a565b3461037c57600036600319011261037c5760206040517f1ca4917a93bbf937a078cf9cc2b3d0c4aaac3367aae1018d3d982bb6e49887f18152f35b3461037c57600036600319011261037c5760206040517f73e573f9566d61418a34d5de3ff49360f9c51fec37f7486551670290f6285dab8152f35b90815180825260208080930193019160005b8281106114fa575050505090565b8351855293810193928101926001016114ec565b906020610a339281815201906114da565b3461037c57604036600319011261037c576004356001600160401b0380821161037c573660238301121561037c57816004013561155b81610e1d565b926115696040519485610825565b8184526020916024602086019160051b8301019136831161037c57602401905b8282106115c2578560243586811161037c57610a1e916115b06115b6923690600401610e34565b90613bf7565b6040519182918261150e565b8380916115ce846103c3565b815201910190611589565b604036600319011261037c576115ed610366565b6024356001600160401b03811161037c5761160c903690600401610eaf565b6001600160a01b0391907f00000000000000000000000000000000000000000000000000000000000000008316308114908115611717575b506117055760206004936116566148ed565b6040516352d1902d60e01b8152948591829086165afa600093816116d4575b5061169b57604051634c9c8ce360e01b81526001600160a01b0383166004820152602490fd5b906000805160206159b183398151915283036116bb57610f9c925061519e565b604051632a87526960e21b815260048101849052602490fd5b6116f791945060203d6020116116fe575b6116ef8183610825565b810190614df7565b9238611675565b503d6116e5565b60405163703e46dd60e11b8152600490fd5b9050836000805160206159b18339815191525416141538611644565b90610a339160208152815160208201526020820151906117616101c0928360408401526101e083019061090e565b916117c36117af61179b611787604088015196601f19978888830301606089015261090e565b60608801518787830301608088015261090e565b6080870151868683030160a087015261090e565b60a0860151858583030160c086015261090e565b60c08501516001600160a01b031660e08401529360e08101516001600160a01b03166101008481019190915281015161012090818501528101516101409081850152810151611819610160918286019015159052565b81015161182d610180918286019015159052565b810151906101a091828501520151928285030191015261090e565b3461037c57602036600319011261037c57604051611865816107b2565b6101a060009182815260609283602083015283604083015283808301528360808301528360a08301528060c08301528060e0830152806101008301528061012083015280610140830152806101608301526101808201520152610a1e6118cc600435613cb4565b60405191829182611733565b3461037c57600036600319011261037c577f00000000000000000000000000000000000000000000000000000000000000006001600160a01b031630036117055760206040516000805160206159b18339815191528152f35b634e487b7160e01b600052603260045260246000fd5b3461037c57602036600319011261037c5760043560075481101561037c5760076000527fa66cc928b5edb82af9bd49922954155ab7b0942694bea4ce44661d9a8736c68801546040516001600160a01b039091168152602090f35b3461037c57600036600319011261037c57602060ff600080516020615a1183398151915254166040519015158152f35b9a95611a4e90610a339f9d9993611a86999f9c978e90611a32611a909e99611a24611a709a611a16611a4097611a609b6101c09089528060208a015288019061090e565b90868203604088015261090e565b90848203606086015261090e565b91608081840391015261090e565b8d810360a08f01529061090e565b6001600160a01b03909d1660c08c0152565b6001600160a01b031660e08a0152565b6101008801526101208701521515610140860152565b1515610160840152565b6101808201526101a081840391015261090e565b3461037c57602036600319011261037c57600435600052600060205260406000208054610a1e611ad660018401610846565b91611ae360028501610846565b93611af060038201610846565b91611afd60048301610846565b90611b0a60058401610846565b60068401546001600160a01b031660078501546001600160a01b0316600886015491600987015493600a88015496611b49600c600b8b01549a01610846565b996040519d8e9d8e9960ff808d60081c169c169a6119d2565b81601f8201121561037c57803591602091611b7c84610e1d565b93611b8a6040519586610825565b808552838086019160051b8301019280841161037c57848301915b848310611bb55750505050505090565b82356001600160401b03811161037c578691611bd684848094890101610eaf565b815201920191611ba5565b3461037c5760a036600319011261037c57611bfa610366565b6001600160401b039060243582811161037c57611c1b903690600401610eaf565b60443583811161037c57611c33903690600401610eaf565b60643584811161037c57611c4b903690600401610eaf565b9160843594851161037c57611c67610f9c953690600401611b62565b93613ddb565b3461037c57604036600319011261037c576001600160401b0360043560243582811161037c57611ca1903690600401610eaf565b3360009081527f268477d1c17bf7595397186358fec802c44c92bb39292de205ad03cbfe096e02602090815260408220549194909160ff168015611e7d575b611ce99061324b565b611cf1614785565b83151580611e71575b611d03906132cf565b83855260058252611d1b60ff6040872054161561332b565b611d278351151561423f565b838552848252600560408620019183519182116107ce57611d5282611d4c8554610762565b85613933565b80601f8311600114611ddf575091611da6827f2515fafa24747db25d60fb3f86f82f18e969dee98607cc863ced46768089b9299593611dce958991611dd4575b508160011b916000199060031b1c19161790565b90555b426009611dc0866000526000602052604060002090565b015560405191829182610a22565b0390a280f35b905084015138611d92565b90601f198316611df485600052602060002090565b9288905b828210611e5957505092611dce9492600192827f2515fafa24747db25d60fb3f86f82f18e969dee98607cc863ced46768089b929989610611e40575b5050811b019055611da9565b85015160001960f88460031b161c191690553880611e34565b80600185968294968b01518155019501930190611df8565b50600654841115611cfa565b50600080516020615971833981519152546001600160a01b03163314611ce0565b3461037c57600036600319011261037c5760206040517f59a1c48e5837ad7a7f3dcedcbe129bf3249ec4fbf651fd4f5e2600ead39fe2f58152f35b3461037c5760608060031936011261037c576001600160401b039060043582811161037c57611f0c903690600401611b62565b9160243590811161037c57611f25903690600401611b62565b90611f2e6103ad565b3360009081526000805160206159d1833981519152602090815260408083205492969094909260ff1680156121e2575b611f679061324b565b611f6f614785565b611f77614877565b6001600160a01b03841680885260046020526040882054909590611f9e9060ff161561338c565b336000908152600260205260409020611fc690611fc1906004905b015460ff1690565b61380a565b835193611fd48515156142a7565b611fe0858951146142fe565b611fe985613bb1565b97611ff386613bb1565b9988151595815b88811061209357610a1e8c8c8f8d612048918e612037600661202e3360018060a01b03166000526002602052604060002090565b0191825461438e565b9055846120426129f3565b92614e06565b6040517fb41486d0e77ec354cb1b377f4db490db23ed03c55dcf6c99bfb62e1f0b356b09339180612079868261150e565b0390a36115b66001600080516020615a3183398151915255565b8060016121db8f938f948b8f838f988e6121cf8f8f8f918f8d9f926120e8946121736121d59b6121ca946120fa8d986120d86120cf8b8b613be3565b515115156136be565b6120f56120ee6120e88c8c613be3565b51611285565b5415613730565b6137a2565b600661210e6121098254613884565b600655565b549e8f9b8c966121298b612122818d613be3565b5192613be3565b5193612133610e03565b98895288015261214161435f565b9087015261214d6129f3565b908601526121596129f3565b608086015260a08501526001600160a01b031660c0840152565b3360e08301524261010083015242610120830152612195610140830160019052565b60016101608301526101808201526121ab6129f3565b6101a08201526121c5876000526000602052604060002090565b613a42565b613be3565b55613be3565b52613be3565b5201611ffa565b50600080516020615971833981519152546001600160a01b03163314611f5e565b3461037c576000806003193601126112585761221d614e21565b60008051602061597183398151915280546001600160a01b0319811690915581906001600160a01b03167f8be0079c531659141344cd1fd0a4f28419497f9722a3daafe3b4186f6b6457e08280a380f35b3461037c5760408060031936011261037c576001600160401b039060043582811161037c576122a1903690600401610e34565b9160243590811161037c576122ba903690600401611b62565b3360009081527f268477d1c17bf7595397186358fec802c44c92bb39292de205ad03cbfe096e02602052604090205460ff168015612420575b6122fc9061324b565b612304614785565b61231183518251146142fe565b82519161231f8315156142a7565b60005b83811061232b57005b8061233860019287613be3565b5180151580612414575b61234b906132cf565b61237861237361236f612368846000526005602052604060002090565b5460ff1690565b1590565b61332b565b61238e6123858387613be3565b5151151561423f565b6123b861239b8387613be3565b5160056123b2846000526000602052604060002090565b0161396d565b4260096123cf836000526000602052604060002090565b01557f2515fafa24747db25d60fb3f86f82f18e969dee98607cc863ced46768089b92961240b6123ff8488613be3565b51865191829182610a22565b0390a201612322565b50600654811115612342565b50600080516020615971833981519152546001600160a01b031633146122f3565b3461037c57600080600319360112611258578080526000805160206159f183398151915260209081526040808320336000908152925290205460ff1680156124dc575b61248d9061324b565b612495614785565b600080516020615a11833981519152600160ff198254161790557f62e78cea01bee320cd4e420270b5ea74000d11b0c9f74754ebdbfc544b05a2586020604051338152a180f35b50600080516020615971833981519152546001600160a01b03163314612484565b80548210156125195760005260206000209060031b0190600090565b611931565b9492936125559161256895610a339a989461010092895260018060a01b03166020890152604088015280606088015286019061090e565b91608085015283820360a085015261090e565b92151560c082015260e081840391015261090e565b3461037c57604036600319011261037c576024356004356000526003602052604060002090815481101561037c576125b4916124fd565b508054610a1e60018060a01b03600184015416926002810154906125da60038201610846565b60048201546125eb60058401610846565b91612600600760ff6006870154169501610846565b946040519889988961251e565b3461037c57600036600319011261037c57600080516020615971833981519152546040516001600160a01b039091168152602090f35b3461037c57604036600319011261037c57602060ff612696612663610381565b6004356000526000805160206159f1833981519152845260406000209060018060a01b0316600052602052604060002090565b54166040519015158152f35b3461037c57602036600319011261037c573360009081526000805160206159d183398151915260205260408120546004359060ff168015612795575b6126e79061324b565b6126ef614785565b80151580612789575b612701906132cf565b808252600560205261271a60ff6040842054161561332b565b808252816020526127608160408420600a60018060a01b03600683015416910160ff198154169055600560205261275b60408620600160ff19825416179055565b614e5a565b33907f639fd397b18e31e94b1cb8d126890a9123d56692f1d9cd3f5d55b37642f0e5778380a380f35b506006548111156126f8565b50600080516020615971833981519152546001600160a01b031633146126de565b3461037c57604036600319011261037c576127cf610366565b6024356001600160401b03811161037c576127ee903690600401610eaf565b33600090815260008051602061599183398151915260205260408120549092919060ff168015612903575b6128229061324b565b6001600160a01b0382168084526002602052604084206004015490929060ff16156128ae577f081ea0b52facb7cae099d66560c7980b7e775bfb1cb54c8fe7792c672965cf71916128a18261289c6004612891611dce9660018060a01b03166000526002602052604060002090565b01805460ff19169055565b614cec565b5060405191829182610a22565b60405162461bcd60e51b815260206004820152602760248201527f566572616c69784d617374657252656769737472793a2073746f7265206e6f746044820152662061637469766560c81b6064820152608490fd5b50600080516020615971833981519152546001600160a01b03163314612819565b3461037c57600036600319011261037c57602060405160008152f35b3461037c5761294e366112c3565b6001600160a01b0382169182156129a057816113b96129709261100a33610729565b60405190151581527f17307eab39ab6107e8899845ad3d59bd9653f200f220920489ca2b5937696c3160203392a3005b60405162ced3e160e81b815260006004820152602490fd5b3461037c57600036600319011261037c5760206040517f8f831c56b3d9bf5e541f4e1b3b7f898cdb4b80ba7a4af71f8797c706fd21674e8152f35b60405190612a00826107ef565b60008252565b3461037c57600036600319011261037c57610a1e604051612a268161080a565b60058152640352e302e360dc1b602082015260405191829160208352602083019061090e565b3461037c57600036600319011261037c5760206040517f458e7120010273a45c50a429c988a509adeb4407885607d9797da91c85e8d7068152f35b3461037c57600036600319011261037c5760206040517f9f2df0fed2c77648de5860a4cc508cd0818c85b8b8a1ab4ceeef8d981c8956a68152f35b3461037c57604036600319011261037c57610f9c600435612ae1610381565b90806000526000805160206159f1833981519152602052612b09600160406000200154614933565b614dbd565b3461037c576000806003193601126112585760405180916007549081835260208093018092600783527fa66cc928b5edb82af9bd49922954155ab7b0942694bea4ce44661d9a8736c68890835b818110612bb85750505084612b71910385610825565b60405193838594850191818652518092526040850193925b828110612b9857505050500390f35b83516001600160a01b031685528695509381019392810192600101612b89565b82546001600160a01b031684529286019260019283019201612b5b565b3461037c57602036600319011261037c576001600160a01b03612bf6610366565b166000526004602052602060ff604060002054166040519015158152f35b3461037c5760a036600319011261037c576001600160401b0360243560043560443583811161037c57612c4b903690600401610eaf565b60643584811161037c57612c63903690600401610eaf565b9360843590811161037c577f181bb78e3b1b1c153d2d9f944d8bd6f6198aafd00f492a75f347987dc466972191612d88612ca4612de2933690600401610eaf565b3360009081527f5fea0257c15a54c2a392cae6eefe907a9f0adbe261851b7e7f874aec8af845a260205260408120549098919060ff168015612df4575b612cea9061324b565b612cf2614785565b86151580612de8575b612d04906132cf565b8689526005602052612d1d60ff60408b2054161561332b565b612d2888151561439b565b612d348451151561440c565b612d3c610de3565b8781523360208201529188604084015284606084015242608084015260a0830152612d6a60c0830160019052565b60e0820152612d83866000526003602052604060002090565b614470565b84600b612d9f866000526000602052604060002090565b0155612dbb81600c6123b2876000526000602052604060002090565b426009612dd2866000526000602052604060002090565b015560405191829133968361452e565b0390a380f35b50600654871115612cfb565b50600080516020615971833981519152546001600160a01b03163314612ce1565b3461037c57604036600319011261037c57602060ff612696612e35610366565b61100a612e40610381565b91610729565b3461037c5760a036600319011261037c57612e5f610366565b612e67610381565b6084356001600160401b03811161037c57612e86903690600401610eaf565b906001600160a01b03831633141580612ed6575b612eaf57610f9c926064359160443591614831565b60405163711bec9160e11b81523360048201526001600160a01b0384166024820152604490fd5b5060ff612ee63361100a86610729565b541615612e9a565b3461037c57602036600319011261037c57610f9c612f0a610366565b612f12614e21565b614545565b3461037c57612f253661125b565b600080516020615a5183398151915254906001600160401b0360ff8360401c1615921680159081613030575b6001149081613026575b15908161301d575b5061300b57600080516020615a51833981519152805467ffffffffffffffff19166001179055612f979082612fe6576145b9565b612f9d57005b600080516020615a51833981519152805460ff60401b19169055604051600181527fc7f505b2f371ae2175ee4913f4499e1f2633a7b5936321eed1cdaeb6115181d290602090a1005b600080516020615a51833981519152805460ff60401b1916600160401b1790556145b9565b60405163f92ee8a960e01b8152600490fd5b90501538612f63565b303b159150612f5b565b839150612f51565b90808251908181526020809101926020808460051b8301019501936000915b8483106130675750505050505090565b9091929394958480613085600193601f198682030187528a5161090e565b9801930193019194939290613057565b602080825282516001600160a01b031690820152610a3391906020820151906130cc6101209283604084015261014083019061090e565b916131006130ec604086015194601f19958686830301606087015261090e565b60608601518585830301608086015261090e565b6080850151151560a08401529360a0810151151560c084015260c081015160e084015260e081015190610100918285015201519282850301910152613038565b3461037c57602036600319011261037c57610a1e61315c610366565b604051613168816107d3565b61323b600760406000808552606095866020870152868387015286808701528160808701528160a08701528160c08701528160e0870152866101008097015260018060a01b031681526002602052206131bf610e10565b81546001600160a01b03168152946131d960018301610846565b60208701526131ea60028301610846565b60408701526131fb60038301610846565b90860152600481015460ff818116151560808801526132219160081c16151560a0870152565b600581015460c0860152600681015460e086015201614730565b9082015260405191829182613095565b1561325257565b60405162461bcd60e51b815260206004820152604960248201527f566572616c69784d617374657252656769737472793a2063616c6c657220646f60448201527f6573206e6f74206861766520726571756972656420726f6c65206f72206973206064820152683737ba1037bbb732b960b91b608482015260a490fd5b156132d657565b60405162461bcd60e51b815260206004820152602760248201527f566572616c69784d617374657252656769737472793a20696e76616c696420746044820152661bdad95b88125160ca1b6064820152608490fd5b1561333257565b60405162461bcd60e51b815260206004820152602c60248201527f566572616c69784d617374657252656769737472793a20746f6b656e2068617360448201526b081899595b88189d5c9b995960a21b6064820152608490fd5b1561339357565b60405162461bcd60e51b815260206004820152602d60248201527f566572616c69784d617374657252656769737472793a2061646472657373206960448201526c1cc8189b1858dadb1a5cdd1959609a1b6064820152608490fd5b156133f557565b60405162461bcd60e51b815260206004820152603660248201527f566572616c69784d617374657252656769737472793a206365727469666963616044820152757465206973206e6f74207472616e7366657261626c6560501b6064820152608490fd5b1561346057565b60405162461bcd60e51b815260206004820152603d60248201527f566572616c69784d617374657252656769737472793a206e6577206f776e657260448201527f206973207468652073616d652061732063757272656e74206f776e65720000006064820152608490fd5b3360009081526000805160206159d1833981519152602052604090205492979396909561365295909461361a949092919060ff16801561369d575b61350f9061324b565b613517614785565b61351f614877565b60018060a01b0386169889600052600460205261354460ff604060002054161561338c565b613550895115156136be565b61355c6120ee8a611285565b6135678a15156137a2565b33600090815260026020526040902061358690611fc190600490611fb9565b613594612109600654613884565b6006549a6135a0610e03565b8c8152602081018b905260408101969096526060860152608085015260a08401526001600160a01b03851660c08401523360e084015242610100840152426101208401526135f2610140840160019052565b60016101608401526101808301526101a08201526121c5876000526000602052604060002090565b8461362484611285565b553360009081526002602052604090206006016136418154613884565b90558461364c6129f3565b916148a7565b827f60469ec7c6ee62537e37b986f9f7be5bb53b61f0d662dd0e088fb274421e3c6d60405180613683339582610a22565b0390a4610a336001600080516020615a3183398151915255565b50600080516020615971833981519152546001600160a01b03163314613506565b156136c557565b60405162461bcd60e51b815260206004820152603960248201527f566572616c69784d617374657252656769737472793a2063657274696669636160448201527f7465206e756d6265722063616e6e6f7420626520656d707479000000000000006064820152608490fd5b1561373757565b60405162461bcd60e51b815260206004820152603860248201527f566572616c69784d617374657252656769737472793a2063657274696669636160448201527f7465206e756d62657220616c72656164792065786973747300000000000000006064820152608490fd5b156137a957565b60405162461bcd60e51b815260206004820152603360248201527f566572616c69784d617374657252656769737472793a206f776e65722063616e6044820152726e6f74206265207a65726f206164647265737360681b6064820152608490fd5b1561381157565b60405162461bcd60e51b815260206004820152602f60248201527f566572616c69784d617374657252656769737472793a206a6577656c7279207360448201526e746f7265206e6f742061637469766560881b6064820152608490fd5b634e487b7160e01b600052601160045260246000fd5b60001981146138935760010190565b61386e565b634e487b7160e01b600052600060045260246000fd5b8181106138b9575050565b600081556001016138ae565b90601f82116138d2575050565b61088891600080516020615a718339815191526000527ff429cb5e2ec84cbb765e76b31964a56ccde03e7a6122d6cc4afb19edc55edeed906020601f840160051c83019310613929575b601f0160051c01906138ae565b909150819061391c565b9190601f811161394257505050565b610888926000526020600020906020601f840160051c8301931061392957601f0160051c01906138ae565b91909182516001600160401b0381116107ce576139948161398e8454610762565b84613933565b602080601f83116001146139d7575081906139c89394956000926139cc575b50508160011b916000199060031b1c19161790565b9055565b0151905038806139b3565b90601f198316956139ed85600052602060002090565b926000905b888210613a2a57505083600195969710613a11575b505050811b019055565b015160001960f88460031b161c19169055388080613a07565b806001859682949686015181550195019301906139f2565b600c6101a06108889380518455613a6060208201516001860161396d565b613a7160408201516002860161396d565b613a8260608201516003860161396d565b613a9360808201516004860161396d565b613aa460a08201516005860161396d565b60c08101516006850180546001600160a01b039283166001600160a01b03199182161790915560e083015160078701805491909316911617905561010081015160088501556101208101516009850155610140810151613b3b90600a860190613b1c9015155b829060ff801983541691151516179055565b61016083015115155b815461ff00191690151560081b61ff0016179055565b610180810151600b8501550151910161396d565b15613b5657565b60405162461bcd60e51b815260206004820152602d60248201527f566572616c69784d617374657252656769737472793a2063616e6e6f7420626c60448201526c30b1b5b634b9ba1037bbb732b960991b6064820152608490fd5b90613bbb82610e1d565b613bc86040519182610825565b8281528092613bd9601f1991610e1d565b0190602036910137565b80518210156125195760209160051b010190565b91909180518351808203613c92575050613c118151613bb1565b9060009060005b8151811015613c8a5780613c7860019260051b7f88be536d5240c274a3b1d3a1be54482fd9caa294f08c62a7cde569f49a3c4500602080808489010151938c010151885252604086209060018060a01b0316600052602052604060002090565b54613c838287613be3565b5201613c18565b509193505050565b604051635b05999160e01b815260048101919091526024810191909152604490fd5b80151580613dcf575b613cc6906132cf565b806000526005602052613ce160ff604060002054161561332b565b60005260006020526040600020613dc6600c613cfb610e03565b9280548452613d0c60018201610846565b6020850152613d1d60028201610846565b6040850152613d2e60038201610846565b6060850152613d3f60048201610846565b6080850152613d5060058201610846565b60a085015260068101546001600160a01b031660c085015260078101546001600160a01b031660e085015260088101546101008501526009810154610120850152600a81015460ff8181161515610140870152613db59160081c161515610160860152565b600b81015461018085015201610846565b6101a082015290565b50600654811115613cbd565b336000908152600080516020615991833981519152602052604090205493947fcaff446130e685d1fddb714a7925ecac5674d9aa281d7d556b20421c30ff319f94613f05946128a19392613ef79260ff168015613f0a575b613e3c9061324b565b6001600160a01b03841698613e528a1515613f2b565b613e5e87511515613f93565b613e8a613e8561236f6004611fb98960018060a01b03166000526002602052604060002090565b613ff9565b613e92610e10565b6001600160a01b03861681529287602085015260408401526060830152613ebc6080830160019052565b600060a08301524260c0830152600060e0830152610100820152613ef28360018060a01b03166000526002602052604060002090565b614141565b613f00816141db565b614983565b0390a2565b50600080516020615971833981519152546001600160a01b03163314613e33565b15613f3257565b60405162461bcd60e51b815260206004820152603360248201527f566572616c69784d617374657252656769737472793a2073746f726520616464604482015272726573732063616e6e6f74206265207a65726f60681b6064820152608490fd5b15613f9a57565b60405162461bcd60e51b815260206004820152603160248201527f566572616c69784d617374657252656769737472793a2073746f7265206e616d604482015270652063616e6e6f7420626520656d70747960781b6064820152608490fd5b1561400057565b60405162461bcd60e51b815260206004820152602f60248201527f566572616c69784d617374657252656769737472793a2073746f726520616c7260448201526e1958591e481c9959da5cdd195c9959608a1b6064820152608490fd5b815191600160401b83116107ce5781548383558084106140bb575b5061408d602080920192600052602060002090565b6000925b84841061409f575050505050565b600183826140af8394518661396d565b01920193019290614091565b60008360005284602060002092830192015b8281106140db575050614078565b806140e860019254610762565b806140f5575b50016140cd565b601f90818111841461410d5750508281555b386140ee565b8361412f9261412185600052602060002090565b920160051c820191016138ae565b60008181526020812081835555614107565b815181546001600160a01b0319166001600160a01b03909116178155610888916007906101009061417960208201516001860161396d565b61418a60408201516002860161396d565b61419b60608201516003860161396d565b6141be600485016141b2613b0a6080850151151590565b60a08301511515613b25565b60c0810151600585015560e081015160068501550151910161405d565b600754600160401b8110156107ce5760018101806007558110156125195760076000527fa66cc928b5edb82af9bd49922954155ab7b0942694bea4ce44661d9a8736c6880180546001600160a01b0319166001600160a01b03909216919091179055565b1561424657565b60405162461bcd60e51b815260206004820152603360248201527f566572616c69784d617374657252656769737472793a206d65746164617461206044820152725552492063616e6e6f7420626520656d70747960681b6064820152608490fd5b156142ae57565b60405162461bcd60e51b815260206004820152602260248201527f566572616c69784d617374657252656769737472793a20656d707479206261746044820152610c6d60f31b6064820152608490fd5b1561430557565b60405162461bcd60e51b815260206004820152602c60248201527f566572616c69784d617374657252656769737472793a206172726179206c656e60448201526b0cee8d040dad2e6dac2e8c6d60a31b6064820152608490fd5b6040519061436c8261080a565b60138252724a6577656c727920436572746966696361746560681b6020830152565b9190820180921161389357565b156143a257565b608460405162461bcd60e51b815260206004820152604060248201527f566572616c69784d617374657252656769737472793a2061707072616973616c60448201527f2076616c7565206d7573742062652067726561746572207468616e207a65726f6064820152fd5b1561441357565b60405162461bcd60e51b815260206004820152602f60248201527f566572616c69784d617374657252656769737472793a2063757272656e63792060448201526e63616e6e6f7420626520656d70747960881b6064820152608490fd5b8054600160401b8110156107ce5761448d916001820181556124fd565b614529578151815560208201516001820180546001600160a01b0319166001600160a01b039092169190911790556108889160079060e090604081015160028501556144e060608201516003860161396d565b608081015160048501556144fb60a08201516005860161396d565b61452061450b60c0830151151590565b600686019060ff801983541691151516179055565b0151910161396d565b613898565b604090610a3393928152816020820152019061090e565b6001600160a01b039081169081156145a05760008051602061597183398151915280546001600160a01b031981168417909155167f8be0079c531659141344cd1fd0a4f28419497f9722a3daafe3b4186f6b6457e0600080a3565b604051631e4fbdf760e01b815260006004820152602490fd5b906145c2615245565b6145ca615245565b81516001600160401b0381116107ce57600080516020615a71833981519152906145fd816145f88454610762565b6138c5565b602080601f8311600114614698575081906146309394956000926139cc5750508160011b916000199060031b1c19161790565b90555b61463b615245565b61464433614f2b565b61464c615245565b614654614f3f565b61465c615245565b61466533614a5d565b5061466f33614b00565b5061467933614b5f565b5061468333614bd0565b5061468d33614c41565b506108886000600655565b90601f198316956146d8600080516020615a718339815191526000527ff429cb5e2ec84cbb765e76b31964a56ccde03e7a6122d6cc4afb19edc55edeed90565b926000905b888210614718575050836001959697106146ff575b505050811b019055614633565b015160001960f88460031b161c191690553880806146f2565b806001859682949686015181550195019301906146dd565b90815461473c81610e1d565b9261474a6040519485610825565b818452600090815260208082208186015b848410614769575050505050565b600183819261477785610846565b81520192019301929061475b565b60ff600080516020615a11833981519152541661479e57565b60405163d93c066560e01b8152600490fd5b9192916001600160a01b038281161561481857811615614800576147f86108889490604051916001835260208301526040820190600182526001606084015260808301604052565b9290916150dd565b604051626a0d4560e21b815260006004820152602490fd5b604051632bfa23e760e11b815260006004820152602490fd5b939291906001600160a01b0380821615614818578516156148005761088894604051926001845260208401526040830193600185526060840152608083016040526150dd565b600080516020615a3183398151915260028154146148955760029055565b604051633ee5aeb560e01b8152600490fd5b9091906001600160a01b03811615614818576148e76108889390604051916001835260208301526040820190600182526001606084015260808301604052565b91614f63565b336000908152600080516020615991833981519152602052604090205460ff161561491457565b60405163e2517d3f60e01b815233600482015260006024820152604490fd5b60008181526000805160206159f18339815191526020908152604080832033845290915290205460ff16156149655750565b6044906040519063e2517d3f60e01b82523360048301526024820152fd5b6001600160a01b03811660009081527f67586683f6d64b48ae561a6b67340d13089731f2f08fd2973581b1fc3e96e39d602052604081207f458e7120010273a45c50a429c988a509adeb4407885607d9797da91c85e8d706906000805160206159f18339815191529060ff905b5416614a5657818352602090815260408084206001600160a01b038616600090815292529020805460ff1916600117905533926001600160a01b0316917f2f8788117e7eff1d82e926ec794901d17c78024a50270940304540a733656f0d9080a4600190565b5050905090565b6001600160a01b038116600090815260008051602061599183398151915260205260408120546000805160206159f18339815191529060ff16614afa57818052602090815260408083206001600160a01b038516600090815292529020805460ff1916600117905533916001600160a01b0316907f2f8788117e7eff1d82e926ec794901d17c78024a50270940304540a733656f0d8180a4600190565b50905090565b6001600160a01b03811660009081526000805160206159d1833981519152602052604081207f9f2df0fed2c77648de5860a4cc508cd0818c85b8b8a1ab4ceeef8d981c8956a6906000805160206159f18339815191529060ff906149f0565b6001600160a01b03811660009081527fc4ace3e9825e9c0e31f6bfe0307587a31e0f7e0a8fcde3632614313093ac5ea0602052604081207f1ca4917a93bbf937a078cf9cc2b3d0c4aaac3367aae1018d3d982bb6e49887f1906000805160206159f18339815191529060ff906149f0565b6001600160a01b03811660009081527f268477d1c17bf7595397186358fec802c44c92bb39292de205ad03cbfe096e02602052604081207f73e573f9566d61418a34d5de3ff49360f9c51fec37f7486551670290f6285dab906000805160206159f18339815191529060ff906149f0565b6001600160a01b03811660009081527fc3e71cdf4d6b19b51728813415f497e36084f42794ee08da6ceade2e0e3ab212602052604081207f59a1c48e5837ad7a7f3dcedcbe129bf3249ec4fbf651fd4f5e2600ead39fe2f5906000805160206159f18339815191529060ff906149f0565b60008181526000805160206159f1833981519152602081815260408084206001600160a01b0387168552909152822091929160ff906149f0565b6001600160a01b03811660009081527f67586683f6d64b48ae561a6b67340d13089731f2f08fd2973581b1fc3e96e39d602052604081207f458e7120010273a45c50a429c988a509adeb4407885607d9797da91c85e8d706906000805160206159f18339815191529060ff905b541615614a5657818352602090815260408084206001600160a01b038616600090815292529020805460ff1916905533926001600160a01b0316917ff6391f5c32d9c69d2a47ea670b442974b53935d1edc7fd64eb21e047a839171b9080a4600190565b60008181526000805160206159f1833981519152602081815260408084206001600160a01b0387168552909152822091929160ff90614d59565b9081602091031261037c575190565b9291906001600160a01b038416156148185761088893614f63565b600080516020615971833981519152546001600160a01b03163303614e4257565b60405163118cdaa760e01b8152336004820152602490fd5b906001600160a01b03821690811561480057614e95604051916001835260208301526040820190600182526001606084015260808301604052565b916000604051614ea4816107ef565b52614ead614785565b600052600460205260ff60406000205416614ecb5761088892615636565b60405162461bcd60e51b815260206004820152603260248201527f566572616c69784d617374657252656769737472793a2066726f6d2061646472604482015271195cdcc81a5cc8189b1858dadb1a5cdd195960721b6064820152608490fd5b61088890614f37615245565b612f12615245565b614f47615245565b614f4f615245565b6001600080516020615a3183398151915255565b909291614f6e614785565b6001600160a01b0382169384151593846150b2575b8151835190818103613c9257505060005b8251811015614fe45780868660019360051b6020808289010151918901015192614fc2575b50505001614f94565b614fda9161100a614fd292610d47565b91825461438e565b9055388681614fb9565b50939091929460018351146000146150765760208381015185820151604080519283529282015260009133917fc3d58168c5ae7397731d063d5bbf3d657854427343f4c083240f7aacaa2d0f629190a45b615040575b50505050565b8051600103615067579060208061505e959301519101519133615587565b3880808061503a565b615071933361538d565b61505e565b60006040517f4a39dc06d4c0dbc64b70af90fd698a233a518aa5d07e595d983b8c0526c8f7fb3391806150aa898983615611565b0390a4615035565b6001600160a01b0384166000908152600460205260409020546150d89060ff1615615274565b614f83565b919392906150e9614785565b6001600160a01b0383811680615183575b508116151580615154575b61511183878487615787565b61511d575b5050505050565b84516001036151435760208061513996015192015192336155bc565b3880808080615116565b61514f94919233615488565b615139565b61517e61517961236f6123688560018060a01b03166000526004602052604060002090565b615274565b615105565b600052600460205260ff60406000205416614ecb57386150fa565b90813b15615224576000805160206159b183398151915280546001600160a01b0319166001600160a01b0384169081179091557fbc7cd75a20ee27fd9adebab32041f755214dbc6bffa90cc0225b39da2e5c2d3b600080a280511561520957615206916155f3565b50565b50503461521257565b60405163b398979f60e01b8152600490fd5b604051634c9c8ce360e01b81526001600160a01b0383166004820152602490fd5b60ff600080516020615a518339815191525460401c161561526257565b604051631afcd79f60e31b8152600490fd5b1561527b57565b60405162461bcd60e51b815260206004820152603060248201527f566572616c69784d617374657252656769737472793a20746f2061646472657360448201526f1cc81a5cc8189b1858dadb1a5cdd195960821b6064820152608490fd5b9081602091031261037c5751610a3381610443565b9261531d610a339593611a329360018060a01b031686526000602087015260a0604087015260a08601906114da565b9084820360608601526114da565b9390610a33959361531d91611a329460018060a01b03809216885216602087015260a0604087015260a08601906114da565b3d15615388573d9061536e82610e94565b9161537c6040519384610825565b82523d6000602084013e565b606090565b9293919093843b61539f575050505050565b6020916153c2604051948593849363bc197c8160e01b98898652600486016152ee565b038160006001600160a01b0388165af160009181615457575b5061541a57826153e961535d565b805191908261541357604051632bfa23e760e11b81526001600160a01b0383166004820152602490fd5b6020915001fd5b6001600160e01b0319160361543457503880808080615116565b604051632bfa23e760e11b81526001600160a01b03919091166004820152602490fd5b61547a91925060203d602011615481575b6154728183610825565b8101906152d9565b90386153db565b503d615468565b939290949194853b61549d575b505050505050565b6154c0602093604051958694859463bc197c8160e01b998a87526004870161532b565b038160006001600160a01b0388165af160009181615502575b506154e757826153e961535d565b6001600160e01b031916036154345750388080808080615495565b61551c91925060203d602011615481576154728183610825565b90386154d9565b909260a092610a339594600180861b031683526000602084015260408301526060820152816080820152019061090e565b9192610a3395949160a094600180871b03809216855216602084015260408301526060820152816080820152019061090e565b9293919093843b615599575050505050565b6020916153c2604051948593849363f23a6e6160e01b9889865260048601615523565b939290949194853b6155d057505050505050565b6154c0602093604051958694859463f23a6e6160e01b998a875260048701615554565b600080610a3393602081519101845af461560b61535d565b9161590d565b9091615628610a33936040845260408401906114da565b9160208184039101526114da565b9291908051825190818103613c9257505060005b81518110156156e757600581901b82810160209081015191850101516001600160a01b03871661567f575b505060010161564a565b61568c8761100a84610d47565b548181106156b0578761100a60019594936156a8930393610d47565b559038615675565b6040516303dee4c560e01b81526001600160a01b038916600482015260248101919091526044810182905260648101839052608490fd5b5090600092939160018151148414615748576020908101519181015160408051938452918301526001600160a01b039092169133917fc3d58168c5ae7397731d063d5bbf3d657854427343f4c083240f7aacaa2d0f6291819081015b0390a4565b6040516001600160a01b039093169233927f4a39dc06d4c0dbc64b70af90fd698a233a518aa5d07e595d983b8c0526c8f7fb9282916157439183615611565b9392918051835190818103613c9257505060005b815181101561586857600581901b82810160209081015191860101516001600160a01b03929185908985166157f8575b60019482166157de575b5050500161579b565b6157ee9161100a614fd292610d47565b90553884816157d5565b919293905061580a8961100a84610d47565b5483811061583157918691846001969594036158298c61100a85610d47565b5594506157cb565b6040516303dee4c560e01b81526001600160a01b038b16600482015260248101919091526044810184905260648101839052608490fd5b5080519394939192916001036158ca576020908101519181015160408051938452918301526001600160a01b03928316939092169133917fc3d58168c5ae7397731d063d5bbf3d657854427343f4c083240f7aacaa2d0f629181908101615743565b6040516001600160a01b03938416949093169233927f4a39dc06d4c0dbc64b70af90fd698a233a518aa5d07e595d983b8c0526c8f7fb9282916157439183615611565b90615934575080511561592257602081519101fd5b60405163d6bda27560e01b8152600490fd5b81511580615967575b615945575090565b604051639996b31560e01b81526001600160a01b039091166004820152602490fd5b50803b1561593d56fe9016d09d72d40fdae2fd8ceac6b6234c7706214fd39c1cd1e609a0528c199300b7db2dd08fcb62d0c9e08c51941cae53c267786a0b75803fb7960902fc8ef97d360894a13ba1a3210667c828492db98dca3e2076cc3735a920a3ca505d382bbc549fe2656c81d2947b3b913f0a53b9ea86c71e049f3a1b8aa23c09a8a05cb8d402dd7bc7dec4dceedda775e58dd541e08a116c6c53815c0bd028192f7b626800cd5ed15c6e187e77e9aee88184c21f4f2182ab5827cb3b7e07fbedcd63f033009b779b17422d0df92223018b32b4d1fa46e071723d6817e2486d003becc55f00f0c57e16840df040f15088dc2f81fe391c3923bec73e23a9662efc9c229c6a0088be536d5240c274a3b1d3a1be54482fd9caa294f08c62a7cde569f49a3c4502a26469706673582212201a008624d346420cb072cef78ef8dc7324734c77de8b4c62f2904eec7e895b4864736f6c63430008160033","opcodes":"PUSH1 0xA0 DUP1 PUSH1 0x40 MSTORE CALLVALUE PUSH2 0x2B JUMPI ADDRESS PUSH1 0x80 MSTORE PUSH2 0x5AC6 SWAP1 DUP2 PUSH3 0x31 DUP3 CODECOPY PUSH1 0x80 MLOAD DUP2 DUP2 DUP2 PUSH2 0x1618 ADD MSTORE PUSH2 0x18EB ADD MSTORE RETURN JUMPDEST PUSH1 0x0 DUP1 REVERT INVALID PUSH1 0x80 PUSH1 0x40 MSTORE PUSH1 0x4 CALLDATASIZE LT ISZERO PUSH2 0x12 JUMPI PUSH1 0x0 DUP1 REVERT JUMPDEST PUSH1 0x0 CALLDATALOAD PUSH1 0xE0 SHR DUP1 PUSH3 0xFDD58E EQ PUSH2 0x361 JUMPI DUP1 PUSH4 0x1FFC9A7 EQ PUSH2 0x35C JUMPI DUP1 PUSH4 0x54C6C59 EQ PUSH2 0x357 JUMPI DUP1 PUSH4 0x6310E21 EQ PUSH2 0x352 JUMPI DUP1 PUSH4 0xE89341C EQ PUSH2 0x34D JUMPI DUP1 PUSH4 0x12480FF1 EQ PUSH2 0x348 JUMPI DUP1 PUSH4 0x18160DDD EQ PUSH2 0x343 JUMPI DUP1 PUSH4 0x1C348DD3 EQ PUSH2 0x33E JUMPI DUP1 PUSH4 0x248A9CA3 EQ PUSH2 0x339 JUMPI DUP1 PUSH4 0x2EB2C2D6 EQ PUSH2 0x334 JUMPI DUP1 PUSH4 0x2EB979B3 EQ PUSH2 0x32F JUMPI DUP1 PUSH4 0x2F2FF15D EQ PUSH2 0x32A JUMPI DUP1 PUSH4 0x36568ABE EQ PUSH2 0x325 JUMPI DUP1 PUSH4 0x3F4BA83A EQ PUSH2 0x320 JUMPI DUP1 PUSH4 0x43B6FE00 EQ PUSH2 0x2F8 JUMPI DUP1 PUSH4 0x455A4396 EQ PUSH2 0x31B JUMPI DUP1 PUSH4 0x46184DC4 EQ PUSH2 0x316 JUMPI DUP1 PUSH4 0x47E63380 EQ PUSH2 0x311 JUMPI DUP1 PUSH4 0x4E1273F4 EQ PUSH2 0x30C JUMPI DUP1 PUSH4 0x4F1EF286 EQ PUSH2 0x307 JUMPI DUP1 PUSH4 0x51640FEE EQ PUSH2 0x302 JUMPI DUP1 PUSH4 0x52D1902D EQ PUSH2 0x2FD JUMPI DUP1 PUSH4 0x53DCC366 EQ PUSH2 0x2F8 JUMPI DUP1 PUSH4 0x5439B68A EQ PUSH2 0x2F3 JUMPI DUP1 PUSH4 0x5C975ABB EQ PUSH2 0x2EE JUMPI DUP1 PUSH4 0x663B3E22 EQ PUSH2 0x2E9 JUMPI DUP1 PUSH4 0x6B953891 EQ PUSH2 0x2E4 JUMPI DUP1 PUSH4 0x6C93EA46 EQ PUSH2 0x2DF JUMPI DUP1 PUSH4 0x6E1D616E EQ PUSH2 0x2DA JUMPI DUP1 PUSH4 0x6E5A2E41 EQ PUSH2 0x2D5 JUMPI DUP1 PUSH4 0x715018A6 EQ PUSH2 0x2D0 JUMPI DUP1 PUSH4 0x77FAA44F EQ PUSH2 0x2CB JUMPI DUP1 PUSH4 0x8456CB59 EQ PUSH2 0x2C6 JUMPI DUP1 PUSH4 0x8AFBD497 EQ PUSH2 0x2C1 JUMPI DUP1 PUSH4 0x8DA5CB5B EQ PUSH2 0x2BC JUMPI DUP1 PUSH4 0x91D14854 EQ PUSH2 0x2B7 JUMPI DUP1 PUSH4 0x93B16B45 EQ PUSH2 0x2B2 JUMPI DUP1 PUSH4 0x9AA85D00 EQ PUSH2 0x2AD JUMPI DUP1 PUSH4 0xA217FDDF EQ PUSH2 0x2A8 JUMPI DUP1 PUSH4 0xA22CB465 EQ PUSH2 0x2A3 JUMPI DUP1 PUSH4 0xACDD7C7E EQ PUSH2 0x29E JUMPI DUP1 PUSH4 0xAD3CB1CC EQ PUSH2 0x299 JUMPI DUP1 PUSH4 0xBF10F396 EQ PUSH2 0x294 JUMPI DUP1 PUSH4 0xD5391393 EQ PUSH2 0x28F JUMPI DUP1 PUSH4 0xD547741F EQ PUSH2 0x28A JUMPI DUP1 PUSH4 0xD551A214 EQ PUSH2 0x285 JUMPI DUP1 PUSH4 0xD5749D42 EQ PUSH2 0x280 JUMPI DUP1 PUSH4 0xD86EDE4A EQ PUSH2 0x27B JUMPI DUP1 PUSH4 0xE985E9C5 EQ PUSH2 0x276 JUMPI DUP1 PUSH4 0xF242432A EQ PUSH2 0x271 JUMPI DUP1 PUSH4 0xF2FDE38B EQ PUSH2 0x26C JUMPI DUP1 PUSH4 0xF62D1888 EQ PUSH2 0x267 JUMPI PUSH4 0xFFF5465B EQ PUSH2 0x262 JUMPI PUSH1 0x0 DUP1 REVERT JUMPDEST PUSH2 0x3140 JUMP JUMPDEST PUSH2 0x2F17 JUMP JUMPDEST PUSH2 0x2EEE JUMP JUMPDEST PUSH2 0x2E46 JUMP JUMPDEST PUSH2 0x2E15 JUMP JUMPDEST PUSH2 0x2C14 JUMP JUMPDEST PUSH2 0x2BD5 JUMP JUMPDEST PUSH2 0x2B0E JUMP JUMPDEST PUSH2 0x2AC2 JUMP JUMPDEST PUSH2 0x2A87 JUMP JUMPDEST PUSH2 0x2A4C JUMP JUMPDEST PUSH2 0x2A06 JUMP JUMPDEST PUSH2 0x29B8 JUMP JUMPDEST PUSH2 0x2940 JUMP JUMPDEST PUSH2 0x2924 JUMP JUMPDEST PUSH2 0x27B6 JUMP JUMPDEST PUSH2 0x26A2 JUMP JUMPDEST PUSH2 0x2643 JUMP JUMPDEST PUSH2 0x260D JUMP JUMPDEST PUSH2 0x257D JUMP JUMPDEST PUSH2 0x2441 JUMP JUMPDEST PUSH2 0x226E JUMP JUMPDEST PUSH2 0x2203 JUMP JUMPDEST PUSH2 0x1ED9 JUMP JUMPDEST PUSH2 0x1E9E JUMP JUMPDEST PUSH2 0x1C6D JUMP JUMPDEST PUSH2 0x1BE1 JUMP JUMPDEST PUSH2 0x1AA4 JUMP JUMPDEST PUSH2 0x19A2 JUMP JUMPDEST PUSH2 0x1947 JUMP JUMPDEST PUSH2 0x12AB JUMP JUMPDEST PUSH2 0x18D8 JUMP JUMPDEST PUSH2 0x1848 JUMP JUMPDEST PUSH2 0x15D9 JUMP JUMPDEST PUSH2 0x151F JUMP JUMPDEST PUSH2 0x149F JUMP JUMPDEST PUSH2 0x1464 JUMP JUMPDEST PUSH2 0x12F2 JUMP JUMPDEST PUSH2 0x118C JUMP JUMPDEST PUSH2 0x1145 JUMP JUMPDEST PUSH2 0x10F9 JUMP JUMPDEST PUSH2 0x1029 JUMP JUMPDEST PUSH2 0xEF6 JUMP JUMPDEST PUSH2 0xDA7 JUMP JUMPDEST PUSH2 0xD76 JUMP JUMPDEST PUSH2 0xD29 JUMP JUMPDEST PUSH2 0xBF8 JUMP JUMPDEST PUSH2 0xA36 JUMP JUMPDEST PUSH2 0x998 JUMP JUMPDEST PUSH2 0x4DD JUMP JUMPDEST PUSH2 0x455 JUMP JUMPDEST PUSH2 0x3D7 JUMP JUMPDEST PUSH1 0x4 CALLDATALOAD SWAP1 PUSH1 0x1 PUSH1 0x1 PUSH1 0xA0 SHL SUB DUP3 AND DUP3 SUB PUSH2 0x37C JUMPI JUMP JUMPDEST PUSH1 0x0 DUP1 REVERT JUMPDEST PUSH1 0x24 CALLDATALOAD SWAP1 PUSH1 0x1 PUSH1 0x1 PUSH1 0xA0 SHL SUB DUP3 AND DUP3 SUB PUSH2 0x37C JUMPI JUMP JUMPDEST PUSH1 0xA4 CALLDATALOAD SWAP1 PUSH1 0x1 PUSH1 0x1 PUSH1 0xA0 SHL SUB DUP3 AND DUP3 SUB PUSH2 0x37C JUMPI JUMP JUMPDEST PUSH1 0x44 CALLDATALOAD SWAP1 PUSH1 0x1 PUSH1 0x1 PUSH1 0xA0 SHL SUB DUP3 AND DUP3 SUB PUSH2 0x37C JUMPI JUMP JUMPDEST CALLDATALOAD SWAP1 PUSH1 0x1 PUSH1 0x1 PUSH1 0xA0 SHL SUB DUP3 AND DUP3 SUB PUSH2 0x37C JUMPI JUMP JUMPDEST CALLVALUE PUSH2 0x37C JUMPI PUSH1 0x40 CALLDATASIZE PUSH1 0x3 NOT ADD SLT PUSH2 0x37C JUMPI PUSH1 0x20 PUSH2 0x43A PUSH2 0x3F5 PUSH2 0x366 JUMP JUMPDEST PUSH1 0x24 CALLDATALOAD PUSH1 0x0 MSTORE PUSH32 0x88BE536D5240C274A3B1D3A1BE54482FD9CAA294F08C62A7CDE569F49A3C4500 DUP4 MSTORE PUSH1 0x40 PUSH1 0x0 KECCAK256 SWAP1 PUSH1 0x1 DUP1 PUSH1 0xA0 SHL SUB AND PUSH1 0x0 MSTORE PUSH1 0x20 MSTORE PUSH1 0x40 PUSH1 0x0 KECCAK256 SWAP1 JUMP JUMPDEST SLOAD PUSH1 0x40 MLOAD SWAP1 DUP2 MSTORE RETURN JUMPDEST PUSH1 0x1 PUSH1 0x1 PUSH1 0xE0 SHL SUB NOT DUP2 AND SUB PUSH2 0x37C JUMPI JUMP JUMPDEST CALLVALUE PUSH2 0x37C JUMPI PUSH1 0x20 CALLDATASIZE PUSH1 0x3 NOT ADD SLT PUSH2 0x37C JUMPI PUSH1 0x20 PUSH1 0x4 CALLDATALOAD PUSH2 0x474 DUP2 PUSH2 0x443 JUMP JUMPDEST PUSH4 0xFFFFFFFF PUSH1 0xE0 SHL AND PUSH4 0x7965DB0B PUSH1 0xE0 SHL DUP2 EQ SWAP1 DUP2 ISZERO PUSH2 0x49A JUMPI JUMPDEST POP PUSH1 0x40 MLOAD SWAP1 ISZERO ISZERO DUP2 MSTORE RETURN JUMPDEST PUSH4 0x6CDB3D13 PUSH1 0xE1 SHL DUP2 EQ SWAP2 POP DUP2 ISZERO PUSH2 0x4CC JUMPI JUMPDEST DUP2 ISZERO PUSH2 0x4BB JUMPI JUMPDEST POP CODESIZE PUSH2 0x48F JUMP JUMPDEST PUSH4 0x1FFC9A7 PUSH1 0xE0 SHL EQ SWAP1 POP CODESIZE PUSH2 0x4B4 JUMP JUMPDEST PUSH4 0x3A24D07 PUSH1 0xE2 SHL DUP2 EQ SWAP2 POP PUSH2 0x4AD JUMP JUMPDEST CALLVALUE PUSH2 0x37C JUMPI PUSH1 0x40 CALLDATASIZE PUSH1 0x3 NOT ADD SLT PUSH2 0x37C JUMPI PUSH1 0x4 CALLDATALOAD PUSH2 0x4F9 PUSH2 0x381 JUMP JUMPDEST CALLER PUSH1 0x0 SWAP1 DUP2 MSTORE PUSH32 0xC4ACE3E9825E9C0E31F6BFE0307587A31E0F7E0A8FCDE3632614313093AC5EA0 PUSH1 0x20 MSTORE PUSH1 0x40 DUP2 KECCAK256 SLOAD SWAP1 SWAP3 SWAP2 SWAP1 PUSH1 0xFF AND DUP1 ISZERO PUSH2 0x708 JUMPI JUMPDEST PUSH2 0x53F SWAP1 PUSH2 0x324B JUMP JUMPDEST PUSH2 0x547 PUSH2 0x4785 JUMP JUMPDEST DUP2 ISZERO ISZERO DUP1 PUSH2 0x6FC JUMPI JUMPDEST PUSH2 0x559 SWAP1 PUSH2 0x32CF JUMP JUMPDEST DUP2 DUP4 MSTORE PUSH1 0x5 PUSH1 0x20 MSTORE PUSH2 0x572 PUSH1 0xFF PUSH1 0x40 DUP6 KECCAK256 SLOAD AND ISZERO PUSH2 0x332B JUMP JUMPDEST PUSH1 0x1 PUSH1 0x1 PUSH1 0xA0 SHL SUB DUP2 DUP2 AND DUP1 DUP6 MSTORE PUSH1 0x4 PUSH1 0x20 MSTORE PUSH1 0x40 DUP6 KECCAK256 SLOAD SWAP1 SWAP4 SWAP2 SWAP1 PUSH2 0x59B SWAP1 PUSH1 0xFF AND ISZERO PUSH2 0x338C JUMP JUMPDEST DUP4 ISZERO PUSH2 0x691 JUMPI PUSH2 0x66A SWAP1 PUSH2 0x5D1 PUSH2 0x5CC PUSH1 0xA PUSH2 0x5C1 DUP7 PUSH1 0x0 MSTORE PUSH1 0x0 PUSH1 0x20 MSTORE PUSH1 0x40 PUSH1 0x0 KECCAK256 SWAP1 JUMP JUMPDEST ADD SLOAD PUSH1 0x8 SHR PUSH1 0xFF AND SWAP1 JUMP JUMPDEST PUSH2 0x33EE JUMP JUMPDEST DUP3 PUSH2 0x5F9 PUSH1 0x6 PUSH2 0x5EB DUP4 PUSH1 0x0 MSTORE PUSH1 0x0 PUSH1 0x20 MSTORE PUSH1 0x40 PUSH1 0x0 KECCAK256 SWAP1 JUMP JUMPDEST ADD SLOAD PUSH1 0x1 PUSH1 0x1 PUSH1 0xA0 SHL SUB AND SWAP1 JUMP JUMPDEST SWAP2 DUP3 AND SWAP5 PUSH2 0x609 DUP8 DUP8 EQ ISZERO PUSH2 0x3459 JUMP JUMPDEST PUSH2 0x643 DUP2 PUSH1 0x6 PUSH2 0x623 DUP6 PUSH1 0x0 MSTORE PUSH1 0x0 PUSH1 0x20 MSTORE PUSH1 0x40 PUSH1 0x0 KECCAK256 SWAP1 JUMP JUMPDEST ADD DUP1 SLOAD PUSH1 0x1 PUSH1 0x1 PUSH1 0xA0 SHL SUB NOT AND PUSH1 0x1 PUSH1 0x1 PUSH1 0xA0 SHL SUB SWAP1 SWAP3 AND SWAP2 SWAP1 SWAP2 OR SWAP1 SSTORE JUMP JUMPDEST TIMESTAMP PUSH1 0x9 PUSH2 0x65A DUP5 PUSH1 0x0 MSTORE PUSH1 0x0 PUSH1 0x20 MSTORE PUSH1 0x40 PUSH1 0x0 KECCAK256 SWAP1 JUMP JUMPDEST ADD SSTORE PUSH2 0x664 PUSH2 0x29F3 JUMP JUMPDEST SWAP3 PUSH2 0x47B0 JUMP JUMPDEST PUSH32 0x6080632022690532A64370168575EB712F301714CAE97E67F927A2F9D912C061 DUP5 DUP1 LOG4 DUP1 RETURN JUMPDEST PUSH1 0x40 MLOAD PUSH3 0x461BCD PUSH1 0xE5 SHL DUP2 MSTORE PUSH1 0x20 PUSH1 0x4 DUP3 ADD MSTORE PUSH1 0x37 PUSH1 0x24 DUP3 ADD MSTORE PUSH32 0x566572616C69784D617374657252656769737472793A206E6577206F776E6572 PUSH1 0x44 DUP3 ADD MSTORE PUSH32 0x2063616E6E6F74206265207A65726F2061646472657373000000000000000000 PUSH1 0x64 DUP3 ADD MSTORE PUSH1 0x84 SWAP1 REVERT JUMPDEST POP PUSH1 0x6 SLOAD DUP3 GT ISZERO PUSH2 0x550 JUMP JUMPDEST POP PUSH1 0x0 DUP1 MLOAD PUSH1 0x20 PUSH2 0x5971 DUP4 CODECOPY DUP2 MLOAD SWAP2 MSTORE SLOAD PUSH1 0x1 PUSH1 0x1 PUSH1 0xA0 SHL SUB AND CALLER EQ PUSH2 0x536 JUMP JUMPDEST PUSH1 0x1 PUSH1 0x1 PUSH1 0xA0 SHL SUB AND PUSH1 0x0 SWAP1 DUP2 MSTORE PUSH32 0x88BE536D5240C274A3B1D3A1BE54482FD9CAA294F08C62A7CDE569F49A3C4501 PUSH1 0x20 MSTORE PUSH1 0x40 SWAP1 KECCAK256 SWAP1 JUMP JUMPDEST SWAP1 PUSH1 0x1 DUP3 DUP2 SHR SWAP3 AND DUP1 ISZERO PUSH2 0x792 JUMPI JUMPDEST PUSH1 0x20 DUP4 LT EQ PUSH2 0x77C JUMPI JUMP JUMPDEST PUSH4 0x4E487B71 PUSH1 0xE0 SHL PUSH1 0x0 MSTORE PUSH1 0x22 PUSH1 0x4 MSTORE PUSH1 0x24 PUSH1 0x0 REVERT JUMPDEST SWAP2 PUSH1 0x7F AND SWAP2 PUSH2 0x771 JUMP JUMPDEST PUSH4 0x4E487B71 PUSH1 0xE0 SHL PUSH1 0x0 MSTORE PUSH1 0x41 PUSH1 0x4 MSTORE PUSH1 0x24 PUSH1 0x0 REVERT JUMPDEST PUSH2 0x1C0 DUP2 ADD SWAP1 DUP2 LT PUSH1 0x1 PUSH1 0x1 PUSH1 0x40 SHL SUB DUP3 GT OR PUSH2 0x7CE JUMPI PUSH1 0x40 MSTORE JUMP JUMPDEST PUSH2 0x79C JUMP JUMPDEST PUSH2 0x120 DUP2 ADD SWAP1 DUP2 LT PUSH1 0x1 PUSH1 0x1 PUSH1 0x40 SHL SUB DUP3 GT OR PUSH2 0x7CE JUMPI PUSH1 0x40 MSTORE JUMP JUMPDEST PUSH1 0x20 DUP2 ADD SWAP1 DUP2 LT PUSH1 0x1 PUSH1 0x1 PUSH1 0x40 SHL SUB DUP3 GT OR PUSH2 0x7CE JUMPI PUSH1 0x40 MSTORE JUMP JUMPDEST PUSH1 0x40 DUP2 ADD SWAP1 DUP2 LT PUSH1 0x1 PUSH1 0x1 PUSH1 0x40 SHL SUB DUP3 GT OR PUSH2 0x7CE JUMPI PUSH1 0x40 MSTORE JUMP JUMPDEST SWAP1 PUSH1 0x1F DUP1 NOT SWAP2 ADD AND DUP2 ADD SWAP1 DUP2 LT PUSH1 0x1 PUSH1 0x1 PUSH1 0x40 SHL SUB DUP3 GT OR PUSH2 0x7CE JUMPI PUSH1 0x40 MSTORE JUMP JUMPDEST SWAP1 PUSH1 0x40 MLOAD SWAP2 DUP3 PUSH1 0x0 DUP3 SLOAD PUSH2 0x859 DUP2 PUSH2 0x762 JUMP JUMPDEST SWAP1 DUP2 DUP5 MSTORE PUSH1 0x20 SWAP5 PUSH1 0x1 SWAP2 PUSH1 0x1 DUP2 AND SWAP1 DUP2 PUSH1 0x0 EQ PUSH2 0x8C9 JUMPI POP PUSH1 0x1 EQ PUSH2 0x88A JUMPI JUMPDEST POP POP POP PUSH2 0x888 SWAP3 POP SUB DUP4 PUSH2 0x825 JUMP JUMPDEST JUMP JUMPDEST PUSH1 0x0 SWAP1 DUP2 MSTORE DUP6 DUP2 KECCAK256 SWAP6 SWAP4 POP SWAP2 SWAP1 JUMPDEST DUP2 DUP4 LT PUSH2 0x8B1 JUMPI POP POP PUSH2 0x888 SWAP4 POP DUP3 ADD ADD CODESIZE DUP1 DUP1 PUSH2 0x879 JUMP JUMPDEST DUP6 SLOAD DUP9 DUP5 ADD DUP6 ADD MSTORE SWAP5 DUP6 ADD SWAP5 DUP8 SWAP5 POP SWAP2 DUP4 ADD SWAP2 PUSH2 0x898 JUMP JUMPDEST SWAP3 POP POP POP PUSH2 0x888 SWAP5 SWAP3 POP PUSH1 0xFF NOT AND DUP3 DUP5 ADD MSTORE ISZERO ISZERO PUSH1 0x5 SHL DUP3 ADD ADD CODESIZE DUP1 DUP1 PUSH2 0x879 JUMP JUMPDEST PUSH1 0x0 JUMPDEST DUP4 DUP2 LT PUSH2 0x8FE JUMPI POP POP PUSH1 0x0 SWAP2 ADD MSTORE JUMP JUMPDEST DUP2 DUP2 ADD MLOAD DUP4 DUP3 ADD MSTORE PUSH1 0x20 ADD PUSH2 0x8EE JUMP JUMPDEST SWAP1 PUSH1 0x20 SWAP2 PUSH2 0x927 DUP2 MLOAD DUP1 SWAP3 DUP2 DUP6 MSTORE DUP6 DUP1 DUP7 ADD SWAP2 ADD PUSH2 0x8EB JUMP JUMPDEST PUSH1 0x1F ADD PUSH1 0x1F NOT AND ADD ADD SWAP1 JUMP JUMPDEST SWAP5 SWAP9 SWAP8 SWAP7 SWAP4 SWAP1 PUSH1 0xE0 SWAP7 SWAP4 PUSH2 0x964 PUSH2 0x980 SWAP5 PUSH2 0x972 SWAP4 PUSH2 0x100 SWAP1 PUSH1 0x1 DUP1 PUSH1 0xA0 SHL SUB AND DUP11 MSTORE DUP1 PUSH1 0x20 DUP12 ADD MSTORE DUP10 ADD SWAP1 PUSH2 0x90E JUMP JUMPDEST SWAP1 DUP8 DUP3 SUB PUSH1 0x40 DUP10 ADD MSTORE PUSH2 0x90E JUMP JUMPDEST SWAP1 DUP6 DUP3 SUB PUSH1 0x60 DUP8 ADD MSTORE PUSH2 0x90E JUMP JUMPDEST SWAP7 ISZERO ISZERO PUSH1 0x80 DUP5 ADD MSTORE ISZERO ISZERO PUSH1 0xA0 DUP4 ADD MSTORE PUSH1 0xC0 DUP3 ADD MSTORE ADD MSTORE JUMP JUMPDEST CALLVALUE PUSH2 0x37C JUMPI PUSH1 0x20 CALLDATASIZE PUSH1 0x3 NOT ADD SLT PUSH2 0x37C JUMPI PUSH1 0x1 PUSH1 0x1 PUSH1 0xA0 SHL SUB DUP1 PUSH2 0x9BA PUSH2 0x366 JUMP JUMPDEST AND PUSH1 0x0 MSTORE PUSH1 0x2 PUSH1 0x20 MSTORE PUSH1 0x40 PUSH1 0x0 KECCAK256 SWAP1 DUP2 SLOAD AND PUSH2 0xA1E PUSH2 0x9DB PUSH1 0x1 DUP5 ADD PUSH2 0x846 JUMP JUMPDEST SWAP2 PUSH2 0x9E8 PUSH1 0x2 DUP6 ADD PUSH2 0x846 JUMP JUMPDEST SWAP4 PUSH2 0x9F5 PUSH1 0x3 DUP3 ADD PUSH2 0x846 JUMP JUMPDEST SWAP2 PUSH1 0x4 DUP3 ADD SLOAD SWAP1 PUSH1 0x6 PUSH1 0x5 DUP5 ADD SLOAD SWAP4 ADD SLOAD SWAP4 PUSH1 0x40 MLOAD SWAP8 DUP9 SWAP8 PUSH1 0xFF DUP1 DUP7 PUSH1 0x8 SHR AND SWAP6 AND SWAP4 DUP10 PUSH2 0x933 JUMP JUMPDEST SUB SWAP1 RETURN JUMPDEST SWAP1 PUSH1 0x20 PUSH2 0xA33 SWAP3 DUP2 DUP2 MSTORE ADD SWAP1 PUSH2 0x90E JUMP JUMPDEST SWAP1 JUMP JUMPDEST CALLVALUE PUSH2 0x37C JUMPI PUSH1 0x20 DUP1 PUSH1 0x3 NOT CALLDATASIZE ADD SLT PUSH2 0x37C JUMPI PUSH1 0x40 MLOAD PUSH1 0x0 SWAP2 PUSH1 0x0 DUP1 MLOAD PUSH1 0x20 PUSH2 0x5A71 DUP4 CODECOPY DUP2 MLOAD SWAP2 MSTORE DUP1 SLOAD PUSH2 0xA68 DUP2 PUSH2 0x762 JUMP JUMPDEST DUP1 DUP6 MSTORE SWAP2 PUSH1 0x1 SWAP2 DUP1 DUP4 AND SWAP1 DUP2 ISZERO PUSH2 0xAF8 JUMPI POP PUSH1 0x1 EQ PUSH2 0xA9E JUMPI JUMPDEST PUSH2 0xA1E DUP6 PUSH2 0xA92 DUP2 DUP10 SUB DUP3 PUSH2 0x825 JUMP JUMPDEST PUSH1 0x40 MLOAD SWAP2 DUP3 SWAP2 DUP3 PUSH2 0xA22 JUMP JUMPDEST PUSH1 0x0 SWAP1 DUP2 MSTORE SWAP3 SWAP5 POP PUSH32 0xF429CB5E2EC84CBB765E76B31964A56CCDE03E7A6122D6CC4AFB19EDC55EDEED JUMPDEST DUP3 DUP5 LT PUSH2 0xAE5 JUMPI POP POP POP DUP2 PUSH2 0xA1E SWAP4 PUSH2 0xA92 SWAP3 DUP3 ADD ADD SWAP4 CODESIZE PUSH2 0xA82 JUMP JUMPDEST DUP1 SLOAD DUP6 DUP6 ADD DUP8 ADD MSTORE SWAP3 DUP6 ADD SWAP3 DUP2 ADD PUSH2 0xAC8 JUMP JUMPDEST PUSH1 0xFF NOT AND DUP7 DUP7 ADD MSTORE POP POP POP ISZERO ISZERO PUSH1 0x5 SHL DUP3 ADD ADD SWAP2 POP PUSH2 0xA92 DUP2 PUSH2 0xA1E CODESIZE PUSH2 0xA82 JUMP JUMPDEST PUSH1 0x20 DUP1 DUP3 ADD SWAP1 DUP1 DUP4 MSTORE DUP4 MLOAD DUP1 SWAP3 MSTORE PUSH1 0x40 SWAP3 PUSH1 0x40 DUP2 ADD DUP3 PUSH1 0x40 DUP6 PUSH1 0x5 SHL DUP5 ADD ADD SWAP7 ADD SWAP5 PUSH1 0x0 SWAP3 JUMPDEST DUP6 DUP5 LT PUSH2 0xB51 JUMPI POP POP POP POP POP POP POP SWAP1 JUMP JUMPDEST SWAP1 SWAP2 SWAP3 SWAP4 SWAP5 SWAP6 SWAP7 DUP6 DUP1 PUSH2 0xBE7 PUSH1 0x1 SWAP4 PUSH1 0x3F NOT DUP7 DUP3 SUB ADD DUP9 MSTORE DUP12 MLOAD PUSH2 0xBC8 PUSH2 0xBAB PUSH2 0x100 DUP4 MLOAD DUP6 MSTORE PUSH2 0xB8F DUP8 DUP6 ADD MLOAD DUP9 DUP8 ADD SWAP1 PUSH1 0x1 DUP1 PUSH1 0xA0 SHL SUB AND SWAP1 MSTORE JUMP JUMPDEST DUP11 DUP5 ADD MLOAD DUP12 DUP7 ADD MSTORE PUSH1 0x60 SWAP1 DUP1 DUP3 DUP7 ADD MLOAD SWAP3 DUP8 ADD MSTORE DUP6 ADD SWAP1 PUSH2 0x90E JUMP JUMPDEST PUSH1 0x80 DUP1 DUP5 ADD MLOAD SWAP1 DUP6 ADD MSTORE PUSH1 0xA0 DUP1 DUP5 ADD MLOAD SWAP1 DUP6 DUP4 SUB SWAP1 DUP7 ADD MSTORE PUSH2 0x90E JUMP JUMPDEST PUSH1 0xC0 DUP3 DUP2 ADD MLOAD ISZERO ISZERO SWAP1 DUP5 ADD MSTORE SWAP2 PUSH1 0xE0 DUP1 SWAP3 ADD MLOAD SWAP2 DUP2 DUP5 SUB SWAP2 ADD MSTORE PUSH2 0x90E JUMP JUMPDEST SWAP10 ADD SWAP5 ADD SWAP5 ADD SWAP3 SWAP6 SWAP5 SWAP4 SWAP2 SWAP1 PUSH2 0xB40 JUMP JUMPDEST CALLVALUE PUSH2 0x37C JUMPI PUSH1 0x20 DUP1 PUSH1 0x3 NOT CALLDATASIZE ADD SLT PUSH2 0x37C JUMPI PUSH1 0x4 DUP1 CALLDATALOAD SWAP1 DUP2 ISZERO ISZERO DUP1 PUSH2 0xD1D JUMPI JUMPDEST PUSH2 0xC21 SWAP1 PUSH2 0x32CF JUMP JUMPDEST PUSH1 0x0 SWAP2 DUP1 DUP4 MSTORE PUSH1 0x5 SWAP4 PUSH1 0x5 DUP2 MSTORE PUSH1 0x40 SWAP2 PUSH2 0xC42 PUSH1 0xFF PUSH1 0x40 DUP8 KECCAK256 SLOAD AND ISZERO PUSH2 0x332B JUMP JUMPDEST DUP5 MSTORE PUSH1 0x3 SWAP4 PUSH1 0x3 DUP3 MSTORE PUSH1 0x40 DUP2 KECCAK256 SWAP3 DUP4 SLOAD SWAP5 PUSH2 0xC5C DUP7 PUSH2 0xE1D JUMP JUMPDEST SWAP7 PUSH2 0xC6A PUSH1 0x40 MLOAD SWAP9 DUP10 PUSH2 0x825 JUMP JUMPDEST DUP7 DUP9 MSTORE DUP5 DUP9 ADD SWAP6 DUP5 MSTORE DUP5 DUP5 KECCAK256 SWAP4 SWAP6 JUMPDEST DUP8 DUP8 LT PUSH2 0xC8E JUMPI PUSH1 0x40 MLOAD DUP1 PUSH2 0xA1E DUP12 DUP3 PUSH2 0xB1A JUMP JUMPDEST PUSH1 0x8 DUP7 PUSH1 0x1 SWAP3 DUP13 PUSH2 0xCDF PUSH2 0xCA0 PUSH2 0xDE3 JUMP JUMPDEST DUP11 SLOAD DUP2 MSTORE DUP7 DUP12 ADD SLOAD PUSH1 0x1 PUSH1 0x1 PUSH1 0xA0 SHL SUB AND DUP6 DUP3 ADD MSTORE SWAP2 PUSH1 0x2 DUP12 ADD SLOAD DUP11 DUP5 ADD MSTORE PUSH2 0xCCA DUP9 DUP13 ADD PUSH2 0x846 JUMP JUMPDEST PUSH1 0x60 DUP5 ADD MSTORE DUP9 DUP12 ADD SLOAD PUSH1 0x80 DUP5 ADD MSTORE DUP11 ADD PUSH2 0x846 JUMP JUMPDEST PUSH1 0xA0 DUP3 ADD MSTORE PUSH2 0xCFE PUSH2 0xCF5 PUSH1 0x6 DUP12 ADD SLOAD PUSH1 0xFF AND SWAP1 JUMP JUMPDEST ISZERO ISZERO PUSH1 0xC0 DUP4 ADD MSTORE JUMP JUMPDEST PUSH2 0xD0A PUSH1 0x7 DUP11 ADD PUSH2 0x846 JUMP JUMPDEST PUSH1 0xE0 DUP3 ADD MSTORE DUP2 MSTORE ADD SWAP6 ADD SWAP7 ADD SWAP6 SWAP4 PUSH2 0xC79 JUMP JUMPDEST POP PUSH1 0x6 SLOAD DUP3 GT ISZERO PUSH2 0xC18 JUMP JUMPDEST CALLVALUE PUSH2 0x37C JUMPI PUSH1 0x0 CALLDATASIZE PUSH1 0x3 NOT ADD SLT PUSH2 0x37C JUMPI PUSH1 0x20 PUSH1 0x6 SLOAD PUSH1 0x40 MLOAD SWAP1 DUP2 MSTORE RETURN JUMPDEST PUSH1 0x0 MSTORE PUSH32 0x88BE536D5240C274A3B1D3A1BE54482FD9CAA294F08C62A7CDE569F49A3C4500 PUSH1 0x20 MSTORE PUSH1 0x40 PUSH1 0x0 KECCAK256 SWAP1 JUMP JUMPDEST CALLVALUE PUSH2 0x37C JUMPI PUSH1 0x20 CALLDATASIZE PUSH1 0x3 NOT ADD SLT PUSH2 0x37C JUMPI PUSH1 0x4 CALLDATALOAD PUSH1 0x0 MSTORE PUSH1 0x5 PUSH1 0x20 MSTORE PUSH1 0x20 PUSH1 0xFF PUSH1 0x40 PUSH1 0x0 KECCAK256 SLOAD AND PUSH1 0x40 MLOAD SWAP1 ISZERO ISZERO DUP2 MSTORE RETURN JUMPDEST CALLVALUE PUSH2 0x37C JUMPI PUSH1 0x20 CALLDATASIZE PUSH1 0x3 NOT ADD SLT PUSH2 0x37C JUMPI PUSH1 0x4 CALLDATALOAD PUSH1 0x0 MSTORE PUSH1 0x0 DUP1 MLOAD PUSH1 0x20 PUSH2 0x59F1 DUP4 CODECOPY DUP2 MLOAD SWAP2 MSTORE PUSH1 0x20 MSTORE PUSH1 0x20 PUSH1 0x1 PUSH1 0x40 PUSH1 0x0 KECCAK256 ADD SLOAD PUSH1 0x40 MLOAD SWAP1 DUP2 MSTORE RETURN JUMPDEST PUSH1 0x40 MLOAD SWAP1 PUSH2 0x100 DUP3 ADD DUP3 DUP2 LT PUSH1 0x1 PUSH1 0x1 PUSH1 0x40 SHL SUB DUP3 GT OR PUSH2 0x7CE JUMPI PUSH1 0x40 MSTORE JUMP JUMPDEST PUSH1 0x40 MLOAD SWAP1 PUSH2 0x888 DUP3 PUSH2 0x7B2 JUMP JUMPDEST PUSH1 0x40 MLOAD SWAP1 PUSH2 0x888 DUP3 PUSH2 0x7D3 JUMP JUMPDEST PUSH1 0x1 PUSH1 0x1 PUSH1 0x40 SHL SUB DUP2 GT PUSH2 0x7CE JUMPI PUSH1 0x5 SHL PUSH1 0x20 ADD SWAP1 JUMP JUMPDEST SWAP1 DUP1 PUSH1 0x1F DUP4 ADD SLT ISZERO PUSH2 0x37C JUMPI PUSH1 0x20 SWAP1 DUP3 CALLDATALOAD PUSH2 0xE4E DUP2 PUSH2 0xE1D JUMP JUMPDEST SWAP4 PUSH2 0xE5C PUSH1 0x40 MLOAD SWAP6 DUP7 PUSH2 0x825 JUMP JUMPDEST DUP2 DUP6 MSTORE PUSH1 0x20 DUP1 DUP7 ADD SWAP3 PUSH1 0x5 SHL DUP3 ADD ADD SWAP3 DUP4 GT PUSH2 0x37C JUMPI PUSH1 0x20 ADD SWAP1 JUMPDEST DUP3 DUP3 LT PUSH2 0xE85 JUMPI POP POP POP POP SWAP1 JUMP JUMPDEST DUP2 CALLDATALOAD DUP2 MSTORE SWAP1 DUP4 ADD SWAP1 DUP4 ADD PUSH2 0xE77 JUMP JUMPDEST PUSH1 0x1 PUSH1 0x1 PUSH1 0x40 SHL SUB DUP2 GT PUSH2 0x7CE JUMPI PUSH1 0x1F ADD PUSH1 0x1F NOT AND PUSH1 0x20 ADD SWAP1 JUMP JUMPDEST DUP2 PUSH1 0x1F DUP3 ADD SLT ISZERO PUSH2 0x37C JUMPI DUP1 CALLDATALOAD SWAP1 PUSH2 0xEC6 DUP3 PUSH2 0xE94 JUMP JUMPDEST SWAP3 PUSH2 0xED4 PUSH1 0x40 MLOAD SWAP5 DUP6 PUSH2 0x825 JUMP JUMPDEST DUP3 DUP5 MSTORE PUSH1 0x20 DUP4 DUP4 ADD ADD GT PUSH2 0x37C JUMPI DUP2 PUSH1 0x0 SWAP3 PUSH1 0x20 DUP1 SWAP4 ADD DUP4 DUP7 ADD CALLDATACOPY DUP4 ADD ADD MSTORE SWAP1 JUMP JUMPDEST CALLVALUE PUSH2 0x37C JUMPI PUSH1 0xA0 CALLDATASIZE PUSH1 0x3 NOT ADD SLT PUSH2 0x37C JUMPI PUSH2 0xF0F PUSH2 0x366 JUMP JUMPDEST PUSH2 0xF17 PUSH2 0x381 JUMP JUMPDEST SWAP1 PUSH1 0x44 CALLDATALOAD SWAP2 PUSH1 0x1 PUSH1 0x1 PUSH1 0x40 SHL SUB SWAP1 DUP2 DUP5 GT PUSH2 0x37C JUMPI PUSH2 0xF3B PUSH1 0x4 SWAP5 CALLDATASIZE SWAP1 DUP7 ADD PUSH2 0xE34 JUMP JUMPDEST SWAP1 PUSH1 0x64 CALLDATALOAD DUP4 DUP2 GT PUSH2 0x37C JUMPI PUSH2 0xF53 SWAP1 CALLDATASIZE SWAP1 DUP8 ADD PUSH2 0xE34 JUMP JUMPDEST SWAP3 PUSH1 0x84 CALLDATALOAD SWAP1 DUP2 GT PUSH2 0x37C JUMPI PUSH2 0xF6B SWAP1 CALLDATASIZE SWAP1 DUP8 ADD PUSH2 0xEAF JUMP JUMPDEST SWAP4 PUSH1 0x1 PUSH1 0x1 PUSH1 0xA0 SHL SUB DUP1 DUP3 AND SWAP1 CALLER DUP3 EQ ISZERO DUP1 PUSH2 0xFFA JUMPI JUMPDEST PUSH2 0xFCD JUMPI DUP4 AND ISZERO PUSH2 0xFB5 JUMPI ISZERO PUSH2 0xF9E JUMPI PUSH2 0xF9C SWAP6 POP PUSH2 0x50DD JUMP JUMPDEST STOP JUMPDEST PUSH1 0x40 MLOAD PUSH3 0x6A0D45 PUSH1 0xE2 SHL DUP2 MSTORE PUSH1 0x0 DUP2 DUP9 ADD MSTORE PUSH1 0x24 SWAP1 REVERT JUMPDEST PUSH1 0x40 MLOAD PUSH4 0x2BFA23E7 PUSH1 0xE1 SHL DUP2 MSTORE PUSH1 0x0 DUP2 DUP10 ADD MSTORE PUSH1 0x24 SWAP1 REVERT JUMPDEST PUSH1 0x40 DUP1 MLOAD PUSH4 0x711BEC91 PUSH1 0xE1 SHL DUP2 MSTORE CALLER DUP2 DUP12 ADD SWAP1 DUP2 MSTORE PUSH1 0x1 PUSH1 0x1 PUSH1 0xA0 SHL SUB DUP7 AND PUSH1 0x20 DUP3 ADD MSTORE SWAP1 SWAP2 DUP3 SWAP2 ADD SUB SWAP1 REVERT JUMPDEST POP PUSH1 0xFF PUSH2 0x1021 CALLER PUSH2 0x100A DUP7 PUSH2 0x729 JUMP JUMPDEST SWAP1 PUSH1 0x1 DUP1 PUSH1 0xA0 SHL SUB AND PUSH1 0x0 MSTORE PUSH1 0x20 MSTORE PUSH1 0x40 PUSH1 0x0 KECCAK256 SWAP1 JUMP JUMPDEST SLOAD AND ISZERO PUSH2 0xF82 JUMP JUMPDEST CALLVALUE PUSH2 0x37C JUMPI PUSH2 0x100 CALLDATASIZE PUSH1 0x3 NOT ADD SLT PUSH2 0x37C JUMPI PUSH1 0x1 PUSH1 0x1 PUSH1 0x40 SHL SUB PUSH1 0x4 DUP1 CALLDATALOAD DUP3 DUP2 GT PUSH2 0x37C JUMPI PUSH2 0x105B SWAP1 CALLDATASIZE SWAP1 DUP4 ADD PUSH2 0xEAF JUMP JUMPDEST PUSH1 0x24 CALLDATALOAD DUP4 DUP2 GT PUSH2 0x37C JUMPI PUSH2 0x1072 SWAP1 CALLDATASIZE SWAP1 DUP5 ADD PUSH2 0xEAF JUMP JUMPDEST SWAP1 PUSH1 0x44 CALLDATALOAD DUP5 DUP2 GT PUSH2 0x37C JUMPI PUSH2 0x108A SWAP1 CALLDATASIZE SWAP1 DUP6 ADD PUSH2 0xEAF JUMP JUMPDEST PUSH1 0x64 CALLDATALOAD DUP6 DUP2 GT PUSH2 0x37C JUMPI PUSH2 0x10A1 SWAP1 CALLDATASIZE SWAP1 DUP7 ADD PUSH2 0xEAF JUMP JUMPDEST PUSH1 0x84 CALLDATALOAD DUP7 DUP2 GT PUSH2 0x37C JUMPI PUSH2 0x10B8 SWAP1 CALLDATASIZE SWAP1 DUP8 ADD PUSH2 0xEAF JUMP JUMPDEST SWAP1 PUSH2 0x10C1 PUSH2 0x397 JUMP JUMPDEST SWAP3 PUSH1 0xE4 CALLDATALOAD SWAP8 DUP9 GT PUSH2 0x37C JUMPI PUSH2 0x10DF PUSH2 0x10E9 SWAP8 PUSH2 0xA1E SWAP10 CALLDATASIZE SWAP2 ADD PUSH2 0xEAF JUMP JUMPDEST SWAP6 PUSH1 0xC4 CALLDATALOAD SWAP6 PUSH2 0x34CB JUMP JUMPDEST PUSH1 0x40 MLOAD SWAP1 DUP2 MSTORE SWAP1 DUP2 SWAP1 PUSH1 0x20 DUP3 ADD SWAP1 JUMP JUMPDEST CALLVALUE PUSH2 0x37C JUMPI PUSH1 0x40 CALLDATASIZE PUSH1 0x3 NOT ADD SLT PUSH2 0x37C JUMPI PUSH2 0xF9C PUSH1 0x4 CALLDATALOAD PUSH2 0x1118 PUSH2 0x381 JUMP JUMPDEST SWAP1 DUP1 PUSH1 0x0 MSTORE PUSH1 0x0 DUP1 MLOAD PUSH1 0x20 PUSH2 0x59F1 DUP4 CODECOPY DUP2 MLOAD SWAP2 MSTORE PUSH1 0x20 MSTORE PUSH2 0x1140 PUSH1 0x1 PUSH1 0x40 PUSH1 0x0 KECCAK256 ADD SLOAD PUSH2 0x4933 JUMP JUMPDEST PUSH2 0x4CB2 JUMP JUMPDEST CALLVALUE PUSH2 0x37C JUMPI PUSH1 0x40 CALLDATASIZE PUSH1 0x3 NOT ADD SLT PUSH2 0x37C JUMPI PUSH2 0x115E PUSH2 0x381 JUMP JUMPDEST CALLER PUSH1 0x1 PUSH1 0x1 PUSH1 0xA0 SHL SUB DUP3 AND SUB PUSH2 0x117A JUMPI PUSH2 0xF9C SWAP1 PUSH1 0x4 CALLDATALOAD PUSH2 0x4DBD JUMP JUMPDEST PUSH1 0x40 MLOAD PUSH4 0x334BD919 PUSH1 0xE1 SHL DUP2 MSTORE PUSH1 0x4 SWAP1 REVERT JUMPDEST CALLVALUE PUSH2 0x37C JUMPI PUSH1 0x0 DUP1 PUSH1 0x3 NOT CALLDATASIZE ADD SLT PUSH2 0x1258 JUMPI DUP1 DUP1 MSTORE PUSH1 0x0 DUP1 MLOAD PUSH1 0x20 PUSH2 0x59F1 DUP4 CODECOPY DUP2 MLOAD SWAP2 MSTORE PUSH1 0x20 SWAP1 DUP2 MSTORE PUSH1 0x40 DUP1 DUP4 KECCAK256 CALLER PUSH1 0x0 SWAP1 DUP2 MSTORE SWAP3 MSTORE SWAP1 KECCAK256 SLOAD PUSH1 0xFF AND DUP1 ISZERO PUSH2 0x1237 JUMPI JUMPDEST PUSH2 0x11D8 SWAP1 PUSH2 0x324B JUMP JUMPDEST PUSH1 0x0 DUP1 MLOAD PUSH1 0x20 PUSH2 0x5A11 DUP4 CODECOPY DUP2 MLOAD SWAP2 MSTORE DUP1 SLOAD PUSH1 0xFF DUP2 AND ISZERO PUSH2 0x1225 JUMPI PUSH1 0xFF NOT AND SWAP1 SSTORE PUSH32 0x5DB9EE0A495BF2E6FF9C91A7834C1BA4FDD244A5E8AA4E537BD38AEAE4B073AA PUSH1 0x20 PUSH1 0x40 MLOAD CALLER DUP2 MSTORE LOG1 DUP1 RETURN JUMPDEST PUSH1 0x40 MLOAD PUSH4 0x8DFC202B PUSH1 0xE0 SHL DUP2 MSTORE PUSH1 0x4 SWAP1 REVERT JUMPDEST POP PUSH1 0x0 DUP1 MLOAD PUSH1 0x20 PUSH2 0x5971 DUP4 CODECOPY DUP2 MLOAD SWAP2 MSTORE SLOAD PUSH1 0x1 PUSH1 0x1 PUSH1 0xA0 SHL SUB AND CALLER EQ PUSH2 0x11CF JUMP JUMPDEST DUP1 REVERT JUMPDEST PUSH1 0x20 PUSH1 0x3 NOT DUP3 ADD SLT PUSH2 0x37C JUMPI PUSH1 0x4 CALLDATALOAD SWAP1 PUSH1 0x1 PUSH1 0x1 PUSH1 0x40 SHL SUB DUP3 GT PUSH2 0x37C JUMPI PUSH2 0xA33 SWAP2 PUSH1 0x4 ADD PUSH2 0xEAF JUMP JUMPDEST PUSH1 0x20 PUSH2 0x129E SWAP2 DUP2 PUSH1 0x40 MLOAD SWAP4 DUP3 DUP6 DUP1 SWAP5 MLOAD SWAP4 DUP5 SWAP3 ADD PUSH2 0x8EB JUMP JUMPDEST DUP2 ADD PUSH1 0x1 DUP2 MSTORE SUB ADD SWAP1 KECCAK256 SWAP1 JUMP JUMPDEST CALLVALUE PUSH2 0x37C JUMPI PUSH1 0x20 PUSH2 0x43A PUSH2 0x12BE CALLDATASIZE PUSH2 0x125B JUMP JUMPDEST PUSH2 0x1285 JUMP JUMPDEST PUSH1 0x40 SWAP1 PUSH1 0x3 NOT ADD SLT PUSH2 0x37C JUMPI PUSH1 0x4 CALLDATALOAD PUSH1 0x1 PUSH1 0x1 PUSH1 0xA0 SHL SUB DUP2 AND DUP2 SUB PUSH2 0x37C JUMPI SWAP1 PUSH1 0x24 CALLDATALOAD DUP1 ISZERO ISZERO DUP2 SUB PUSH2 0x37C JUMPI SWAP1 JUMP JUMPDEST CALLVALUE PUSH2 0x37C JUMPI PUSH2 0x1300 CALLDATASIZE PUSH2 0x12C3 JUMP JUMPDEST CALLER PUSH1 0x0 SWAP1 DUP2 MSTORE PUSH1 0x0 DUP1 MLOAD PUSH1 0x20 PUSH2 0x5991 DUP4 CODECOPY DUP2 MLOAD SWAP2 MSTORE PUSH1 0x20 MSTORE PUSH1 0x40 SWAP1 KECCAK256 SLOAD SWAP1 SWAP2 SWAP1 PUSH1 0xFF AND DUP1 ISZERO PUSH2 0x1443 JUMPI JUMPDEST PUSH2 0x1333 SWAP1 PUSH2 0x324B JUMP JUMPDEST PUSH1 0x1 PUSH1 0x1 PUSH1 0xA0 SHL SUB DUP2 DUP2 AND SWAP3 SWAP1 SWAP2 SWAP1 DUP4 ISZERO PUSH2 0x13E1 JUMPI PUSH2 0x13CA DUP2 PUSH2 0x13B9 PUSH2 0x13DC SWAP5 PUSH2 0x139F PUSH2 0x1397 PUSH32 0x97B7AF35C8C05ECA90F543EB78B16FDF2664D3E6C9A907286F310647D9813B71 SWAP9 PUSH1 0x0 DUP1 MLOAD PUSH1 0x20 PUSH2 0x5971 DUP4 CODECOPY DUP2 MLOAD SWAP2 MSTORE SLOAD AND PUSH1 0x1 DUP1 PUSH1 0xA0 SHL SUB AND SWAP1 JUMP JUMPDEST DUP10 EQ ISZERO PUSH2 0x3B4F JUMP JUMPDEST PUSH1 0x1 PUSH1 0x1 PUSH1 0xA0 SHL SUB AND PUSH1 0x0 SWAP1 DUP2 MSTORE PUSH1 0x4 PUSH1 0x20 MSTORE PUSH1 0x40 SWAP1 KECCAK256 SWAP1 JUMP JUMPDEST SWAP1 PUSH1 0xFF DUP1 NOT DUP4 SLOAD AND SWAP2 ISZERO ISZERO AND OR SWAP1 SSTORE JUMP JUMPDEST PUSH1 0x40 MLOAD SWAP1 ISZERO ISZERO DUP2 MSTORE SWAP1 DUP2 SWAP1 PUSH1 0x20 DUP3 ADD SWAP1 JUMP JUMPDEST SUB SWAP1 LOG2 STOP JUMPDEST PUSH1 0x40 MLOAD PUSH3 0x461BCD PUSH1 0xE5 SHL DUP2 MSTORE PUSH1 0x20 PUSH1 0x4 DUP3 ADD MSTORE PUSH1 0x34 PUSH1 0x24 DUP3 ADD MSTORE PUSH32 0x566572616C69784D617374657252656769737472793A2063616E6E6F7420626C PUSH1 0x44 DUP3 ADD MSTORE PUSH20 0x61636B6C697374207A65726F2061646472657373 PUSH1 0x60 SHL PUSH1 0x64 DUP3 ADD MSTORE PUSH1 0x84 SWAP1 REVERT JUMPDEST POP PUSH1 0x0 DUP1 MLOAD PUSH1 0x20 PUSH2 0x5971 DUP4 CODECOPY DUP2 MLOAD SWAP2 MSTORE SLOAD PUSH1 0x1 PUSH1 0x1 PUSH1 0xA0 SHL SUB AND CALLER EQ PUSH2 0x132A JUMP JUMPDEST CALLVALUE PUSH2 0x37C JUMPI PUSH1 0x0 CALLDATASIZE PUSH1 0x3 NOT ADD SLT PUSH2 0x37C JUMPI PUSH1 0x20 PUSH1 0x40 MLOAD PUSH32 0x1CA4917A93BBF937A078CF9CC2B3D0C4AAAC3367AAE1018D3D982BB6E49887F1 DUP2 MSTORE RETURN JUMPDEST CALLVALUE PUSH2 0x37C JUMPI PUSH1 0x0 CALLDATASIZE PUSH1 0x3 NOT ADD SLT PUSH2 0x37C JUMPI PUSH1 0x20 PUSH1 0x40 MLOAD PUSH32 0x73E573F9566D61418A34D5DE3FF49360F9C51FEC37F7486551670290F6285DAB DUP2 MSTORE RETURN JUMPDEST SWAP1 DUP2 MLOAD DUP1 DUP3 MSTORE PUSH1 0x20 DUP1 DUP1 SWAP4 ADD SWAP4 ADD SWAP2 PUSH1 0x0 JUMPDEST DUP3 DUP2 LT PUSH2 0x14FA JUMPI POP POP POP POP SWAP1 JUMP JUMPDEST DUP4 MLOAD DUP6 MSTORE SWAP4 DUP2 ADD SWAP4 SWAP3 DUP2 ADD SWAP3 PUSH1 0x1 ADD PUSH2 0x14EC JUMP JUMPDEST SWAP1 PUSH1 0x20 PUSH2 0xA33 SWAP3 DUP2 DUP2 MSTORE ADD SWAP1 PUSH2 0x14DA JUMP JUMPDEST CALLVALUE PUSH2 0x37C JUMPI PUSH1 0x40 CALLDATASIZE PUSH1 0x3 NOT ADD SLT PUSH2 0x37C JUMPI PUSH1 0x4 CALLDATALOAD PUSH1 0x1 PUSH1 0x1 PUSH1 0x40 SHL SUB DUP1 DUP3 GT PUSH2 0x37C JUMPI CALLDATASIZE PUSH1 0x23 DUP4 ADD SLT ISZERO PUSH2 0x37C JUMPI DUP2 PUSH1 0x4 ADD CALLDATALOAD PUSH2 0x155B DUP2 PUSH2 0xE1D JUMP JUMPDEST SWAP3 PUSH2 0x1569 PUSH1 0x40 MLOAD SWAP5 DUP6 PUSH2 0x825 JUMP JUMPDEST DUP2 DUP5 MSTORE PUSH1 0x20 SWAP2 PUSH1 0x24 PUSH1 0x20 DUP7 ADD SWAP2 PUSH1 0x5 SHL DUP4 ADD ADD SWAP2 CALLDATASIZE DUP4 GT PUSH2 0x37C JUMPI PUSH1 0x24 ADD SWAP1 JUMPDEST DUP3 DUP3 LT PUSH2 0x15C2 JUMPI DUP6 PUSH1 0x24 CALLDATALOAD DUP7 DUP2 GT PUSH2 0x37C JUMPI PUSH2 0xA1E SWAP2 PUSH2 0x15B0 PUSH2 0x15B6 SWAP3 CALLDATASIZE SWAP1 PUSH1 0x4 ADD PUSH2 0xE34 JUMP JUMPDEST SWAP1 PUSH2 0x3BF7 JUMP JUMPDEST PUSH1 0x40 MLOAD SWAP2 DUP3 SWAP2 DUP3 PUSH2 0x150E JUMP JUMPDEST DUP4 DUP1 SWAP2 PUSH2 0x15CE DUP5 PUSH2 0x3C3 JUMP JUMPDEST DUP2 MSTORE ADD SWAP2 ADD SWAP1 PUSH2 0x1589 JUMP JUMPDEST PUSH1 0x40 CALLDATASIZE PUSH1 0x3 NOT ADD SLT PUSH2 0x37C JUMPI PUSH2 0x15ED PUSH2 0x366 JUMP JUMPDEST PUSH1 0x24 CALLDATALOAD PUSH1 0x1 PUSH1 0x1 PUSH1 0x40 SHL SUB DUP2 GT PUSH2 0x37C JUMPI PUSH2 0x160C SWAP1 CALLDATASIZE SWAP1 PUSH1 0x4 ADD PUSH2 0xEAF JUMP JUMPDEST PUSH1 0x1 PUSH1 0x1 PUSH1 0xA0 SHL SUB SWAP2 SWAP1 PUSH32 0x0 DUP4 AND ADDRESS DUP2 EQ SWAP1 DUP2 ISZERO PUSH2 0x1717 JUMPI JUMPDEST POP PUSH2 0x1705 JUMPI PUSH1 0x20 PUSH1 0x4 SWAP4 PUSH2 0x1656 PUSH2 0x48ED JUMP JUMPDEST PUSH1 0x40 MLOAD PUSH4 0x52D1902D PUSH1 0xE0 SHL DUP2 MSTORE SWAP5 DUP6 SWAP2 DUP3 SWAP1 DUP7 AND GAS STATICCALL PUSH1 0x0 SWAP4 DUP2 PUSH2 0x16D4 JUMPI JUMPDEST POP PUSH2 0x169B JUMPI PUSH1 0x40 MLOAD PUSH4 0x4C9C8CE3 PUSH1 0xE0 SHL DUP2 MSTORE PUSH1 0x1 PUSH1 0x1 PUSH1 0xA0 SHL SUB DUP4 AND PUSH1 0x4 DUP3 ADD MSTORE PUSH1 0x24 SWAP1 REVERT JUMPDEST SWAP1 PUSH1 0x0 DUP1 MLOAD PUSH1 0x20 PUSH2 0x59B1 DUP4 CODECOPY DUP2 MLOAD SWAP2 MSTORE DUP4 SUB PUSH2 0x16BB JUMPI PUSH2 0xF9C SWAP3 POP PUSH2 0x519E JUMP JUMPDEST PUSH1 0x40 MLOAD PUSH4 0x2A875269 PUSH1 0xE2 SHL DUP2 MSTORE PUSH1 0x4 DUP2 ADD DUP5 SWAP1 MSTORE PUSH1 0x24 SWAP1 REVERT JUMPDEST PUSH2 0x16F7 SWAP2 SWAP5 POP PUSH1 0x20 RETURNDATASIZE PUSH1 0x20 GT PUSH2 0x16FE JUMPI JUMPDEST PUSH2 0x16EF DUP2 DUP4 PUSH2 0x825 JUMP JUMPDEST DUP2 ADD SWAP1 PUSH2 0x4DF7 JUMP JUMPDEST SWAP3 CODESIZE PUSH2 0x1675 JUMP JUMPDEST POP RETURNDATASIZE PUSH2 0x16E5 JUMP JUMPDEST PUSH1 0x40 MLOAD PUSH4 0x703E46DD PUSH1 0xE1 SHL DUP2 MSTORE PUSH1 0x4 SWAP1 REVERT JUMPDEST SWAP1 POP DUP4 PUSH1 0x0 DUP1 MLOAD PUSH1 0x20 PUSH2 0x59B1 DUP4 CODECOPY DUP2 MLOAD SWAP2 MSTORE SLOAD AND EQ ISZERO CODESIZE PUSH2 0x1644 JUMP JUMPDEST SWAP1 PUSH2 0xA33 SWAP2 PUSH1 0x20 DUP2 MSTORE DUP2 MLOAD PUSH1 0x20 DUP3 ADD MSTORE PUSH1 0x20 DUP3 ADD MLOAD SWAP1 PUSH2 0x1761 PUSH2 0x1C0 SWAP3 DUP4 PUSH1 0x40 DUP5 ADD MSTORE PUSH2 0x1E0 DUP4 ADD SWAP1 PUSH2 0x90E JUMP JUMPDEST SWAP2 PUSH2 0x17C3 PUSH2 0x17AF PUSH2 0x179B PUSH2 0x1787 PUSH1 0x40 DUP9 ADD MLOAD SWAP7 PUSH1 0x1F NOT SWAP8 DUP9 DUP9 DUP4 SUB ADD PUSH1 0x60 DUP10 ADD MSTORE PUSH2 0x90E JUMP JUMPDEST PUSH1 0x60 DUP9 ADD MLOAD DUP8 DUP8 DUP4 SUB ADD PUSH1 0x80 DUP9 ADD MSTORE PUSH2 0x90E JUMP JUMPDEST PUSH1 0x80 DUP8 ADD MLOAD DUP7 DUP7 DUP4 SUB ADD PUSH1 0xA0 DUP8 ADD MSTORE PUSH2 0x90E JUMP JUMPDEST PUSH1 0xA0 DUP7 ADD MLOAD DUP6 DUP6 DUP4 SUB ADD PUSH1 0xC0 DUP7 ADD MSTORE PUSH2 0x90E JUMP JUMPDEST PUSH1 0xC0 DUP6 ADD MLOAD PUSH1 0x1 PUSH1 0x1 PUSH1 0xA0 SHL SUB AND PUSH1 0xE0 DUP5 ADD MSTORE SWAP4 PUSH1 0xE0 DUP2 ADD MLOAD PUSH1 0x1 PUSH1 0x1 PUSH1 0xA0 SHL SUB AND PUSH2 0x100 DUP5 DUP2 ADD SWAP2 SWAP1 SWAP2 MSTORE DUP2 ADD MLOAD PUSH2 0x120 SWAP1 DUP2 DUP6 ADD MSTORE DUP2 ADD MLOAD PUSH2 0x140 SWAP1 DUP2 DUP6 ADD MSTORE DUP2 ADD MLOAD PUSH2 0x1819 PUSH2 0x160 SWAP2 DUP3 DUP7 ADD SWAP1 ISZERO ISZERO SWAP1 MSTORE JUMP JUMPDEST DUP2 ADD MLOAD PUSH2 0x182D PUSH2 0x180 SWAP2 DUP3 DUP7 ADD SWAP1 ISZERO ISZERO SWAP1 MSTORE JUMP JUMPDEST DUP2 ADD MLOAD SWAP1 PUSH2 0x1A0 SWAP2 DUP3 DUP6 ADD MSTORE ADD MLOAD SWAP3 DUP3 DUP6 SUB ADD SWAP2 ADD MSTORE PUSH2 0x90E JUMP JUMPDEST CALLVALUE PUSH2 0x37C JUMPI PUSH1 0x20 CALLDATASIZE PUSH1 0x3 NOT ADD SLT PUSH2 0x37C JUMPI PUSH1 0x40 MLOAD PUSH2 0x1865 DUP2 PUSH2 0x7B2 JUMP JUMPDEST PUSH2 0x1A0 PUSH1 0x0 SWAP2 DUP3 DUP2 MSTORE PUSH1 0x60 SWAP3 DUP4 PUSH1 0x20 DUP4 ADD MSTORE DUP4 PUSH1 0x40 DUP4 ADD MSTORE DUP4 DUP1 DUP4 ADD MSTORE DUP4 PUSH1 0x80 DUP4 ADD MSTORE DUP4 PUSH1 0xA0 DUP4 ADD MSTORE DUP1 PUSH1 0xC0 DUP4 ADD MSTORE DUP1 PUSH1 0xE0 DUP4 ADD MSTORE DUP1 PUSH2 0x100 DUP4 ADD MSTORE DUP1 PUSH2 0x120 DUP4 ADD MSTORE DUP1 PUSH2 0x140 DUP4 ADD MSTORE DUP1 PUSH2 0x160 DUP4 ADD MSTORE PUSH2 0x180 DUP3 ADD MSTORE ADD MSTORE PUSH2 0xA1E PUSH2 0x18CC PUSH1 0x4 CALLDATALOAD PUSH2 0x3CB4 JUMP JUMPDEST PUSH1 0x40 MLOAD SWAP2 DUP3 SWAP2 DUP3 PUSH2 0x1733 JUMP JUMPDEST CALLVALUE PUSH2 0x37C JUMPI PUSH1 0x0 CALLDATASIZE PUSH1 0x3 NOT ADD SLT PUSH2 0x37C JUMPI PUSH32 0x0 PUSH1 0x1 PUSH1 0x1 PUSH1 0xA0 SHL SUB AND ADDRESS SUB PUSH2 0x1705 JUMPI PUSH1 0x20 PUSH1 0x40 MLOAD PUSH1 0x0 DUP1 MLOAD PUSH1 0x20 PUSH2 0x59B1 DUP4 CODECOPY DUP2 MLOAD SWAP2 MSTORE DUP2 MSTORE RETURN JUMPDEST PUSH4 0x4E487B71 PUSH1 0xE0 SHL PUSH1 0x0 MSTORE PUSH1 0x32 PUSH1 0x4 MSTORE PUSH1 0x24 PUSH1 0x0 REVERT JUMPDEST CALLVALUE PUSH2 0x37C JUMPI PUSH1 0x20 CALLDATASIZE PUSH1 0x3 NOT ADD SLT PUSH2 0x37C JUMPI PUSH1 0x4 CALLDATALOAD PUSH1 0x7 SLOAD DUP2 LT ISZERO PUSH2 0x37C JUMPI PUSH1 0x7 PUSH1 0x0 MSTORE PUSH32 0xA66CC928B5EDB82AF9BD49922954155AB7B0942694BEA4CE44661D9A8736C688 ADD SLOAD PUSH1 0x40 MLOAD PUSH1 0x1 PUSH1 0x1 PUSH1 0xA0 SHL SUB SWAP1 SWAP2 AND DUP2 MSTORE PUSH1 0x20 SWAP1 RETURN JUMPDEST CALLVALUE PUSH2 0x37C JUMPI PUSH1 0x0 CALLDATASIZE PUSH1 0x3 NOT ADD SLT PUSH2 0x37C JUMPI PUSH1 0x20 PUSH1 0xFF PUSH1 0x0 DUP1 MLOAD PUSH1 0x20 PUSH2 0x5A11 DUP4 CODECOPY DUP2 MLOAD SWAP2 MSTORE SLOAD AND PUSH1 0x40 MLOAD SWAP1 ISZERO ISZERO DUP2 MSTORE RETURN JUMPDEST SWAP11 SWAP6 PUSH2 0x1A4E SWAP1 PUSH2 0xA33 SWAP16 SWAP14 SWAP10 SWAP4 PUSH2 0x1A86 SWAP10 SWAP16 SWAP13 SWAP8 DUP15 SWAP1 PUSH2 0x1A32 PUSH2 0x1A90 SWAP15 SWAP10 PUSH2 0x1A24 PUSH2 0x1A70 SWAP11 PUSH2 0x1A16 PUSH2 0x1A40 SWAP8 PUSH2 0x1A60 SWAP12 PUSH2 0x1C0 SWAP1 DUP10 MSTORE DUP1 PUSH1 0x20 DUP11 ADD MSTORE DUP9 ADD SWAP1 PUSH2 0x90E JUMP JUMPDEST SWAP1 DUP7 DUP3 SUB PUSH1 0x40 DUP9 ADD MSTORE PUSH2 0x90E JUMP JUMPDEST SWAP1 DUP5 DUP3 SUB PUSH1 0x60 DUP7 ADD MSTORE PUSH2 0x90E JUMP JUMPDEST SWAP2 PUSH1 0x80 DUP2 DUP5 SUB SWAP2 ADD MSTORE PUSH2 0x90E JUMP JUMPDEST DUP14 DUP2 SUB PUSH1 0xA0 DUP16 ADD MSTORE SWAP1 PUSH2 0x90E JUMP JUMPDEST PUSH1 0x1 PUSH1 0x1 PUSH1 0xA0 SHL SUB SWAP1 SWAP14 AND PUSH1 0xC0 DUP13 ADD MSTORE JUMP JUMPDEST PUSH1 0x1 PUSH1 0x1 PUSH1 0xA0 SHL SUB AND PUSH1 0xE0 DUP11 ADD MSTORE JUMP JUMPDEST PUSH2 0x100 DUP9 ADD MSTORE PUSH2 0x120 DUP8 ADD MSTORE ISZERO ISZERO PUSH2 0x140 DUP7 ADD MSTORE JUMP JUMPDEST ISZERO ISZERO PUSH2 0x160 DUP5 ADD MSTORE JUMP JUMPDEST PUSH2 0x180 DUP3 ADD MSTORE PUSH2 0x1A0 DUP2 DUP5 SUB SWAP2 ADD MSTORE PUSH2 0x90E JUMP JUMPDEST CALLVALUE PUSH2 0x37C JUMPI PUSH1 0x20 CALLDATASIZE PUSH1 0x3 NOT ADD SLT PUSH2 0x37C JUMPI PUSH1 0x4 CALLDATALOAD PUSH1 0x0 MSTORE PUSH1 0x0 PUSH1 0x20 MSTORE PUSH1 0x40 PUSH1 0x0 KECCAK256 DUP1 SLOAD PUSH2 0xA1E PUSH2 0x1AD6 PUSH1 0x1 DUP5 ADD PUSH2 0x846 JUMP JUMPDEST SWAP2 PUSH2 0x1AE3 PUSH1 0x2 DUP6 ADD PUSH2 0x846 JUMP JUMPDEST SWAP4 PUSH2 0x1AF0 PUSH1 0x3 DUP3 ADD PUSH2 0x846 JUMP JUMPDEST SWAP2 PUSH2 0x1AFD PUSH1 0x4 DUP4 ADD PUSH2 0x846 JUMP JUMPDEST SWAP1 PUSH2 0x1B0A PUSH1 0x5 DUP5 ADD PUSH2 0x846 JUMP JUMPDEST PUSH1 0x6 DUP5 ADD SLOAD PUSH1 0x1 PUSH1 0x1 PUSH1 0xA0 SHL SUB AND PUSH1 0x7 DUP6 ADD SLOAD PUSH1 0x1 PUSH1 0x1 PUSH1 0xA0 SHL SUB AND PUSH1 0x8 DUP7 ADD SLOAD SWAP2 PUSH1 0x9 DUP8 ADD SLOAD SWAP4 PUSH1 0xA DUP9 ADD SLOAD SWAP7 PUSH2 0x1B49 PUSH1 0xC PUSH1 0xB DUP12 ADD SLOAD SWAP11 ADD PUSH2 0x846 JUMP JUMPDEST SWAP10 PUSH1 0x40 MLOAD SWAP14 DUP15 SWAP14 DUP15 SWAP10 PUSH1 0xFF DUP1 DUP14 PUSH1 0x8 SHR AND SWAP13 AND SWAP11 PUSH2 0x19D2 JUMP JUMPDEST DUP2 PUSH1 0x1F DUP3 ADD SLT ISZERO PUSH2 0x37C JUMPI DUP1 CALLDATALOAD SWAP2 PUSH1 0x20 SWAP2 PUSH2 0x1B7C DUP5 PUSH2 0xE1D JUMP JUMPDEST SWAP4 PUSH2 0x1B8A PUSH1 0x40 MLOAD SWAP6 DUP7 PUSH2 0x825 JUMP JUMPDEST DUP1 DUP6 MSTORE DUP4 DUP1 DUP7 ADD SWAP2 PUSH1 0x5 SHL DUP4 ADD ADD SWAP3 DUP1 DUP5 GT PUSH2 0x37C JUMPI DUP5 DUP4 ADD SWAP2 JUMPDEST DUP5 DUP4 LT PUSH2 0x1BB5 JUMPI POP POP POP POP POP POP SWAP1 JUMP JUMPDEST DUP3 CALLDATALOAD PUSH1 0x1 PUSH1 0x1 PUSH1 0x40 SHL SUB DUP2 GT PUSH2 0x37C JUMPI DUP7 SWAP2 PUSH2 0x1BD6 DUP5 DUP5 DUP1 SWAP5 DUP10 ADD ADD PUSH2 0xEAF JUMP JUMPDEST DUP2 MSTORE ADD SWAP3 ADD SWAP2 PUSH2 0x1BA5 JUMP JUMPDEST CALLVALUE PUSH2 0x37C JUMPI PUSH1 0xA0 CALLDATASIZE PUSH1 0x3 NOT ADD SLT PUSH2 0x37C JUMPI PUSH2 0x1BFA PUSH2 0x366 JUMP JUMPDEST PUSH1 0x1 PUSH1 0x1 PUSH1 0x40 SHL SUB SWAP1 PUSH1 0x24 CALLDATALOAD DUP3 DUP2 GT PUSH2 0x37C JUMPI PUSH2 0x1C1B SWAP1 CALLDATASIZE SWAP1 PUSH1 0x4 ADD PUSH2 0xEAF JUMP JUMPDEST PUSH1 0x44 CALLDATALOAD DUP4 DUP2 GT PUSH2 0x37C JUMPI PUSH2 0x1C33 SWAP1 CALLDATASIZE SWAP1 PUSH1 0x4 ADD PUSH2 0xEAF JUMP JUMPDEST PUSH1 0x64 CALLDATALOAD DUP5 DUP2 GT PUSH2 0x37C JUMPI PUSH2 0x1C4B SWAP1 CALLDATASIZE SWAP1 PUSH1 0x4 ADD PUSH2 0xEAF JUMP JUMPDEST SWAP2 PUSH1 0x84 CALLDATALOAD SWAP5 DUP6 GT PUSH2 0x37C JUMPI PUSH2 0x1C67 PUSH2 0xF9C SWAP6 CALLDATASIZE SWAP1 PUSH1 0x4 ADD PUSH2 0x1B62 JUMP JUMPDEST SWAP4 PUSH2 0x3DDB JUMP JUMPDEST CALLVALUE PUSH2 0x37C JUMPI PUSH1 0x40 CALLDATASIZE PUSH1 0x3 NOT ADD SLT PUSH2 0x37C JUMPI PUSH1 0x1 PUSH1 0x1 PUSH1 0x40 SHL SUB PUSH1 0x4 CALLDATALOAD PUSH1 0x24 CALLDATALOAD DUP3 DUP2 GT PUSH2 0x37C JUMPI PUSH2 0x1CA1 SWAP1 CALLDATASIZE SWAP1 PUSH1 0x4 ADD PUSH2 0xEAF JUMP JUMPDEST CALLER PUSH1 0x0 SWAP1 DUP2 MSTORE PUSH32 0x268477D1C17BF7595397186358FEC802C44C92BB39292DE205AD03CBFE096E02 PUSH1 0x20 SWAP1 DUP2 MSTORE PUSH1 0x40 DUP3 KECCAK256 SLOAD SWAP2 SWAP5 SWAP1 SWAP2 PUSH1 0xFF AND DUP1 ISZERO PUSH2 0x1E7D JUMPI JUMPDEST PUSH2 0x1CE9 SWAP1 PUSH2 0x324B JUMP JUMPDEST PUSH2 0x1CF1 PUSH2 0x4785 JUMP JUMPDEST DUP4 ISZERO ISZERO DUP1 PUSH2 0x1E71 JUMPI JUMPDEST PUSH2 0x1D03 SWAP1 PUSH2 0x32CF JUMP JUMPDEST DUP4 DUP6 MSTORE PUSH1 0x5 DUP3 MSTORE PUSH2 0x1D1B PUSH1 0xFF PUSH1 0x40 DUP8 KECCAK256 SLOAD AND ISZERO PUSH2 0x332B JUMP JUMPDEST PUSH2 0x1D27 DUP4 MLOAD ISZERO ISZERO PUSH2 0x423F JUMP JUMPDEST DUP4 DUP6 MSTORE DUP5 DUP3 MSTORE PUSH1 0x5 PUSH1 0x40 DUP7 KECCAK256 ADD SWAP2 DUP4 MLOAD SWAP2 DUP3 GT PUSH2 0x7CE JUMPI PUSH2 0x1D52 DUP3 PUSH2 0x1D4C DUP6 SLOAD PUSH2 0x762 JUMP JUMPDEST DUP6 PUSH2 0x3933 JUMP JUMPDEST DUP1 PUSH1 0x1F DUP4 GT PUSH1 0x1 EQ PUSH2 0x1DDF JUMPI POP SWAP2 PUSH2 0x1DA6 DUP3 PUSH32 0x2515FAFA24747DB25D60FB3F86F82F18E969DEE98607CC863CED46768089B929 SWAP6 SWAP4 PUSH2 0x1DCE SWAP6 DUP10 SWAP2 PUSH2 0x1DD4 JUMPI JUMPDEST POP DUP2 PUSH1 0x1 SHL SWAP2 PUSH1 0x0 NOT SWAP1 PUSH1 0x3 SHL SHR NOT AND OR SWAP1 JUMP JUMPDEST SWAP1 SSTORE JUMPDEST TIMESTAMP PUSH1 0x9 PUSH2 0x1DC0 DUP7 PUSH1 0x0 MSTORE PUSH1 0x0 PUSH1 0x20 MSTORE PUSH1 0x40 PUSH1 0x0 KECCAK256 SWAP1 JUMP JUMPDEST ADD SSTORE PUSH1 0x40 MLOAD SWAP2 DUP3 SWAP2 DUP3 PUSH2 0xA22 JUMP JUMPDEST SUB SWAP1 LOG2 DUP1 RETURN JUMPDEST SWAP1 POP DUP5 ADD MLOAD CODESIZE PUSH2 0x1D92 JUMP JUMPDEST SWAP1 PUSH1 0x1F NOT DUP4 AND PUSH2 0x1DF4 DUP6 PUSH1 0x0 MSTORE PUSH1 0x20 PUSH1 0x0 KECCAK256 SWAP1 JUMP JUMPDEST SWAP3 DUP9 SWAP1 JUMPDEST DUP3 DUP3 LT PUSH2 0x1E59 JUMPI POP POP SWAP3 PUSH2 0x1DCE SWAP5 SWAP3 PUSH1 0x1 SWAP3 DUP3 PUSH32 0x2515FAFA24747DB25D60FB3F86F82F18E969DEE98607CC863CED46768089B929 SWAP9 SWAP7 LT PUSH2 0x1E40 JUMPI JUMPDEST POP POP DUP2 SHL ADD SWAP1 SSTORE PUSH2 0x1DA9 JUMP JUMPDEST DUP6 ADD MLOAD PUSH1 0x0 NOT PUSH1 0xF8 DUP5 PUSH1 0x3 SHL AND SHR NOT AND SWAP1 SSTORE CODESIZE DUP1 PUSH2 0x1E34 JUMP JUMPDEST DUP1 PUSH1 0x1 DUP6 SWAP7 DUP3 SWAP5 SWAP7 DUP12 ADD MLOAD DUP2 SSTORE ADD SWAP6 ADD SWAP4 ADD SWAP1 PUSH2 0x1DF8 JUMP JUMPDEST POP PUSH1 0x6 SLOAD DUP5 GT ISZERO PUSH2 0x1CFA JUMP JUMPDEST POP PUSH1 0x0 DUP1 MLOAD PUSH1 0x20 PUSH2 0x5971 DUP4 CODECOPY DUP2 MLOAD SWAP2 MSTORE SLOAD PUSH1 0x1 PUSH1 0x1 PUSH1 0xA0 SHL SUB AND CALLER EQ PUSH2 0x1CE0 JUMP JUMPDEST CALLVALUE PUSH2 0x37C JUMPI PUSH1 0x0 CALLDATASIZE PUSH1 0x3 NOT ADD SLT PUSH2 0x37C JUMPI PUSH1 0x20 PUSH1 0x40 MLOAD PUSH32 0x59A1C48E5837AD7A7F3DCEDCBE129BF3249EC4FBF651FD4F5E2600EAD39FE2F5 DUP2 MSTORE RETURN JUMPDEST CALLVALUE PUSH2 0x37C JUMPI PUSH1 0x60 DUP1 PUSH1 0x3 NOT CALLDATASIZE ADD SLT PUSH2 0x37C JUMPI PUSH1 0x1 PUSH1 0x1 PUSH1 0x40 SHL SUB SWAP1 PUSH1 0x4 CALLDATALOAD DUP3 DUP2 GT PUSH2 0x37C JUMPI PUSH2 0x1F0C SWAP1 CALLDATASIZE SWAP1 PUSH1 0x4 ADD PUSH2 0x1B62 JUMP JUMPDEST SWAP2 PUSH1 0x24 CALLDATALOAD SWAP1 DUP2 GT PUSH2 0x37C JUMPI PUSH2 0x1F25 SWAP1 CALLDATASIZE SWAP1 PUSH1 0x4 ADD PUSH2 0x1B62 JUMP JUMPDEST SWAP1 PUSH2 0x1F2E PUSH2 0x3AD JUMP JUMPDEST CALLER PUSH1 0x0 SWAP1 DUP2 MSTORE PUSH1 0x0 DUP1 MLOAD PUSH1 0x20 PUSH2 0x59D1 DUP4 CODECOPY DUP2 MLOAD SWAP2 MSTORE PUSH1 0x20 SWAP1 DUP2 MSTORE PUSH1 0x40 DUP1 DUP4 KECCAK256 SLOAD SWAP3 SWAP7 SWAP1 SWAP5 SWAP1 SWAP3 PUSH1 0xFF AND DUP1 ISZERO PUSH2 0x21E2 JUMPI JUMPDEST PUSH2 0x1F67 SWAP1 PUSH2 0x324B JUMP JUMPDEST PUSH2 0x1F6F PUSH2 0x4785 JUMP JUMPDEST PUSH2 0x1F77 PUSH2 0x4877 JUMP JUMPDEST PUSH1 0x1 PUSH1 0x1 PUSH1 0xA0 SHL SUB DUP5 AND DUP1 DUP9 MSTORE PUSH1 0x4 PUSH1 0x20 MSTORE PUSH1 0x40 DUP9 KECCAK256 SLOAD SWAP1 SWAP6 SWAP1 PUSH2 0x1F9E SWAP1 PUSH1 0xFF AND ISZERO PUSH2 0x338C JUMP JUMPDEST CALLER PUSH1 0x0 SWAP1 DUP2 MSTORE PUSH1 0x2 PUSH1 0x20 MSTORE PUSH1 0x40 SWAP1 KECCAK256 PUSH2 0x1FC6 SWAP1 PUSH2 0x1FC1 SWAP1 PUSH1 0x4 SWAP1 JUMPDEST ADD SLOAD PUSH1 0xFF AND SWAP1 JUMP JUMPDEST PUSH2 0x380A JUMP JUMPDEST DUP4 MLOAD SWAP4 PUSH2 0x1FD4 DUP6 ISZERO ISZERO PUSH2 0x42A7 JUMP JUMPDEST PUSH2 0x1FE0 DUP6 DUP10 MLOAD EQ PUSH2 0x42FE JUMP JUMPDEST PUSH2 0x1FE9 DUP6 PUSH2 0x3BB1 JUMP JUMPDEST SWAP8 PUSH2 0x1FF3 DUP7 PUSH2 0x3BB1 JUMP JUMPDEST SWAP10 DUP9 ISZERO ISZERO SWAP6 DUP2 JUMPDEST DUP9 DUP2 LT PUSH2 0x2093 JUMPI PUSH2 0xA1E DUP13 DUP13 DUP16 DUP14 PUSH2 0x2048 SWAP2 DUP15 PUSH2 0x2037 PUSH1 0x6 PUSH2 0x202E CALLER PUSH1 0x1 DUP1 PUSH1 0xA0 SHL SUB AND PUSH1 0x0 MSTORE PUSH1 0x2 PUSH1 0x20 MSTORE PUSH1 0x40 PUSH1 0x0 KECCAK256 SWAP1 JUMP JUMPDEST ADD SWAP2 DUP3 SLOAD PUSH2 0x438E JUMP JUMPDEST SWAP1 SSTORE DUP5 PUSH2 0x2042 PUSH2 0x29F3 JUMP JUMPDEST SWAP3 PUSH2 0x4E06 JUMP JUMPDEST PUSH1 0x40 MLOAD PUSH32 0xB41486D0E77EC354CB1B377F4DB490DB23ED03C55DCF6C99BFB62E1F0B356B09 CALLER SWAP2 DUP1 PUSH2 0x2079 DUP7 DUP3 PUSH2 0x150E JUMP JUMPDEST SUB SWAP1 LOG3 PUSH2 0x15B6 PUSH1 0x1 PUSH1 0x0 DUP1 MLOAD PUSH1 0x20 PUSH2 0x5A31 DUP4 CODECOPY DUP2 MLOAD SWAP2 MSTORE SSTORE JUMP JUMPDEST DUP1 PUSH1 0x1 PUSH2 0x21DB DUP16 SWAP4 DUP16 SWAP5 DUP12 DUP16 DUP4 DUP16 SWAP9 DUP15 PUSH2 0x21CF DUP16 DUP16 DUP16 SWAP2 DUP16 DUP14 SWAP16 SWAP3 PUSH2 0x20E8 SWAP5 PUSH2 0x2173 PUSH2 0x21D5 SWAP12 PUSH2 0x21CA SWAP5 PUSH2 0x20FA DUP14 SWAP9 PUSH2 0x20D8 PUSH2 0x20CF DUP12 DUP12 PUSH2 0x3BE3 JUMP JUMPDEST MLOAD MLOAD ISZERO ISZERO PUSH2 0x36BE JUMP JUMPDEST PUSH2 0x20F5 PUSH2 0x20EE PUSH2 0x20E8 DUP13 DUP13 PUSH2 0x3BE3 JUMP JUMPDEST MLOAD PUSH2 0x1285 JUMP JUMPDEST SLOAD ISZERO PUSH2 0x3730 JUMP JUMPDEST PUSH2 0x37A2 JUMP JUMPDEST PUSH1 0x6 PUSH2 0x210E PUSH2 0x2109 DUP3 SLOAD PUSH2 0x3884 JUMP JUMPDEST PUSH1 0x6 SSTORE JUMP JUMPDEST SLOAD SWAP15 DUP16 SWAP12 DUP13 SWAP7 PUSH2 0x2129 DUP12 PUSH2 0x2122 DUP2 DUP14 PUSH2 0x3BE3 JUMP JUMPDEST MLOAD SWAP3 PUSH2 0x3BE3 JUMP JUMPDEST MLOAD SWAP4 PUSH2 0x2133 PUSH2 0xE03 JUMP JUMPDEST SWAP9 DUP10 MSTORE DUP9 ADD MSTORE PUSH2 0x2141 PUSH2 0x435F JUMP JUMPDEST SWAP1 DUP8 ADD MSTORE PUSH2 0x214D PUSH2 0x29F3 JUMP JUMPDEST SWAP1 DUP7 ADD MSTORE PUSH2 0x2159 PUSH2 0x29F3 JUMP JUMPDEST PUSH1 0x80 DUP7 ADD MSTORE PUSH1 0xA0 DUP6 ADD MSTORE PUSH1 0x1 PUSH1 0x1 PUSH1 0xA0 SHL SUB AND PUSH1 0xC0 DUP5 ADD MSTORE JUMP JUMPDEST CALLER PUSH1 0xE0 DUP4 ADD MSTORE TIMESTAMP PUSH2 0x100 DUP4 ADD MSTORE TIMESTAMP PUSH2 0x120 DUP4 ADD MSTORE PUSH2 0x2195 PUSH2 0x140 DUP4 ADD PUSH1 0x1 SWAP1 MSTORE JUMP JUMPDEST PUSH1 0x1 PUSH2 0x160 DUP4 ADD MSTORE PUSH2 0x180 DUP3 ADD MSTORE PUSH2 0x21AB PUSH2 0x29F3 JUMP JUMPDEST PUSH2 0x1A0 DUP3 ADD MSTORE PUSH2 0x21C5 DUP8 PUSH1 0x0 MSTORE PUSH1 0x0 PUSH1 0x20 MSTORE PUSH1 0x40 PUSH1 0x0 KECCAK256 SWAP1 JUMP JUMPDEST PUSH2 0x3A42 JUMP JUMPDEST PUSH2 0x3BE3 JUMP JUMPDEST SSTORE PUSH2 0x3BE3 JUMP JUMPDEST MSTORE PUSH2 0x3BE3 JUMP JUMPDEST MSTORE ADD PUSH2 0x1FFA JUMP JUMPDEST POP PUSH1 0x0 DUP1 MLOAD PUSH1 0x20 PUSH2 0x5971 DUP4 CODECOPY DUP2 MLOAD SWAP2 MSTORE SLOAD PUSH1 0x1 PUSH1 0x1 PUSH1 0xA0 SHL SUB AND CALLER EQ PUSH2 0x1F5E JUMP JUMPDEST CALLVALUE PUSH2 0x37C JUMPI PUSH1 0x0 DUP1 PUSH1 0x3 NOT CALLDATASIZE ADD SLT PUSH2 0x1258 JUMPI PUSH2 0x221D PUSH2 0x4E21 JUMP JUMPDEST PUSH1 0x0 DUP1 MLOAD PUSH1 0x20 PUSH2 0x5971 DUP4 CODECOPY DUP2 MLOAD SWAP2 MSTORE DUP1 SLOAD PUSH1 0x1 PUSH1 0x1 PUSH1 0xA0 SHL SUB NOT DUP2 AND SWAP1 SWAP2 SSTORE DUP2 SWAP1 PUSH1 0x1 PUSH1 0x1 PUSH1 0xA0 SHL SUB AND PUSH32 0x8BE0079C531659141344CD1FD0A4F28419497F9722A3DAAFE3B4186F6B6457E0 DUP3 DUP1 LOG3 DUP1 RETURN JUMPDEST CALLVALUE PUSH2 0x37C JUMPI PUSH1 0x40 DUP1 PUSH1 0x3 NOT CALLDATASIZE ADD SLT PUSH2 0x37C JUMPI PUSH1 0x1 PUSH1 0x1 PUSH1 0x40 SHL SUB SWAP1 PUSH1 0x4 CALLDATALOAD DUP3 DUP2 GT PUSH2 0x37C JUMPI PUSH2 0x22A1 SWAP1 CALLDATASIZE SWAP1 PUSH1 0x4 ADD PUSH2 0xE34 JUMP JUMPDEST SWAP2 PUSH1 0x24 CALLDATALOAD SWAP1 DUP2 GT PUSH2 0x37C JUMPI PUSH2 0x22BA SWAP1 CALLDATASIZE SWAP1 PUSH1 0x4 ADD PUSH2 0x1B62 JUMP JUMPDEST CALLER PUSH1 0x0 SWAP1 DUP2 MSTORE PUSH32 0x268477D1C17BF7595397186358FEC802C44C92BB39292DE205AD03CBFE096E02 PUSH1 0x20 MSTORE PUSH1 0x40 SWAP1 KECCAK256 SLOAD PUSH1 0xFF AND DUP1 ISZERO PUSH2 0x2420 JUMPI JUMPDEST PUSH2 0x22FC SWAP1 PUSH2 0x324B JUMP JUMPDEST PUSH2 0x2304 PUSH2 0x4785 JUMP JUMPDEST PUSH2 0x2311 DUP4 MLOAD DUP3 MLOAD EQ PUSH2 0x42FE JUMP JUMPDEST DUP3 MLOAD SWAP2 PUSH2 0x231F DUP4 ISZERO ISZERO PUSH2 0x42A7 JUMP JUMPDEST PUSH1 0x0 JUMPDEST DUP4 DUP2 LT PUSH2 0x232B JUMPI STOP JUMPDEST DUP1 PUSH2 0x2338 PUSH1 0x1 SWAP3 DUP8 PUSH2 0x3BE3 JUMP JUMPDEST MLOAD DUP1 ISZERO ISZERO DUP1 PUSH2 0x2414 JUMPI JUMPDEST PUSH2 0x234B SWAP1 PUSH2 0x32CF JUMP JUMPDEST PUSH2 0x2378 PUSH2 0x2373 PUSH2 0x236F PUSH2 0x2368 DUP5 PUSH1 0x0 MSTORE PUSH1 0x5 PUSH1 0x20 MSTORE PUSH1 0x40 PUSH1 0x0 KECCAK256 SWAP1 JUMP JUMPDEST SLOAD PUSH1 0xFF AND SWAP1 JUMP JUMPDEST ISZERO SWAP1 JUMP JUMPDEST PUSH2 0x332B JUMP JUMPDEST PUSH2 0x238E PUSH2 0x2385 DUP4 DUP8 PUSH2 0x3BE3 JUMP JUMPDEST MLOAD MLOAD ISZERO ISZERO PUSH2 0x423F JUMP JUMPDEST PUSH2 0x23B8 PUSH2 0x239B DUP4 DUP8 PUSH2 0x3BE3 JUMP JUMPDEST MLOAD PUSH1 0x5 PUSH2 0x23B2 DUP5 PUSH1 0x0 MSTORE PUSH1 0x0 PUSH1 0x20 MSTORE PUSH1 0x40 PUSH1 0x0 KECCAK256 SWAP1 JUMP JUMPDEST ADD PUSH2 0x396D JUMP JUMPDEST TIMESTAMP PUSH1 0x9 PUSH2 0x23CF DUP4 PUSH1 0x0 MSTORE PUSH1 0x0 PUSH1 0x20 MSTORE PUSH1 0x40 PUSH1 0x0 KECCAK256 SWAP1 JUMP JUMPDEST ADD SSTORE PUSH32 0x2515FAFA24747DB25D60FB3F86F82F18E969DEE98607CC863CED46768089B929 PUSH2 0x240B PUSH2 0x23FF DUP5 DUP9 PUSH2 0x3BE3 JUMP JUMPDEST MLOAD DUP7 MLOAD SWAP2 DUP3 SWAP2 DUP3 PUSH2 0xA22 JUMP JUMPDEST SUB SWAP1 LOG2 ADD PUSH2 0x2322 JUMP JUMPDEST POP PUSH1 0x6 SLOAD DUP2 GT ISZERO PUSH2 0x2342 JUMP JUMPDEST POP PUSH1 0x0 DUP1 MLOAD PUSH1 0x20 PUSH2 0x5971 DUP4 CODECOPY DUP2 MLOAD SWAP2 MSTORE SLOAD PUSH1 0x1 PUSH1 0x1 PUSH1 0xA0 SHL SUB AND CALLER EQ PUSH2 0x22F3 JUMP JUMPDEST CALLVALUE PUSH2 0x37C JUMPI PUSH1 0x0 DUP1 PUSH1 0x3 NOT CALLDATASIZE ADD SLT PUSH2 0x1258 JUMPI DUP1 DUP1 MSTORE PUSH1 0x0 DUP1 MLOAD PUSH1 0x20 PUSH2 0x59F1 DUP4 CODECOPY DUP2 MLOAD SWAP2 MSTORE PUSH1 0x20 SWAP1 DUP2 MSTORE PUSH1 0x40 DUP1 DUP4 KECCAK256 CALLER PUSH1 0x0 SWAP1 DUP2 MSTORE SWAP3 MSTORE SWAP1 KECCAK256 SLOAD PUSH1 0xFF AND DUP1 ISZERO PUSH2 0x24DC JUMPI JUMPDEST PUSH2 0x248D SWAP1 PUSH2 0x324B JUMP JUMPDEST PUSH2 0x2495 PUSH2 0x4785 JUMP JUMPDEST PUSH1 0x0 DUP1 MLOAD PUSH1 0x20 PUSH2 0x5A11 DUP4 CODECOPY DUP2 MLOAD SWAP2 MSTORE PUSH1 0x1 PUSH1 0xFF NOT DUP3 SLOAD AND OR SWAP1 SSTORE PUSH32 0x62E78CEA01BEE320CD4E420270B5EA74000D11B0C9F74754EBDBFC544B05A258 PUSH1 0x20 PUSH1 0x40 MLOAD CALLER DUP2 MSTORE LOG1 DUP1 RETURN JUMPDEST POP PUSH1 0x0 DUP1 MLOAD PUSH1 0x20 PUSH2 0x5971 DUP4 CODECOPY DUP2 MLOAD SWAP2 MSTORE SLOAD PUSH1 0x1 PUSH1 0x1 PUSH1 0xA0 SHL SUB AND CALLER EQ PUSH2 0x2484 JUMP JUMPDEST DUP1 SLOAD DUP3 LT ISZERO PUSH2 0x2519 JUMPI PUSH1 0x0 MSTORE PUSH1 0x20 PUSH1 0x0 KECCAK256 SWAP1 PUSH1 0x3 SHL ADD SWAP1 PUSH1 0x0 SWAP1 JUMP JUMPDEST PUSH2 0x1931 JUMP JUMPDEST SWAP5 SWAP3 SWAP4 PUSH2 0x2555 SWAP2 PUSH2 0x2568 SWAP6 PUSH2 0xA33 SWAP11 SWAP9 SWAP5 PUSH2 0x100 SWAP3 DUP10 MSTORE PUSH1 0x1 DUP1 PUSH1 0xA0 SHL SUB AND PUSH1 0x20 DUP10 ADD MSTORE PUSH1 0x40 DUP9 ADD MSTORE DUP1 PUSH1 0x60 DUP9 ADD MSTORE DUP7 ADD SWAP1 PUSH2 0x90E JUMP JUMPDEST SWAP2 PUSH1 0x80 DUP6 ADD MSTORE DUP4 DUP3 SUB PUSH1 0xA0 DUP6 ADD MSTORE PUSH2 0x90E JUMP JUMPDEST SWAP3 ISZERO ISZERO PUSH1 0xC0 DUP3 ADD MSTORE PUSH1 0xE0 DUP2 DUP5 SUB SWAP2 ADD MSTORE PUSH2 0x90E JUMP JUMPDEST CALLVALUE PUSH2 0x37C JUMPI PUSH1 0x40 CALLDATASIZE PUSH1 0x3 NOT ADD SLT PUSH2 0x37C JUMPI PUSH1 0x24 CALLDATALOAD PUSH1 0x4 CALLDATALOAD PUSH1 0x0 MSTORE PUSH1 0x3 PUSH1 0x20 MSTORE PUSH1 0x40 PUSH1 0x0 KECCAK256 SWAP1 DUP2 SLOAD DUP2 LT ISZERO PUSH2 0x37C JUMPI PUSH2 0x25B4 SWAP2 PUSH2 0x24FD JUMP JUMPDEST POP DUP1 SLOAD PUSH2 0xA1E PUSH1 0x1 DUP1 PUSH1 0xA0 SHL SUB PUSH1 0x1 DUP5 ADD SLOAD AND SWAP3 PUSH1 0x2 DUP2 ADD SLOAD SWAP1 PUSH2 0x25DA PUSH1 0x3 DUP3 ADD PUSH2 0x846 JUMP JUMPDEST PUSH1 0x4 DUP3 ADD SLOAD PUSH2 0x25EB PUSH1 0x5 DUP5 ADD PUSH2 0x846 JUMP JUMPDEST SWAP2 PUSH2 0x2600 PUSH1 0x7 PUSH1 0xFF PUSH1 0x6 DUP8 ADD SLOAD AND SWAP6 ADD PUSH2 0x846 JUMP JUMPDEST SWAP5 PUSH1 0x40 MLOAD SWAP9 DUP10 SWAP9 DUP10 PUSH2 0x251E JUMP JUMPDEST CALLVALUE PUSH2 0x37C JUMPI PUSH1 0x0 CALLDATASIZE PUSH1 0x3 NOT ADD SLT PUSH2 0x37C JUMPI PUSH1 0x0 DUP1 MLOAD PUSH1 0x20 PUSH2 0x5971 DUP4 CODECOPY DUP2 MLOAD SWAP2 MSTORE SLOAD PUSH1 0x40 MLOAD PUSH1 0x1 PUSH1 0x1 PUSH1 0xA0 SHL SUB SWAP1 SWAP2 AND DUP2 MSTORE PUSH1 0x20 SWAP1 RETURN JUMPDEST CALLVALUE PUSH2 0x37C JUMPI PUSH1 0x40 CALLDATASIZE PUSH1 0x3 NOT ADD SLT PUSH2 0x37C JUMPI PUSH1 0x20 PUSH1 0xFF PUSH2 0x2696 PUSH2 0x2663 PUSH2 0x381 JUMP JUMPDEST PUSH1 0x4 CALLDATALOAD PUSH1 0x0 MSTORE PUSH1 0x0 DUP1 MLOAD PUSH1 0x20 PUSH2 0x59F1 DUP4 CODECOPY DUP2 MLOAD SWAP2 MSTORE DUP5 MSTORE PUSH1 0x40 PUSH1 0x0 KECCAK256 SWAP1 PUSH1 0x1 DUP1 PUSH1 0xA0 SHL SUB AND PUSH1 0x0 MSTORE PUSH1 0x20 MSTORE PUSH1 0x40 PUSH1 0x0 KECCAK256 SWAP1 JUMP JUMPDEST SLOAD AND PUSH1 0x40 MLOAD SWAP1 ISZERO ISZERO DUP2 MSTORE RETURN JUMPDEST CALLVALUE PUSH2 0x37C JUMPI PUSH1 0x20 CALLDATASIZE PUSH1 0x3 NOT ADD SLT PUSH2 0x37C JUMPI CALLER PUSH1 0x0 SWAP1 DUP2 MSTORE PUSH1 0x0 DUP1 MLOAD PUSH1 0x20 PUSH2 0x59D1 DUP4 CODECOPY DUP2 MLOAD SWAP2 MSTORE PUSH1 0x20 MSTORE PUSH1 0x40 DUP2 KECCAK256 SLOAD PUSH1 0x4 CALLDATALOAD SWAP1 PUSH1 0xFF AND DUP1 ISZERO PUSH2 0x2795 JUMPI JUMPDEST PUSH2 0x26E7 SWAP1 PUSH2 0x324B JUMP JUMPDEST PUSH2 0x26EF PUSH2 0x4785 JUMP JUMPDEST DUP1 ISZERO ISZERO DUP1 PUSH2 0x2789 JUMPI JUMPDEST PUSH2 0x2701 SWAP1 PUSH2 0x32CF JUMP JUMPDEST DUP1 DUP3 MSTORE PUSH1 0x5 PUSH1 0x20 MSTORE PUSH2 0x271A PUSH1 0xFF PUSH1 0x40 DUP5 KECCAK256 SLOAD AND ISZERO PUSH2 0x332B JUMP JUMPDEST DUP1 DUP3 MSTORE DUP2 PUSH1 0x20 MSTORE PUSH2 0x2760 DUP2 PUSH1 0x40 DUP5 KECCAK256 PUSH1 0xA PUSH1 0x1 DUP1 PUSH1 0xA0 SHL SUB PUSH1 0x6 DUP4 ADD SLOAD AND SWAP2 ADD PUSH1 0xFF NOT DUP2 SLOAD AND SWAP1 SSTORE PUSH1 0x5 PUSH1 0x20 MSTORE PUSH2 0x275B PUSH1 0x40 DUP7 KECCAK256 PUSH1 0x1 PUSH1 0xFF NOT DUP3 SLOAD AND OR SWAP1 SSTORE JUMP JUMPDEST PUSH2 0x4E5A JUMP JUMPDEST CALLER SWAP1 PUSH32 0x639FD397B18E31E94B1CB8D126890A9123D56692F1D9CD3F5D55B37642F0E577 DUP4 DUP1 LOG3 DUP1 RETURN JUMPDEST POP PUSH1 0x6 SLOAD DUP2 GT ISZERO PUSH2 0x26F8 JUMP JUMPDEST POP PUSH1 0x0 DUP1 MLOAD PUSH1 0x20 PUSH2 0x5971 DUP4 CODECOPY DUP2 MLOAD SWAP2 MSTORE SLOAD PUSH1 0x1 PUSH1 0x1 PUSH1 0xA0 SHL SUB AND CALLER EQ PUSH2 0x26DE JUMP JUMPDEST CALLVALUE PUSH2 0x37C JUMPI PUSH1 0x40 CALLDATASIZE PUSH1 0x3 NOT ADD SLT PUSH2 0x37C JUMPI PUSH2 0x27CF PUSH2 0x366 JUMP JUMPDEST PUSH1 0x24 CALLDATALOAD PUSH1 0x1 PUSH1 0x1 PUSH1 0x40 SHL SUB DUP2 GT PUSH2 0x37C JUMPI PUSH2 0x27EE SWAP1 CALLDATASIZE SWAP1 PUSH1 0x4 ADD PUSH2 0xEAF JUMP JUMPDEST CALLER PUSH1 0x0 SWAP1 DUP2 MSTORE PUSH1 0x0 DUP1 MLOAD PUSH1 0x20 PUSH2 0x5991 DUP4 CODECOPY DUP2 MLOAD SWAP2 MSTORE PUSH1 0x20 MSTORE PUSH1 0x40 DUP2 KECCAK256 SLOAD SWAP1 SWAP3 SWAP2 SWAP1 PUSH1 0xFF AND DUP1 ISZERO PUSH2 0x2903 JUMPI JUMPDEST PUSH2 0x2822 SWAP1 PUSH2 0x324B JUMP JUMPDEST PUSH1 0x1 PUSH1 0x1 PUSH1 0xA0 SHL SUB DUP3 AND DUP1 DUP5 MSTORE PUSH1 0x2 PUSH1 0x20 MSTORE PUSH1 0x40 DUP5 KECCAK256 PUSH1 0x4 ADD SLOAD SWAP1 SWAP3 SWAP1 PUSH1 0xFF AND ISZERO PUSH2 0x28AE JUMPI PUSH32 0x81EA0B52FACB7CAE099D66560C7980B7E775BFB1CB54C8FE7792C672965CF71 SWAP2 PUSH2 0x28A1 DUP3 PUSH2 0x289C PUSH1 0x4 PUSH2 0x2891 PUSH2 0x1DCE SWAP7 PUSH1 0x1 DUP1 PUSH1 0xA0 SHL SUB AND PUSH1 0x0 MSTORE PUSH1 0x2 PUSH1 0x20 MSTORE PUSH1 0x40 PUSH1 0x0 KECCAK256 SWAP1 JUMP JUMPDEST ADD DUP1 SLOAD PUSH1 0xFF NOT AND SWAP1 SSTORE JUMP JUMPDEST PUSH2 0x4CEC JUMP JUMPDEST POP PUSH1 0x40 MLOAD SWAP2 DUP3 SWAP2 DUP3 PUSH2 0xA22 JUMP JUMPDEST PUSH1 0x40 MLOAD PUSH3 0x461BCD PUSH1 0xE5 SHL DUP2 MSTORE PUSH1 0x20 PUSH1 0x4 DUP3 ADD MSTORE PUSH1 0x27 PUSH1 0x24 DUP3 ADD MSTORE PUSH32 0x566572616C69784D617374657252656769737472793A2073746F7265206E6F74 PUSH1 0x44 DUP3 ADD MSTORE PUSH7 0x20616374697665 PUSH1 0xC8 SHL PUSH1 0x64 DUP3 ADD MSTORE PUSH1 0x84 SWAP1 REVERT JUMPDEST POP PUSH1 0x0 DUP1 MLOAD PUSH1 0x20 PUSH2 0x5971 DUP4 CODECOPY DUP2 MLOAD SWAP2 MSTORE SLOAD PUSH1 0x1 PUSH1 0x1 PUSH1 0xA0 SHL SUB AND CALLER EQ PUSH2 0x2819 JUMP JUMPDEST CALLVALUE PUSH2 0x37C JUMPI PUSH1 0x0 CALLDATASIZE PUSH1 0x3 NOT ADD SLT PUSH2 0x37C JUMPI PUSH1 0x20 PUSH1 0x40 MLOAD PUSH1 0x0 DUP2 MSTORE RETURN JUMPDEST CALLVALUE PUSH2 0x37C JUMPI PUSH2 0x294E CALLDATASIZE PUSH2 0x12C3 JUMP JUMPDEST PUSH1 0x1 PUSH1 0x1 PUSH1 0xA0 SHL SUB DUP3 AND SWAP2 DUP3 ISZERO PUSH2 0x29A0 JUMPI DUP2 PUSH2 0x13B9 PUSH2 0x2970 SWAP3 PUSH2 0x100A CALLER PUSH2 0x729 JUMP JUMPDEST PUSH1 0x40 MLOAD SWAP1 ISZERO ISZERO DUP2 MSTORE PUSH32 0x17307EAB39AB6107E8899845AD3D59BD9653F200F220920489CA2B5937696C31 PUSH1 0x20 CALLER SWAP3 LOG3 STOP JUMPDEST PUSH1 0x40 MLOAD PUSH3 0xCED3E1 PUSH1 0xE8 SHL DUP2 MSTORE PUSH1 0x0 PUSH1 0x4 DUP3 ADD MSTORE PUSH1 0x24 SWAP1 REVERT JUMPDEST CALLVALUE PUSH2 0x37C JUMPI PUSH1 0x0 CALLDATASIZE PUSH1 0x3 NOT ADD SLT PUSH2 0x37C JUMPI PUSH1 0x20 PUSH1 0x40 MLOAD PUSH32 0x8F831C56B3D9BF5E541F4E1B3B7F898CDB4B80BA7A4AF71F8797C706FD21674E DUP2 MSTORE RETURN JUMPDEST PUSH1 0x40 MLOAD SWAP1 PUSH2 0x2A00 DUP3 PUSH2 0x7EF JUMP JUMPDEST PUSH1 0x0 DUP3 MSTORE JUMP JUMPDEST CALLVALUE PUSH2 0x37C JUMPI PUSH1 0x0 CALLDATASIZE PUSH1 0x3 NOT ADD SLT PUSH2 0x37C JUMPI PUSH2 0xA1E PUSH1 0x40 MLOAD PUSH2 0x2A26 DUP2 PUSH2 0x80A JUMP JUMPDEST PUSH1 0x5 DUP2 MSTORE PUSH5 0x352E302E3 PUSH1 0xDC SHL PUSH1 0x20 DUP3 ADD MSTORE PUSH1 0x40 MLOAD SWAP2 DUP3 SWAP2 PUSH1 0x20 DUP4 MSTORE PUSH1 0x20 DUP4 ADD SWAP1 PUSH2 0x90E JUMP JUMPDEST CALLVALUE PUSH2 0x37C JUMPI PUSH1 0x0 CALLDATASIZE PUSH1 0x3 NOT ADD SLT PUSH2 0x37C JUMPI PUSH1 0x20 PUSH1 0x40 MLOAD PUSH32 0x458E7120010273A45C50A429C988A509ADEB4407885607D9797DA91C85E8D706 DUP2 MSTORE RETURN JUMPDEST CALLVALUE PUSH2 0x37C JUMPI PUSH1 0x0 CALLDATASIZE PUSH1 0x3 NOT ADD SLT PUSH2 0x37C JUMPI PUSH1 0x20 PUSH1 0x40 MLOAD PUSH32 0x9F2DF0FED2C77648DE5860A4CC508CD0818C85B8B8A1AB4CEEEF8D981C8956A6 DUP2 MSTORE RETURN JUMPDEST CALLVALUE PUSH2 0x37C JUMPI PUSH1 0x40 CALLDATASIZE PUSH1 0x3 NOT ADD SLT PUSH2 0x37C JUMPI PUSH2 0xF9C PUSH1 0x4 CALLDATALOAD PUSH2 0x2AE1 PUSH2 0x381 JUMP JUMPDEST SWAP1 DUP1 PUSH1 0x0 MSTORE PUSH1 0x0 DUP1 MLOAD PUSH1 0x20 PUSH2 0x59F1 DUP4 CODECOPY DUP2 MLOAD SWAP2 MSTORE PUSH1 0x20 MSTORE PUSH2 0x2B09 PUSH1 0x1 PUSH1 0x40 PUSH1 0x0 KECCAK256 ADD SLOAD PUSH2 0x4933 JUMP JUMPDEST PUSH2 0x4DBD JUMP JUMPDEST CALLVALUE PUSH2 0x37C JUMPI PUSH1 0x0 DUP1 PUSH1 0x3 NOT CALLDATASIZE ADD SLT PUSH2 0x1258 JUMPI PUSH1 0x40 MLOAD DUP1 SWAP2 PUSH1 0x7 SLOAD SWAP1 DUP2 DUP4 MSTORE PUSH1 0x20 DUP1 SWAP4 ADD DUP1 SWAP3 PUSH1 0x7 DUP4 MSTORE PUSH32 0xA66CC928B5EDB82AF9BD49922954155AB7B0942694BEA4CE44661D9A8736C688 SWAP1 DUP4 JUMPDEST DUP2 DUP2 LT PUSH2 0x2BB8 JUMPI POP POP POP DUP5 PUSH2 0x2B71 SWAP2 SUB DUP6 PUSH2 0x825 JUMP JUMPDEST PUSH1 0x40 MLOAD SWAP4 DUP4 DUP6 SWAP5 DUP6 ADD SWAP2 DUP2 DUP7 MSTORE MLOAD DUP1 SWAP3 MSTORE PUSH1 0x40 DUP6 ADD SWAP4 SWAP3 JUMPDEST DUP3 DUP2 LT PUSH2 0x2B98 JUMPI POP POP POP POP SUB SWAP1 RETURN JUMPDEST DUP4 MLOAD PUSH1 0x1 PUSH1 0x1 PUSH1 0xA0 SHL SUB AND DUP6 MSTORE DUP7 SWAP6 POP SWAP4 DUP2 ADD SWAP4 SWAP3 DUP2 ADD SWAP3 PUSH1 0x1 ADD PUSH2 0x2B89 JUMP JUMPDEST DUP3 SLOAD PUSH1 0x1 PUSH1 0x1 PUSH1 0xA0 SHL SUB AND DUP5 MSTORE SWAP3 DUP7 ADD SWAP3 PUSH1 0x1 SWAP3 DUP4 ADD SWAP3 ADD PUSH2 0x2B5B JUMP JUMPDEST CALLVALUE PUSH2 0x37C JUMPI PUSH1 0x20 CALLDATASIZE PUSH1 0x3 NOT ADD SLT PUSH2 0x37C JUMPI PUSH1 0x1 PUSH1 0x1 PUSH1 0xA0 SHL SUB PUSH2 0x2BF6 PUSH2 0x366 JUMP JUMPDEST AND PUSH1 0x0 MSTORE PUSH1 0x4 PUSH1 0x20 MSTORE PUSH1 0x20 PUSH1 0xFF PUSH1 0x40 PUSH1 0x0 KECCAK256 SLOAD AND PUSH1 0x40 MLOAD SWAP1 ISZERO ISZERO DUP2 MSTORE RETURN JUMPDEST CALLVALUE PUSH2 0x37C JUMPI PUSH1 0xA0 CALLDATASIZE PUSH1 0x3 NOT ADD SLT PUSH2 0x37C JUMPI PUSH1 0x1 PUSH1 0x1 PUSH1 0x40 SHL SUB PUSH1 0x24 CALLDATALOAD PUSH1 0x4 CALLDATALOAD PUSH1 0x44 CALLDATALOAD DUP4 DUP2 GT PUSH2 0x37C JUMPI PUSH2 0x2C4B SWAP1 CALLDATASIZE SWAP1 PUSH1 0x4 ADD PUSH2 0xEAF JUMP JUMPDEST PUSH1 0x64 CALLDATALOAD DUP5 DUP2 GT PUSH2 0x37C JUMPI PUSH2 0x2C63 SWAP1 CALLDATASIZE SWAP1 PUSH1 0x4 ADD PUSH2 0xEAF JUMP JUMPDEST SWAP4 PUSH1 0x84 CALLDATALOAD SWAP1 DUP2 GT PUSH2 0x37C JUMPI PUSH32 0x181BB78E3B1B1C153D2D9F944D8BD6F6198AAFD00F492A75F347987DC4669721 SWAP2 PUSH2 0x2D88 PUSH2 0x2CA4 PUSH2 0x2DE2 SWAP4 CALLDATASIZE SWAP1 PUSH1 0x4 ADD PUSH2 0xEAF JUMP JUMPDEST CALLER PUSH1 0x0 SWAP1 DUP2 MSTORE PUSH32 0x5FEA0257C15A54C2A392CAE6EEFE907A9F0ADBE261851B7E7F874AEC8AF845A2 PUSH1 0x20 MSTORE PUSH1 0x40 DUP2 KECCAK256 SLOAD SWAP1 SWAP9 SWAP2 SWAP1 PUSH1 0xFF AND DUP1 ISZERO PUSH2 0x2DF4 JUMPI JUMPDEST PUSH2 0x2CEA SWAP1 PUSH2 0x324B JUMP JUMPDEST PUSH2 0x2CF2 PUSH2 0x4785 JUMP JUMPDEST DUP7 ISZERO ISZERO DUP1 PUSH2 0x2DE8 JUMPI JUMPDEST PUSH2 0x2D04 SWAP1 PUSH2 0x32CF JUMP JUMPDEST DUP7 DUP10 MSTORE PUSH1 0x5 PUSH1 0x20 MSTORE PUSH2 0x2D1D PUSH1 0xFF PUSH1 0x40 DUP12 KECCAK256 SLOAD AND ISZERO PUSH2 0x332B JUMP JUMPDEST PUSH2 0x2D28 DUP9 ISZERO ISZERO PUSH2 0x439B JUMP JUMPDEST PUSH2 0x2D34 DUP5 MLOAD ISZERO ISZERO PUSH2 0x440C JUMP JUMPDEST PUSH2 0x2D3C PUSH2 0xDE3 JUMP JUMPDEST DUP8 DUP2 MSTORE CALLER PUSH1 0x20 DUP3 ADD MSTORE SWAP2 DUP9 PUSH1 0x40 DUP5 ADD MSTORE DUP5 PUSH1 0x60 DUP5 ADD MSTORE TIMESTAMP PUSH1 0x80 DUP5 ADD MSTORE PUSH1 0xA0 DUP4 ADD MSTORE PUSH2 0x2D6A PUSH1 0xC0 DUP4 ADD PUSH1 0x1 SWAP1 MSTORE JUMP JUMPDEST PUSH1 0xE0 DUP3 ADD MSTORE PUSH2 0x2D83 DUP7 PUSH1 0x0 MSTORE PUSH1 0x3 PUSH1 0x20 MSTORE PUSH1 0x40 PUSH1 0x0 KECCAK256 SWAP1 JUMP JUMPDEST PUSH2 0x4470 JUMP JUMPDEST DUP5 PUSH1 0xB PUSH2 0x2D9F DUP7 PUSH1 0x0 MSTORE PUSH1 0x0 PUSH1 0x20 MSTORE PUSH1 0x40 PUSH1 0x0 KECCAK256 SWAP1 JUMP JUMPDEST ADD SSTORE PUSH2 0x2DBB DUP2 PUSH1 0xC PUSH2 0x23B2 DUP8 PUSH1 0x0 MSTORE PUSH1 0x0 PUSH1 0x20 MSTORE PUSH1 0x40 PUSH1 0x0 KECCAK256 SWAP1 JUMP JUMPDEST TIMESTAMP PUSH1 0x9 PUSH2 0x2DD2 DUP7 PUSH1 0x0 MSTORE PUSH1 0x0 PUSH1 0x20 MSTORE PUSH1 0x40 PUSH1 0x0 KECCAK256 SWAP1 JUMP JUMPDEST ADD SSTORE PUSH1 0x40 MLOAD SWAP2 DUP3 SWAP2 CALLER SWAP7 DUP4 PUSH2 0x452E JUMP JUMPDEST SUB SWAP1 LOG3 DUP1 RETURN JUMPDEST POP PUSH1 0x6 SLOAD DUP8 GT ISZERO PUSH2 0x2CFB JUMP JUMPDEST POP PUSH1 0x0 DUP1 MLOAD PUSH1 0x20 PUSH2 0x5971 DUP4 CODECOPY DUP2 MLOAD SWAP2 MSTORE SLOAD PUSH1 0x1 PUSH1 0x1 PUSH1 0xA0 SHL SUB AND CALLER EQ PUSH2 0x2CE1 JUMP JUMPDEST CALLVALUE PUSH2 0x37C JUMPI PUSH1 0x40 CALLDATASIZE PUSH1 0x3 NOT ADD SLT PUSH2 0x37C JUMPI PUSH1 0x20 PUSH1 0xFF PUSH2 0x2696 PUSH2 0x2E35 PUSH2 0x366 JUMP JUMPDEST PUSH2 0x100A PUSH2 0x2E40 PUSH2 0x381 JUMP JUMPDEST SWAP2 PUSH2 0x729 JUMP JUMPDEST CALLVALUE PUSH2 0x37C JUMPI PUSH1 0xA0 CALLDATASIZE PUSH1 0x3 NOT ADD SLT PUSH2 0x37C JUMPI PUSH2 0x2E5F PUSH2 0x366 JUMP JUMPDEST PUSH2 0x2E67 PUSH2 0x381 JUMP JUMPDEST PUSH1 0x84 CALLDATALOAD PUSH1 0x1 PUSH1 0x1 PUSH1 0x40 SHL SUB DUP2 GT PUSH2 0x37C JUMPI PUSH2 0x2E86 SWAP1 CALLDATASIZE SWAP1 PUSH1 0x4 ADD PUSH2 0xEAF JUMP JUMPDEST SWAP1 PUSH1 0x1 PUSH1 0x1 PUSH1 0xA0 SHL SUB DUP4 AND CALLER EQ ISZERO DUP1 PUSH2 0x2ED6 JUMPI JUMPDEST PUSH2 0x2EAF JUMPI PUSH2 0xF9C SWAP3 PUSH1 0x64 CALLDATALOAD SWAP2 PUSH1 0x44 CALLDATALOAD SWAP2 PUSH2 0x4831 JUMP JUMPDEST PUSH1 0x40 MLOAD PUSH4 0x711BEC91 PUSH1 0xE1 SHL DUP2 MSTORE CALLER PUSH1 0x4 DUP3 ADD MSTORE PUSH1 0x1 PUSH1 0x1 PUSH1 0xA0 SHL SUB DUP5 AND PUSH1 0x24 DUP3 ADD MSTORE PUSH1 0x44 SWAP1 REVERT JUMPDEST POP PUSH1 0xFF PUSH2 0x2EE6 CALLER PUSH2 0x100A DUP7 PUSH2 0x729 JUMP JUMPDEST SLOAD AND ISZERO PUSH2 0x2E9A JUMP JUMPDEST CALLVALUE PUSH2 0x37C JUMPI PUSH1 0x20 CALLDATASIZE PUSH1 0x3 NOT ADD SLT PUSH2 0x37C JUMPI PUSH2 0xF9C PUSH2 0x2F0A PUSH2 0x366 JUMP JUMPDEST PUSH2 0x2F12 PUSH2 0x4E21 JUMP JUMPDEST PUSH2 0x4545 JUMP JUMPDEST CALLVALUE PUSH2 0x37C JUMPI PUSH2 0x2F25 CALLDATASIZE PUSH2 0x125B JUMP JUMPDEST PUSH1 0x0 DUP1 MLOAD PUSH1 0x20 PUSH2 0x5A51 DUP4 CODECOPY DUP2 MLOAD SWAP2 MSTORE SLOAD SWAP1 PUSH1 0x1 PUSH1 0x1 PUSH1 0x40 SHL SUB PUSH1 0xFF DUP4 PUSH1 0x40 SHR AND ISZERO SWAP3 AND DUP1 ISZERO SWAP1 DUP2 PUSH2 0x3030 JUMPI JUMPDEST PUSH1 0x1 EQ SWAP1 DUP2 PUSH2 0x3026 JUMPI JUMPDEST ISZERO SWAP1 DUP2 PUSH2 0x301D JUMPI JUMPDEST POP PUSH2 0x300B JUMPI PUSH1 0x0 DUP1 MLOAD PUSH1 0x20 PUSH2 0x5A51 DUP4 CODECOPY DUP2 MLOAD SWAP2 MSTORE DUP1 SLOAD PUSH8 0xFFFFFFFFFFFFFFFF NOT AND PUSH1 0x1 OR SWAP1 SSTORE PUSH2 0x2F97 SWAP1 DUP3 PUSH2 0x2FE6 JUMPI PUSH2 0x45B9 JUMP JUMPDEST PUSH2 0x2F9D JUMPI STOP JUMPDEST PUSH1 0x0 DUP1 MLOAD PUSH1 0x20 PUSH2 0x5A51 DUP4 CODECOPY DUP2 MLOAD SWAP2 MSTORE DUP1 SLOAD PUSH1 0xFF PUSH1 0x40 SHL NOT AND SWAP1 SSTORE PUSH1 0x40 MLOAD PUSH1 0x1 DUP2 MSTORE PUSH32 0xC7F505B2F371AE2175EE4913F4499E1F2633A7B5936321EED1CDAEB6115181D2 SWAP1 PUSH1 0x20 SWAP1 LOG1 STOP JUMPDEST PUSH1 0x0 DUP1 MLOAD PUSH1 0x20 PUSH2 0x5A51 DUP4 CODECOPY DUP2 MLOAD SWAP2 MSTORE DUP1 SLOAD PUSH1 0xFF PUSH1 0x40 SHL NOT AND PUSH1 0x1 PUSH1 0x40 SHL OR SWAP1 SSTORE PUSH2 0x45B9 JUMP JUMPDEST PUSH1 0x40 MLOAD PUSH4 0xF92EE8A9 PUSH1 0xE0 SHL DUP2 MSTORE PUSH1 0x4 SWAP1 REVERT JUMPDEST SWAP1 POP ISZERO CODESIZE PUSH2 0x2F63 JUMP JUMPDEST ADDRESS EXTCODESIZE ISZERO SWAP2 POP PUSH2 0x2F5B JUMP JUMPDEST DUP4 SWAP2 POP PUSH2 0x2F51 JUMP JUMPDEST SWAP1 DUP1 DUP3 MLOAD SWAP1 DUP2 DUP2 MSTORE PUSH1 0x20 DUP1 SWAP2 ADD SWAP3 PUSH1 0x20 DUP1 DUP5 PUSH1 0x5 SHL DUP4 ADD ADD SWAP6 ADD SWAP4 PUSH1 0x0 SWAP2 JUMPDEST DUP5 DUP4 LT PUSH2 0x3067 JUMPI POP POP POP POP POP POP SWAP1 JUMP JUMPDEST SWAP1 SWAP2 SWAP3 SWAP4 SWAP5 SWAP6 DUP5 DUP1 PUSH2 0x3085 PUSH1 0x1 SWAP4 PUSH1 0x1F NOT DUP7 DUP3 SUB ADD DUP8 MSTORE DUP11 MLOAD PUSH2 0x90E JUMP JUMPDEST SWAP9 ADD SWAP4 ADD SWAP4 ADD SWAP2 SWAP5 SWAP4 SWAP3 SWAP1 PUSH2 0x3057 JUMP JUMPDEST PUSH1 0x20 DUP1 DUP3 MSTORE DUP3 MLOAD PUSH1 0x1 PUSH1 0x1 PUSH1 0xA0 SHL SUB AND SWAP1 DUP3 ADD MSTORE PUSH2 0xA33 SWAP2 SWAP1 PUSH1 0x20 DUP3 ADD MLOAD SWAP1 PUSH2 0x30CC PUSH2 0x120 SWAP3 DUP4 PUSH1 0x40 DUP5 ADD MSTORE PUSH2 0x140 DUP4 ADD SWAP1 PUSH2 0x90E JUMP JUMPDEST SWAP2 PUSH2 0x3100 PUSH2 0x30EC PUSH1 0x40 DUP7 ADD MLOAD SWAP5 PUSH1 0x1F NOT SWAP6 DUP7 DUP7 DUP4 SUB ADD PUSH1 0x60 DUP8 ADD MSTORE PUSH2 0x90E JUMP JUMPDEST PUSH1 0x60 DUP7 ADD MLOAD DUP6 DUP6 DUP4 SUB ADD PUSH1 0x80 DUP7 ADD MSTORE PUSH2 0x90E JUMP JUMPDEST PUSH1 0x80 DUP6 ADD MLOAD ISZERO ISZERO PUSH1 0xA0 DUP5 ADD MSTORE SWAP4 PUSH1 0xA0 DUP2 ADD MLOAD ISZERO ISZERO PUSH1 0xC0 DUP5 ADD MSTORE PUSH1 0xC0 DUP2 ADD MLOAD PUSH1 0xE0 DUP5 ADD MSTORE PUSH1 0xE0 DUP2 ADD MLOAD SWAP1 PUSH2 0x100 SWAP2 DUP3 DUP6 ADD MSTORE ADD MLOAD SWAP3 DUP3 DUP6 SUB ADD SWAP2 ADD MSTORE PUSH2 0x3038 JUMP JUMPDEST CALLVALUE PUSH2 0x37C JUMPI PUSH1 0x20 CALLDATASIZE PUSH1 0x3 NOT ADD SLT PUSH2 0x37C JUMPI PUSH2 0xA1E PUSH2 0x315C PUSH2 0x366 JUMP JUMPDEST PUSH1 0x40 MLOAD PUSH2 0x3168 DUP2 PUSH2 0x7D3 JUMP JUMPDEST PUSH2 0x323B PUSH1 0x7 PUSH1 0x40 PUSH1 0x0 DUP1 DUP6 MSTORE PUSH1 0x60 SWAP6 DUP7 PUSH1 0x20 DUP8 ADD MSTORE DUP7 DUP4 DUP8 ADD MSTORE DUP7 DUP1 DUP8 ADD MSTORE DUP2 PUSH1 0x80 DUP8 ADD MSTORE DUP2 PUSH1 0xA0 DUP8 ADD MSTORE DUP2 PUSH1 0xC0 DUP8 ADD MSTORE DUP2 PUSH1 0xE0 DUP8 ADD MSTORE DUP7 PUSH2 0x100 DUP1 SWAP8 ADD MSTORE PUSH1 0x1 DUP1 PUSH1 0xA0 SHL SUB AND DUP2 MSTORE PUSH1 0x2 PUSH1 0x20 MSTORE KECCAK256 PUSH2 0x31BF PUSH2 0xE10 JUMP JUMPDEST DUP2 SLOAD PUSH1 0x1 PUSH1 0x1 PUSH1 0xA0 SHL SUB AND DUP2 MSTORE SWAP5 PUSH2 0x31D9 PUSH1 0x1 DUP4 ADD PUSH2 0x846 JUMP JUMPDEST PUSH1 0x20 DUP8 ADD MSTORE PUSH2 0x31EA PUSH1 0x2 DUP4 ADD PUSH2 0x846 JUMP JUMPDEST PUSH1 0x40 DUP8 ADD MSTORE PUSH2 0x31FB PUSH1 0x3 DUP4 ADD PUSH2 0x846 JUMP JUMPDEST SWAP1 DUP7 ADD MSTORE PUSH1 0x4 DUP2 ADD SLOAD PUSH1 0xFF DUP2 DUP2 AND ISZERO ISZERO PUSH1 0x80 DUP9 ADD MSTORE PUSH2 0x3221 SWAP2 PUSH1 0x8 SHR AND ISZERO ISZERO PUSH1 0xA0 DUP8 ADD MSTORE JUMP JUMPDEST PUSH1 0x5 DUP2 ADD SLOAD PUSH1 0xC0 DUP7 ADD MSTORE PUSH1 0x6 DUP2 ADD SLOAD PUSH1 0xE0 DUP7 ADD MSTORE ADD PUSH2 0x4730 JUMP JUMPDEST SWAP1 DUP3 ADD MSTORE PUSH1 0x40 MLOAD SWAP2 DUP3 SWAP2 DUP3 PUSH2 0x3095 JUMP JUMPDEST ISZERO PUSH2 0x3252 JUMPI JUMP JUMPDEST PUSH1 0x40 MLOAD PUSH3 0x461BCD PUSH1 0xE5 SHL DUP2 MSTORE PUSH1 0x20 PUSH1 0x4 DUP3 ADD MSTORE PUSH1 0x49 PUSH1 0x24 DUP3 ADD MSTORE PUSH32 0x566572616C69784D617374657252656769737472793A2063616C6C657220646F PUSH1 0x44 DUP3 ADD MSTORE PUSH32 0x6573206E6F74206861766520726571756972656420726F6C65206F7220697320 PUSH1 0x64 DUP3 ADD MSTORE PUSH9 0x3737BA1037BBB732B9 PUSH1 0xB9 SHL PUSH1 0x84 DUP3 ADD MSTORE PUSH1 0xA4 SWAP1 REVERT JUMPDEST ISZERO PUSH2 0x32D6 JUMPI JUMP JUMPDEST PUSH1 0x40 MLOAD PUSH3 0x461BCD PUSH1 0xE5 SHL DUP2 MSTORE PUSH1 0x20 PUSH1 0x4 DUP3 ADD MSTORE PUSH1 0x27 PUSH1 0x24 DUP3 ADD MSTORE PUSH32 0x566572616C69784D617374657252656769737472793A20696E76616C69642074 PUSH1 0x44 DUP3 ADD MSTORE PUSH7 0x1BDAD95B881251 PUSH1 0xCA SHL PUSH1 0x64 DUP3 ADD MSTORE PUSH1 0x84 SWAP1 REVERT JUMPDEST ISZERO PUSH2 0x3332 JUMPI JUMP JUMPDEST PUSH1 0x40 MLOAD PUSH3 0x461BCD PUSH1 0xE5 SHL DUP2 MSTORE PUSH1 0x20 PUSH1 0x4 DUP3 ADD MSTORE PUSH1 0x2C PUSH1 0x24 DUP3 ADD MSTORE PUSH32 0x566572616C69784D617374657252656769737472793A20746F6B656E20686173 PUSH1 0x44 DUP3 ADD MSTORE PUSH12 0x81899595B88189D5C9B9959 PUSH1 0xA2 SHL PUSH1 0x64 DUP3 ADD MSTORE PUSH1 0x84 SWAP1 REVERT JUMPDEST ISZERO PUSH2 0x3393 JUMPI JUMP JUMPDEST PUSH1 0x40 MLOAD PUSH3 0x461BCD PUSH1 0xE5 SHL DUP2 MSTORE PUSH1 0x20 PUSH1 0x4 DUP3 ADD MSTORE PUSH1 0x2D PUSH1 0x24 DUP3 ADD MSTORE PUSH32 0x566572616C69784D617374657252656769737472793A20616464726573732069 PUSH1 0x44 DUP3 ADD MSTORE PUSH13 0x1CC8189B1858DADB1A5CDD1959 PUSH1 0x9A SHL PUSH1 0x64 DUP3 ADD MSTORE PUSH1 0x84 SWAP1 REVERT JUMPDEST ISZERO PUSH2 0x33F5 JUMPI JUMP JUMPDEST PUSH1 0x40 MLOAD PUSH3 0x461BCD PUSH1 0xE5 SHL DUP2 MSTORE PUSH1 0x20 PUSH1 0x4 DUP3 ADD MSTORE PUSH1 0x36 PUSH1 0x24 DUP3 ADD MSTORE PUSH32 0x566572616C69784D617374657252656769737472793A20636572746966696361 PUSH1 0x44 DUP3 ADD MSTORE PUSH22 0x7465206973206E6F74207472616E7366657261626C65 PUSH1 0x50 SHL PUSH1 0x64 DUP3 ADD MSTORE PUSH1 0x84 SWAP1 REVERT JUMPDEST ISZERO PUSH2 0x3460 JUMPI JUMP JUMPDEST PUSH1 0x40 MLOAD PUSH3 0x461BCD PUSH1 0xE5 SHL DUP2 MSTORE PUSH1 0x20 PUSH1 0x4 DUP3 ADD MSTORE PUSH1 0x3D PUSH1 0x24 DUP3 ADD MSTORE PUSH32 0x566572616C69784D617374657252656769737472793A206E6577206F776E6572 PUSH1 0x44 DUP3 ADD MSTORE PUSH32 0x206973207468652073616D652061732063757272656E74206F776E6572000000 PUSH1 0x64 DUP3 ADD MSTORE PUSH1 0x84 SWAP1 REVERT JUMPDEST CALLER PUSH1 0x0 SWAP1 DUP2 MSTORE PUSH1 0x0 DUP1 MLOAD PUSH1 0x20 PUSH2 0x59D1 DUP4 CODECOPY DUP2 MLOAD SWAP2 MSTORE PUSH1 0x20 MSTORE PUSH1 0x40 SWAP1 KECCAK256 SLOAD SWAP3 SWAP8 SWAP4 SWAP7 SWAP1 SWAP6 PUSH2 0x3652 SWAP6 SWAP1 SWAP5 PUSH2 0x361A SWAP5 SWAP1 SWAP3 SWAP2 SWAP1 PUSH1 0xFF AND DUP1 ISZERO PUSH2 0x369D JUMPI JUMPDEST PUSH2 0x350F SWAP1 PUSH2 0x324B JUMP JUMPDEST PUSH2 0x3517 PUSH2 0x4785 JUMP JUMPDEST PUSH2 0x351F PUSH2 0x4877 JUMP JUMPDEST PUSH1 0x1 DUP1 PUSH1 0xA0 SHL SUB DUP7 AND SWAP9 DUP10 PUSH1 0x0 MSTORE PUSH1 0x4 PUSH1 0x20 MSTORE PUSH2 0x3544 PUSH1 0xFF PUSH1 0x40 PUSH1 0x0 KECCAK256 SLOAD AND ISZERO PUSH2 0x338C JUMP JUMPDEST PUSH2 0x3550 DUP10 MLOAD ISZERO ISZERO PUSH2 0x36BE JUMP JUMPDEST PUSH2 0x355C PUSH2 0x20EE DUP11 PUSH2 0x1285 JUMP JUMPDEST PUSH2 0x3567 DUP11 ISZERO ISZERO PUSH2 0x37A2 JUMP JUMPDEST CALLER PUSH1 0x0 SWAP1 DUP2 MSTORE PUSH1 0x2 PUSH1 0x20 MSTORE PUSH1 0x40 SWAP1 KECCAK256 PUSH2 0x3586 SWAP1 PUSH2 0x1FC1 SWAP1 PUSH1 0x4 SWAP1 PUSH2 0x1FB9 JUMP JUMPDEST PUSH2 0x3594 PUSH2 0x2109 PUSH1 0x6 SLOAD PUSH2 0x3884 JUMP JUMPDEST PUSH1 0x6 SLOAD SWAP11 PUSH2 0x35A0 PUSH2 0xE03 JUMP JUMPDEST DUP13 DUP2 MSTORE PUSH1 0x20 DUP2 ADD DUP12 SWAP1 MSTORE PUSH1 0x40 DUP2 ADD SWAP7 SWAP1 SWAP7 MSTORE PUSH1 0x60 DUP7 ADD MSTORE PUSH1 0x80 DUP6 ADD MSTORE PUSH1 0xA0 DUP5 ADD MSTORE PUSH1 0x1 PUSH1 0x1 PUSH1 0xA0 SHL SUB DUP6 AND PUSH1 0xC0 DUP5 ADD MSTORE CALLER PUSH1 0xE0 DUP5 ADD MSTORE TIMESTAMP PUSH2 0x100 DUP5 ADD MSTORE TIMESTAMP PUSH2 0x120 DUP5 ADD MSTORE PUSH2 0x35F2 PUSH2 0x140 DUP5 ADD PUSH1 0x1 SWAP1 MSTORE JUMP JUMPDEST PUSH1 0x1 PUSH2 0x160 DUP5 ADD MSTORE PUSH2 0x180 DUP4 ADD MSTORE PUSH2 0x1A0 DUP3 ADD MSTORE PUSH2 0x21C5 DUP8 PUSH1 0x0 MSTORE PUSH1 0x0 PUSH1 0x20 MSTORE PUSH1 0x40 PUSH1 0x0 KECCAK256 SWAP1 JUMP JUMPDEST DUP5 PUSH2 0x3624 DUP5 PUSH2 0x1285 JUMP JUMPDEST SSTORE CALLER PUSH1 0x0 SWAP1 DUP2 MSTORE PUSH1 0x2 PUSH1 0x20 MSTORE PUSH1 0x40 SWAP1 KECCAK256 PUSH1 0x6 ADD PUSH2 0x3641 DUP2 SLOAD PUSH2 0x3884 JUMP JUMPDEST SWAP1 SSTORE DUP5 PUSH2 0x364C PUSH2 0x29F3 JUMP JUMPDEST SWAP2 PUSH2 0x48A7 JUMP JUMPDEST DUP3 PUSH32 0x60469EC7C6EE62537E37B986F9F7BE5BB53B61F0D662DD0E088FB274421E3C6D PUSH1 0x40 MLOAD DUP1 PUSH2 0x3683 CALLER SWAP6 DUP3 PUSH2 0xA22 JUMP JUMPDEST SUB SWAP1 LOG4 PUSH2 0xA33 PUSH1 0x1 PUSH1 0x0 DUP1 MLOAD PUSH1 0x20 PUSH2 0x5A31 DUP4 CODECOPY DUP2 MLOAD SWAP2 MSTORE SSTORE JUMP JUMPDEST POP PUSH1 0x0 DUP1 MLOAD PUSH1 0x20 PUSH2 0x5971 DUP4 CODECOPY DUP2 MLOAD SWAP2 MSTORE SLOAD PUSH1 0x1 PUSH1 0x1 PUSH1 0xA0 SHL SUB AND CALLER EQ PUSH2 0x3506 JUMP JUMPDEST ISZERO PUSH2 0x36C5 JUMPI JUMP JUMPDEST PUSH1 0x40 MLOAD PUSH3 0x461BCD PUSH1 0xE5 SHL DUP2 MSTORE PUSH1 0x20 PUSH1 0x4 DUP3 ADD MSTORE PUSH1 0x39 PUSH1 0x24 DUP3 ADD MSTORE PUSH32 0x566572616C69784D617374657252656769737472793A20636572746966696361 PUSH1 0x44 DUP3 ADD MSTORE PUSH32 0x7465206E756D6265722063616E6E6F7420626520656D70747900000000000000 PUSH1 0x64 DUP3 ADD MSTORE PUSH1 0x84 SWAP1 REVERT JUMPDEST ISZERO PUSH2 0x3737 JUMPI JUMP JUMPDEST PUSH1 0x40 MLOAD PUSH3 0x461BCD PUSH1 0xE5 SHL DUP2 MSTORE PUSH1 0x20 PUSH1 0x4 DUP3 ADD MSTORE PUSH1 0x38 PUSH1 0x24 DUP3 ADD MSTORE PUSH32 0x566572616C69784D617374657252656769737472793A20636572746966696361 PUSH1 0x44 DUP3 ADD MSTORE PUSH32 0x7465206E756D62657220616C7265616479206578697374730000000000000000 PUSH1 0x64 DUP3 ADD MSTORE PUSH1 0x84 SWAP1 REVERT JUMPDEST ISZERO PUSH2 0x37A9 JUMPI JUMP JUMPDEST PUSH1 0x40 MLOAD PUSH3 0x461BCD PUSH1 0xE5 SHL DUP2 MSTORE PUSH1 0x20 PUSH1 0x4 DUP3 ADD MSTORE PUSH1 0x33 PUSH1 0x24 DUP3 ADD MSTORE PUSH32 0x566572616C69784D617374657252656769737472793A206F776E65722063616E PUSH1 0x44 DUP3 ADD MSTORE PUSH19 0x6E6F74206265207A65726F2061646472657373 PUSH1 0x68 SHL PUSH1 0x64 DUP3 ADD MSTORE PUSH1 0x84 SWAP1 REVERT JUMPDEST ISZERO PUSH2 0x3811 JUMPI JUMP JUMPDEST PUSH1 0x40 MLOAD PUSH3 0x461BCD PUSH1 0xE5 SHL DUP2 MSTORE PUSH1 0x20 PUSH1 0x4 DUP3 ADD MSTORE PUSH1 0x2F PUSH1 0x24 DUP3 ADD MSTORE PUSH32 0x566572616C69784D617374657252656769737472793A206A6577656C72792073 PUSH1 0x44 DUP3 ADD MSTORE PUSH15 0x746F7265206E6F7420616374697665 PUSH1 0x88 SHL PUSH1 0x64 DUP3 ADD MSTORE PUSH1 0x84 SWAP1 REVERT JUMPDEST PUSH4 0x4E487B71 PUSH1 0xE0 SHL PUSH1 0x0 MSTORE PUSH1 0x11 PUSH1 0x4 MSTORE PUSH1 0x24 PUSH1 0x0 REVERT JUMPDEST PUSH1 0x0 NOT DUP2 EQ PUSH2 0x3893 JUMPI PUSH1 0x1 ADD SWAP1 JUMP JUMPDEST PUSH2 0x386E JUMP JUMPDEST PUSH4 0x4E487B71 PUSH1 0xE0 SHL PUSH1 0x0 MSTORE PUSH1 0x0 PUSH1 0x4 MSTORE PUSH1 0x24 PUSH1 0x0 REVERT JUMPDEST DUP2 DUP2 LT PUSH2 0x38B9 JUMPI POP POP JUMP JUMPDEST PUSH1 0x0 DUP2 SSTORE PUSH1 0x1 ADD PUSH2 0x38AE JUMP JUMPDEST SWAP1 PUSH1 0x1F DUP3 GT PUSH2 0x38D2 JUMPI POP POP JUMP JUMPDEST PUSH2 0x888 SWAP2 PUSH1 0x0 DUP1 MLOAD PUSH1 0x20 PUSH2 0x5A71 DUP4 CODECOPY DUP2 MLOAD SWAP2 MSTORE PUSH1 0x0 MSTORE PUSH32 0xF429CB5E2EC84CBB765E76B31964A56CCDE03E7A6122D6CC4AFB19EDC55EDEED SWAP1 PUSH1 0x20 PUSH1 0x1F DUP5 ADD PUSH1 0x5 SHR DUP4 ADD SWAP4 LT PUSH2 0x3929 JUMPI JUMPDEST PUSH1 0x1F ADD PUSH1 0x5 SHR ADD SWAP1 PUSH2 0x38AE JUMP JUMPDEST SWAP1 SWAP2 POP DUP2 SWAP1 PUSH2 0x391C JUMP JUMPDEST SWAP2 SWAP1 PUSH1 0x1F DUP2 GT PUSH2 0x3942 JUMPI POP POP POP JUMP JUMPDEST PUSH2 0x888 SWAP3 PUSH1 0x0 MSTORE PUSH1 0x20 PUSH1 0x0 KECCAK256 SWAP1 PUSH1 0x20 PUSH1 0x1F DUP5 ADD PUSH1 0x5 SHR DUP4 ADD SWAP4 LT PUSH2 0x3929 JUMPI PUSH1 0x1F ADD PUSH1 0x5 SHR ADD SWAP1 PUSH2 0x38AE JUMP JUMPDEST SWAP2 SWAP1 SWAP2 DUP3 MLOAD PUSH1 0x1 PUSH1 0x1 PUSH1 0x40 SHL SUB DUP2 GT PUSH2 0x7CE JUMPI PUSH2 0x3994 DUP2 PUSH2 0x398E DUP5 SLOAD PUSH2 0x762 JUMP JUMPDEST DUP5 PUSH2 0x3933 JUMP JUMPDEST PUSH1 0x20 DUP1 PUSH1 0x1F DUP4 GT PUSH1 0x1 EQ PUSH2 0x39D7 JUMPI POP DUP2 SWAP1 PUSH2 0x39C8 SWAP4 SWAP5 SWAP6 PUSH1 0x0 SWAP3 PUSH2 0x39CC JUMPI JUMPDEST POP POP DUP2 PUSH1 0x1 SHL SWAP2 PUSH1 0x0 NOT SWAP1 PUSH1 0x3 SHL SHR NOT AND OR SWAP1 JUMP JUMPDEST SWAP1 SSTORE JUMP JUMPDEST ADD MLOAD SWAP1 POP CODESIZE DUP1 PUSH2 0x39B3 JUMP JUMPDEST SWAP1 PUSH1 0x1F NOT DUP4 AND SWAP6 PUSH2 0x39ED DUP6 PUSH1 0x0 MSTORE PUSH1 0x20 PUSH1 0x0 KECCAK256 SWAP1 JUMP JUMPDEST SWAP3 PUSH1 0x0 SWAP1 JUMPDEST DUP9 DUP3 LT PUSH2 0x3A2A JUMPI POP POP DUP4 PUSH1 0x1 SWAP6 SWAP7 SWAP8 LT PUSH2 0x3A11 JUMPI JUMPDEST POP POP POP DUP2 SHL ADD SWAP1 SSTORE JUMP JUMPDEST ADD MLOAD PUSH1 0x0 NOT PUSH1 0xF8 DUP5 PUSH1 0x3 SHL AND SHR NOT AND SWAP1 SSTORE CODESIZE DUP1 DUP1 PUSH2 0x3A07 JUMP JUMPDEST DUP1 PUSH1 0x1 DUP6 SWAP7 DUP3 SWAP5 SWAP7 DUP7 ADD MLOAD DUP2 SSTORE ADD SWAP6 ADD SWAP4 ADD SWAP1 PUSH2 0x39F2 JUMP JUMPDEST PUSH1 0xC PUSH2 0x1A0 PUSH2 0x888 SWAP4 DUP1 MLOAD DUP5 SSTORE PUSH2 0x3A60 PUSH1 0x20 DUP3 ADD MLOAD PUSH1 0x1 DUP7 ADD PUSH2 0x396D JUMP JUMPDEST PUSH2 0x3A71 PUSH1 0x40 DUP3 ADD MLOAD PUSH1 0x2 DUP7 ADD PUSH2 0x396D JUMP JUMPDEST PUSH2 0x3A82 PUSH1 0x60 DUP3 ADD MLOAD PUSH1 0x3 DUP7 ADD PUSH2 0x396D JUMP JUMPDEST PUSH2 0x3A93 PUSH1 0x80 DUP3 ADD MLOAD PUSH1 0x4 DUP7 ADD PUSH2 0x396D JUMP JUMPDEST PUSH2 0x3AA4 PUSH1 0xA0 DUP3 ADD MLOAD PUSH1 0x5 DUP7 ADD PUSH2 0x396D JUMP JUMPDEST PUSH1 0xC0 DUP2 ADD MLOAD PUSH1 0x6 DUP6 ADD DUP1 SLOAD PUSH1 0x1 PUSH1 0x1 PUSH1 0xA0 SHL SUB SWAP3 DUP4 AND PUSH1 0x1 PUSH1 0x1 PUSH1 0xA0 SHL SUB NOT SWAP2 DUP3 AND OR SWAP1 SWAP2 SSTORE PUSH1 0xE0 DUP4 ADD MLOAD PUSH1 0x7 DUP8 ADD DUP1 SLOAD SWAP2 SWAP1 SWAP4 AND SWAP2 AND OR SWAP1 SSTORE PUSH2 0x100 DUP2 ADD MLOAD PUSH1 0x8 DUP6 ADD SSTORE PUSH2 0x120 DUP2 ADD MLOAD PUSH1 0x9 DUP6 ADD SSTORE PUSH2 0x140 DUP2 ADD MLOAD PUSH2 0x3B3B SWAP1 PUSH1 0xA DUP7 ADD SWAP1 PUSH2 0x3B1C SWAP1 ISZERO ISZERO JUMPDEST DUP3 SWAP1 PUSH1 0xFF DUP1 NOT DUP4 SLOAD AND SWAP2 ISZERO ISZERO AND OR SWAP1 SSTORE JUMP JUMPDEST PUSH2 0x160 DUP4 ADD MLOAD ISZERO ISZERO JUMPDEST DUP2 SLOAD PUSH2 0xFF00 NOT AND SWAP1 ISZERO ISZERO PUSH1 0x8 SHL PUSH2 0xFF00 AND OR SWAP1 SSTORE JUMP JUMPDEST PUSH2 0x180 DUP2 ADD MLOAD PUSH1 0xB DUP6 ADD SSTORE ADD MLOAD SWAP2 ADD PUSH2 0x396D JUMP JUMPDEST ISZERO PUSH2 0x3B56 JUMPI JUMP JUMPDEST PUSH1 0x40 MLOAD PUSH3 0x461BCD PUSH1 0xE5 SHL DUP2 MSTORE PUSH1 0x20 PUSH1 0x4 DUP3 ADD MSTORE PUSH1 0x2D PUSH1 0x24 DUP3 ADD MSTORE PUSH32 0x566572616C69784D617374657252656769737472793A2063616E6E6F7420626C PUSH1 0x44 DUP3 ADD MSTORE PUSH13 0x30B1B5B634B9BA1037BBB732B9 PUSH1 0x99 SHL PUSH1 0x64 DUP3 ADD MSTORE PUSH1 0x84 SWAP1 REVERT JUMPDEST SWAP1 PUSH2 0x3BBB DUP3 PUSH2 0xE1D JUMP JUMPDEST PUSH2 0x3BC8 PUSH1 0x40 MLOAD SWAP2 DUP3 PUSH2 0x825 JUMP JUMPDEST DUP3 DUP2 MSTORE DUP1 SWAP3 PUSH2 0x3BD9 PUSH1 0x1F NOT SWAP2 PUSH2 0xE1D JUMP JUMPDEST ADD SWAP1 PUSH1 0x20 CALLDATASIZE SWAP2 ADD CALLDATACOPY JUMP JUMPDEST DUP1 MLOAD DUP3 LT ISZERO PUSH2 0x2519 JUMPI PUSH1 0x20 SWAP2 PUSH1 0x5 SHL ADD ADD SWAP1 JUMP JUMPDEST SWAP2 SWAP1 SWAP2 DUP1 MLOAD DUP4 MLOAD DUP1 DUP3 SUB PUSH2 0x3C92 JUMPI POP POP PUSH2 0x3C11 DUP2 MLOAD PUSH2 0x3BB1 JUMP JUMPDEST SWAP1 PUSH1 0x0 SWAP1 PUSH1 0x0 JUMPDEST DUP2 MLOAD DUP2 LT ISZERO PUSH2 0x3C8A JUMPI DUP1 PUSH2 0x3C78 PUSH1 0x1 SWAP3 PUSH1 0x5 SHL PUSH32 0x88BE536D5240C274A3B1D3A1BE54482FD9CAA294F08C62A7CDE569F49A3C4500 PUSH1 0x20 DUP1 DUP1 DUP5 DUP10 ADD ADD MLOAD SWAP4 DUP13 ADD ADD MLOAD DUP9 MSTORE MSTORE PUSH1 0x40 DUP7 KECCAK256 SWAP1 PUSH1 0x1 DUP1 PUSH1 0xA0 SHL SUB AND PUSH1 0x0 MSTORE PUSH1 0x20 MSTORE PUSH1 0x40 PUSH1 0x0 KECCAK256 SWAP1 JUMP JUMPDEST SLOAD PUSH2 0x3C83 DUP3 DUP8 PUSH2 0x3BE3 JUMP JUMPDEST MSTORE ADD PUSH2 0x3C18 JUMP JUMPDEST POP SWAP2 SWAP4 POP POP POP JUMP JUMPDEST PUSH1 0x40 MLOAD PUSH4 0x5B059991 PUSH1 0xE0 SHL DUP2 MSTORE PUSH1 0x4 DUP2 ADD SWAP2 SWAP1 SWAP2 MSTORE PUSH1 0x24 DUP2 ADD SWAP2 SWAP1 SWAP2 MSTORE PUSH1 0x44 SWAP1 REVERT JUMPDEST DUP1 ISZERO ISZERO DUP1 PUSH2 0x3DCF JUMPI JUMPDEST PUSH2 0x3CC6 SWAP1 PUSH2 0x32CF JUMP JUMPDEST DUP1 PUSH1 0x0 MSTORE PUSH1 0x5 PUSH1 0x20 MSTORE PUSH2 0x3CE1 PUSH1 0xFF PUSH1 0x40 PUSH1 0x0 KECCAK256 SLOAD AND ISZERO PUSH2 0x332B JUMP JUMPDEST PUSH1 0x0 MSTORE PUSH1 0x0 PUSH1 0x20 MSTORE PUSH1 0x40 PUSH1 0x0 KECCAK256 PUSH2 0x3DC6 PUSH1 0xC PUSH2 0x3CFB PUSH2 0xE03 JUMP JUMPDEST SWAP3 DUP1 SLOAD DUP5 MSTORE PUSH2 0x3D0C PUSH1 0x1 DUP3 ADD PUSH2 0x846 JUMP JUMPDEST PUSH1 0x20 DUP6 ADD MSTORE PUSH2 0x3D1D PUSH1 0x2 DUP3 ADD PUSH2 0x846 JUMP JUMPDEST PUSH1 0x40 DUP6 ADD MSTORE PUSH2 0x3D2E PUSH1 0x3 DUP3 ADD PUSH2 0x846 JUMP JUMPDEST PUSH1 0x60 DUP6 ADD MSTORE PUSH2 0x3D3F PUSH1 0x4 DUP3 ADD PUSH2 0x846 JUMP JUMPDEST PUSH1 0x80 DUP6 ADD MSTORE PUSH2 0x3D50 PUSH1 0x5 DUP3 ADD PUSH2 0x846 JUMP JUMPDEST PUSH1 0xA0 DUP6 ADD MSTORE PUSH1 0x6 DUP2 ADD SLOAD PUSH1 0x1 PUSH1 0x1 PUSH1 0xA0 SHL SUB AND PUSH1 0xC0 DUP6 ADD MSTORE PUSH1 0x7 DUP2 ADD SLOAD PUSH1 0x1 PUSH1 0x1 PUSH1 0xA0 SHL SUB AND PUSH1 0xE0 DUP6 ADD MSTORE PUSH1 0x8 DUP2 ADD SLOAD PUSH2 0x100 DUP6 ADD MSTORE PUSH1 0x9 DUP2 ADD SLOAD PUSH2 0x120 DUP6 ADD MSTORE PUSH1 0xA DUP2 ADD SLOAD PUSH1 0xFF DUP2 DUP2 AND ISZERO ISZERO PUSH2 0x140 DUP8 ADD MSTORE PUSH2 0x3DB5 SWAP2 PUSH1 0x8 SHR AND ISZERO ISZERO PUSH2 0x160 DUP7 ADD MSTORE JUMP JUMPDEST PUSH1 0xB DUP2 ADD SLOAD PUSH2 0x180 DUP6 ADD MSTORE ADD PUSH2 0x846 JUMP JUMPDEST PUSH2 0x1A0 DUP3 ADD MSTORE SWAP1 JUMP JUMPDEST POP PUSH1 0x6 SLOAD DUP2 GT ISZERO PUSH2 0x3CBD JUMP JUMPDEST CALLER PUSH1 0x0 SWAP1 DUP2 MSTORE PUSH1 0x0 DUP1 MLOAD PUSH1 0x20 PUSH2 0x5991 DUP4 CODECOPY DUP2 MLOAD SWAP2 MSTORE PUSH1 0x20 MSTORE PUSH1 0x40 SWAP1 KECCAK256 SLOAD SWAP4 SWAP5 PUSH32 0xCAFF446130E685D1FDDB714A7925ECAC5674D9AA281D7D556B20421C30FF319F SWAP5 PUSH2 0x3F05 SWAP5 PUSH2 0x28A1 SWAP4 SWAP3 PUSH2 0x3EF7 SWAP3 PUSH1 0xFF AND DUP1 ISZERO PUSH2 0x3F0A JUMPI JUMPDEST PUSH2 0x3E3C SWAP1 PUSH2 0x324B JUMP JUMPDEST PUSH1 0x1 PUSH1 0x1 PUSH1 0xA0 SHL SUB DUP5 AND SWAP9 PUSH2 0x3E52 DUP11 ISZERO ISZERO PUSH2 0x3F2B JUMP JUMPDEST PUSH2 0x3E5E DUP8 MLOAD ISZERO ISZERO PUSH2 0x3F93 JUMP JUMPDEST PUSH2 0x3E8A PUSH2 0x3E85 PUSH2 0x236F PUSH1 0x4 PUSH2 0x1FB9 DUP10 PUSH1 0x1 DUP1 PUSH1 0xA0 SHL SUB AND PUSH1 0x0 MSTORE PUSH1 0x2 PUSH1 0x20 MSTORE PUSH1 0x40 PUSH1 0x0 KECCAK256 SWAP1 JUMP JUMPDEST PUSH2 0x3FF9 JUMP JUMPDEST PUSH2 0x3E92 PUSH2 0xE10 JUMP JUMPDEST PUSH1 0x1 PUSH1 0x1 PUSH1 0xA0 SHL SUB DUP7 AND DUP2 MSTORE SWAP3 DUP8 PUSH1 0x20 DUP6 ADD MSTORE PUSH1 0x40 DUP5 ADD MSTORE PUSH1 0x60 DUP4 ADD MSTORE PUSH2 0x3EBC PUSH1 0x80 DUP4 ADD PUSH1 0x1 SWAP1 MSTORE JUMP JUMPDEST PUSH1 0x0 PUSH1 0xA0 DUP4 ADD MSTORE TIMESTAMP PUSH1 0xC0 DUP4 ADD MSTORE PUSH1 0x0 PUSH1 0xE0 DUP4 ADD MSTORE PUSH2 0x100 DUP3 ADD MSTORE PUSH2 0x3EF2 DUP4 PUSH1 0x1 DUP1 PUSH1 0xA0 SHL SUB AND PUSH1 0x0 MSTORE PUSH1 0x2 PUSH1 0x20 MSTORE PUSH1 0x40 PUSH1 0x0 KECCAK256 SWAP1 JUMP JUMPDEST PUSH2 0x4141 JUMP JUMPDEST PUSH2 0x3F00 DUP2 PUSH2 0x41DB JUMP JUMPDEST PUSH2 0x4983 JUMP JUMPDEST SUB SWAP1 LOG2 JUMP JUMPDEST POP PUSH1 0x0 DUP1 MLOAD PUSH1 0x20 PUSH2 0x5971 DUP4 CODECOPY DUP2 MLOAD SWAP2 MSTORE SLOAD PUSH1 0x1 PUSH1 0x1 PUSH1 0xA0 SHL SUB AND CALLER EQ PUSH2 0x3E33 JUMP JUMPDEST ISZERO PUSH2 0x3F32 JUMPI JUMP JUMPDEST PUSH1 0x40 MLOAD PUSH3 0x461BCD PUSH1 0xE5 SHL DUP2 MSTORE PUSH1 0x20 PUSH1 0x4 DUP3 ADD MSTORE PUSH1 0x33 PUSH1 0x24 DUP3 ADD MSTORE PUSH32 0x566572616C69784D617374657252656769737472793A2073746F726520616464 PUSH1 0x44 DUP3 ADD MSTORE PUSH19 0x726573732063616E6E6F74206265207A65726F PUSH1 0x68 SHL PUSH1 0x64 DUP3 ADD MSTORE PUSH1 0x84 SWAP1 REVERT JUMPDEST ISZERO PUSH2 0x3F9A JUMPI JUMP JUMPDEST PUSH1 0x40 MLOAD PUSH3 0x461BCD PUSH1 0xE5 SHL DUP2 MSTORE PUSH1 0x20 PUSH1 0x4 DUP3 ADD MSTORE PUSH1 0x31 PUSH1 0x24 DUP3 ADD MSTORE PUSH32 0x566572616C69784D617374657252656769737472793A2073746F7265206E616D PUSH1 0x44 DUP3 ADD MSTORE PUSH17 0x652063616E6E6F7420626520656D707479 PUSH1 0x78 SHL PUSH1 0x64 DUP3 ADD MSTORE PUSH1 0x84 SWAP1 REVERT JUMPDEST ISZERO PUSH2 0x4000 JUMPI JUMP JUMPDEST PUSH1 0x40 MLOAD PUSH3 0x461BCD PUSH1 0xE5 SHL DUP2 MSTORE PUSH1 0x20 PUSH1 0x4 DUP3 ADD MSTORE PUSH1 0x2F PUSH1 0x24 DUP3 ADD MSTORE PUSH32 0x566572616C69784D617374657252656769737472793A2073746F726520616C72 PUSH1 0x44 DUP3 ADD MSTORE PUSH15 0x1958591E481C9959DA5CDD195C9959 PUSH1 0x8A SHL PUSH1 0x64 DUP3 ADD MSTORE PUSH1 0x84 SWAP1 REVERT JUMPDEST DUP2 MLOAD SWAP2 PUSH1 0x1 PUSH1 0x40 SHL DUP4 GT PUSH2 0x7CE JUMPI DUP2 SLOAD DUP4 DUP4 SSTORE DUP1 DUP5 LT PUSH2 0x40BB JUMPI JUMPDEST POP PUSH2 0x408D PUSH1 0x20 DUP1 SWAP3 ADD SWAP3 PUSH1 0x0 MSTORE PUSH1 0x20 PUSH1 0x0 KECCAK256 SWAP1 JUMP JUMPDEST PUSH1 0x0 SWAP3 JUMPDEST DUP5 DUP5 LT PUSH2 0x409F JUMPI POP POP POP POP POP JUMP JUMPDEST PUSH1 0x1 DUP4 DUP3 PUSH2 0x40AF DUP4 SWAP5 MLOAD DUP7 PUSH2 0x396D JUMP JUMPDEST ADD SWAP3 ADD SWAP4 ADD SWAP3 SWAP1 PUSH2 0x4091 JUMP JUMPDEST PUSH1 0x0 DUP4 PUSH1 0x0 MSTORE DUP5 PUSH1 0x20 PUSH1 0x0 KECCAK256 SWAP3 DUP4 ADD SWAP3 ADD JUMPDEST DUP3 DUP2 LT PUSH2 0x40DB JUMPI POP POP PUSH2 0x4078 JUMP JUMPDEST DUP1 PUSH2 0x40E8 PUSH1 0x1 SWAP3 SLOAD PUSH2 0x762 JUMP JUMPDEST DUP1 PUSH2 0x40F5 JUMPI JUMPDEST POP ADD PUSH2 0x40CD JUMP JUMPDEST PUSH1 0x1F SWAP1 DUP2 DUP2 GT DUP5 EQ PUSH2 0x410D JUMPI POP POP DUP3 DUP2 SSTORE JUMPDEST CODESIZE PUSH2 0x40EE JUMP JUMPDEST DUP4 PUSH2 0x412F SWAP3 PUSH2 0x4121 DUP6 PUSH1 0x0 MSTORE PUSH1 0x20 PUSH1 0x0 KECCAK256 SWAP1 JUMP JUMPDEST SWAP3 ADD PUSH1 0x5 SHR DUP3 ADD SWAP2 ADD PUSH2 0x38AE JUMP JUMPDEST PUSH1 0x0 DUP2 DUP2 MSTORE PUSH1 0x20 DUP2 KECCAK256 DUP2 DUP4 SSTORE SSTORE PUSH2 0x4107 JUMP JUMPDEST DUP2 MLOAD DUP2 SLOAD PUSH1 0x1 PUSH1 0x1 PUSH1 0xA0 SHL SUB NOT AND PUSH1 0x1 PUSH1 0x1 PUSH1 0xA0 SHL SUB SWAP1 SWAP2 AND OR DUP2 SSTORE PUSH2 0x888 SWAP2 PUSH1 0x7 SWAP1 PUSH2 0x100 SWAP1 PUSH2 0x4179 PUSH1 0x20 DUP3 ADD MLOAD PUSH1 0x1 DUP7 ADD PUSH2 0x396D JUMP JUMPDEST PUSH2 0x418A PUSH1 0x40 DUP3 ADD MLOAD PUSH1 0x2 DUP7 ADD PUSH2 0x396D JUMP JUMPDEST PUSH2 0x419B PUSH1 0x60 DUP3 ADD MLOAD PUSH1 0x3 DUP7 ADD PUSH2 0x396D JUMP JUMPDEST PUSH2 0x41BE PUSH1 0x4 DUP6 ADD PUSH2 0x41B2 PUSH2 0x3B0A PUSH1 0x80 DUP6 ADD MLOAD ISZERO ISZERO SWAP1 JUMP JUMPDEST PUSH1 0xA0 DUP4 ADD MLOAD ISZERO ISZERO PUSH2 0x3B25 JUMP JUMPDEST PUSH1 0xC0 DUP2 ADD MLOAD PUSH1 0x5 DUP6 ADD SSTORE PUSH1 0xE0 DUP2 ADD MLOAD PUSH1 0x6 DUP6 ADD SSTORE ADD MLOAD SWAP2 ADD PUSH2 0x405D JUMP JUMPDEST PUSH1 0x7 SLOAD PUSH1 0x1 PUSH1 0x40 SHL DUP2 LT ISZERO PUSH2 0x7CE JUMPI PUSH1 0x1 DUP2 ADD DUP1 PUSH1 0x7 SSTORE DUP2 LT ISZERO PUSH2 0x2519 JUMPI PUSH1 0x7 PUSH1 0x0 MSTORE PUSH32 0xA66CC928B5EDB82AF9BD49922954155AB7B0942694BEA4CE44661D9A8736C688 ADD DUP1 SLOAD PUSH1 0x1 PUSH1 0x1 PUSH1 0xA0 SHL SUB NOT AND PUSH1 0x1 PUSH1 0x1 PUSH1 0xA0 SHL SUB SWAP1 SWAP3 AND SWAP2 SWAP1 SWAP2 OR SWAP1 SSTORE JUMP JUMPDEST ISZERO PUSH2 0x4246 JUMPI JUMP JUMPDEST PUSH1 0x40 MLOAD PUSH3 0x461BCD PUSH1 0xE5 SHL DUP2 MSTORE PUSH1 0x20 PUSH1 0x4 DUP3 ADD MSTORE PUSH1 0x33 PUSH1 0x24 DUP3 ADD MSTORE PUSH32 0x566572616C69784D617374657252656769737472793A206D6574616461746120 PUSH1 0x44 DUP3 ADD MSTORE PUSH19 0x5552492063616E6E6F7420626520656D707479 PUSH1 0x68 SHL PUSH1 0x64 DUP3 ADD MSTORE PUSH1 0x84 SWAP1 REVERT JUMPDEST ISZERO PUSH2 0x42AE JUMPI JUMP JUMPDEST PUSH1 0x40 MLOAD PUSH3 0x461BCD PUSH1 0xE5 SHL DUP2 MSTORE PUSH1 0x20 PUSH1 0x4 DUP3 ADD MSTORE PUSH1 0x22 PUSH1 0x24 DUP3 ADD MSTORE PUSH32 0x566572616C69784D617374657252656769737472793A20656D70747920626174 PUSH1 0x44 DUP3 ADD MSTORE PUSH2 0xC6D PUSH1 0xF3 SHL PUSH1 0x64 DUP3 ADD MSTORE PUSH1 0x84 SWAP1 REVERT JUMPDEST ISZERO PUSH2 0x4305 JUMPI JUMP JUMPDEST PUSH1 0x40 MLOAD PUSH3 0x461BCD PUSH1 0xE5 SHL DUP2 MSTORE PUSH1 0x20 PUSH1 0x4 DUP3 ADD MSTORE PUSH1 0x2C PUSH1 0x24 DUP3 ADD MSTORE PUSH32 0x566572616C69784D617374657252656769737472793A206172726179206C656E PUSH1 0x44 DUP3 ADD MSTORE PUSH12 0xCEE8D040DAD2E6DAC2E8C6D PUSH1 0xA3 SHL PUSH1 0x64 DUP3 ADD MSTORE PUSH1 0x84 SWAP1 REVERT JUMPDEST PUSH1 0x40 MLOAD SWAP1 PUSH2 0x436C DUP3 PUSH2 0x80A JUMP JUMPDEST PUSH1 0x13 DUP3 MSTORE PUSH19 0x4A6577656C7279204365727469666963617465 PUSH1 0x68 SHL PUSH1 0x20 DUP4 ADD MSTORE JUMP JUMPDEST SWAP2 SWAP1 DUP3 ADD DUP1 SWAP3 GT PUSH2 0x3893 JUMPI JUMP JUMPDEST ISZERO PUSH2 0x43A2 JUMPI JUMP JUMPDEST PUSH1 0x84 PUSH1 0x40 MLOAD PUSH3 0x461BCD PUSH1 0xE5 SHL DUP2 MSTORE PUSH1 0x20 PUSH1 0x4 DUP3 ADD MSTORE PUSH1 0x40 PUSH1 0x24 DUP3 ADD MSTORE PUSH32 0x566572616C69784D617374657252656769737472793A2061707072616973616C PUSH1 0x44 DUP3 ADD MSTORE PUSH32 0x2076616C7565206D7573742062652067726561746572207468616E207A65726F PUSH1 0x64 DUP3 ADD MSTORE REVERT JUMPDEST ISZERO PUSH2 0x4413 JUMPI JUMP JUMPDEST PUSH1 0x40 MLOAD PUSH3 0x461BCD PUSH1 0xE5 SHL DUP2 MSTORE PUSH1 0x20 PUSH1 0x4 DUP3 ADD MSTORE PUSH1 0x2F PUSH1 0x24 DUP3 ADD MSTORE PUSH32 0x566572616C69784D617374657252656769737472793A2063757272656E637920 PUSH1 0x44 DUP3 ADD MSTORE PUSH15 0x63616E6E6F7420626520656D707479 PUSH1 0x88 SHL PUSH1 0x64 DUP3 ADD MSTORE PUSH1 0x84 SWAP1 REVERT JUMPDEST DUP1 SLOAD PUSH1 0x1 PUSH1 0x40 SHL DUP2 LT ISZERO PUSH2 0x7CE JUMPI PUSH2 0x448D SWAP2 PUSH1 0x1 DUP3 ADD DUP2 SSTORE PUSH2 0x24FD JUMP JUMPDEST PUSH2 0x4529 JUMPI DUP2 MLOAD DUP2 SSTORE PUSH1 0x20 DUP3 ADD MLOAD PUSH1 0x1 DUP3 ADD DUP1 SLOAD PUSH1 0x1 PUSH1 0x1 PUSH1 0xA0 SHL SUB NOT AND PUSH1 0x1 PUSH1 0x1 PUSH1 0xA0 SHL SUB SWAP1 SWAP3 AND SWAP2 SWAP1 SWAP2 OR SWAP1 SSTORE PUSH2 0x888 SWAP2 PUSH1 0x7 SWAP1 PUSH1 0xE0 SWAP1 PUSH1 0x40 DUP2 ADD MLOAD PUSH1 0x2 DUP6 ADD SSTORE PUSH2 0x44E0 PUSH1 0x60 DUP3 ADD MLOAD PUSH1 0x3 DUP7 ADD PUSH2 0x396D JUMP JUMPDEST PUSH1 0x80 DUP2 ADD MLOAD PUSH1 0x4 DUP6 ADD SSTORE PUSH2 0x44FB PUSH1 0xA0 DUP3 ADD MLOAD PUSH1 0x5 DUP7 ADD PUSH2 0x396D JUMP JUMPDEST PUSH2 0x4520 PUSH2 0x450B PUSH1 0xC0 DUP4 ADD MLOAD ISZERO ISZERO SWAP1 JUMP JUMPDEST PUSH1 0x6 DUP7 ADD SWAP1 PUSH1 0xFF DUP1 NOT DUP4 SLOAD AND SWAP2 ISZERO ISZERO AND OR SWAP1 SSTORE JUMP JUMPDEST ADD MLOAD SWAP2 ADD PUSH2 0x396D JUMP JUMPDEST PUSH2 0x3898 JUMP JUMPDEST PUSH1 0x40 SWAP1 PUSH2 0xA33 SWAP4 SWAP3 DUP2 MSTORE DUP2 PUSH1 0x20 DUP3 ADD MSTORE ADD SWAP1 PUSH2 0x90E JUMP JUMPDEST PUSH1 0x1 PUSH1 0x1 PUSH1 0xA0 SHL SUB SWAP1 DUP2 AND SWAP1 DUP2 ISZERO PUSH2 0x45A0 JUMPI PUSH1 0x0 DUP1 MLOAD PUSH1 0x20 PUSH2 0x5971 DUP4 CODECOPY DUP2 MLOAD SWAP2 MSTORE DUP1 SLOAD PUSH1 0x1 PUSH1 0x1 PUSH1 0xA0 SHL SUB NOT DUP2 AND DUP5 OR SWAP1 SWAP2 SSTORE AND PUSH32 0x8BE0079C531659141344CD1FD0A4F28419497F9722A3DAAFE3B4186F6B6457E0 PUSH1 0x0 DUP1 LOG3 JUMP JUMPDEST PUSH1 0x40 MLOAD PUSH4 0x1E4FBDF7 PUSH1 0xE0 SHL DUP2 MSTORE PUSH1 0x0 PUSH1 0x4 DUP3 ADD MSTORE PUSH1 0x24 SWAP1 REVERT JUMPDEST SWAP1 PUSH2 0x45C2 PUSH2 0x5245 JUMP JUMPDEST PUSH2 0x45CA PUSH2 0x5245 JUMP JUMPDEST DUP2 MLOAD PUSH1 0x1 PUSH1 0x1 PUSH1 0x40 SHL SUB DUP2 GT PUSH2 0x7CE JUMPI PUSH1 0x0 DUP1 MLOAD PUSH1 0x20 PUSH2 0x5A71 DUP4 CODECOPY DUP2 MLOAD SWAP2 MSTORE SWAP1 PUSH2 0x45FD DUP2 PUSH2 0x45F8 DUP5 SLOAD PUSH2 0x762 JUMP JUMPDEST PUSH2 0x38C5 JUMP JUMPDEST PUSH1 0x20 DUP1 PUSH1 0x1F DUP4 GT PUSH1 0x1 EQ PUSH2 0x4698 JUMPI POP DUP2 SWAP1 PUSH2 0x4630 SWAP4 SWAP5 SWAP6 PUSH1 0x0 SWAP3 PUSH2 0x39CC JUMPI POP POP DUP2 PUSH1 0x1 SHL SWAP2 PUSH1 0x0 NOT SWAP1 PUSH1 0x3 SHL SHR NOT AND OR SWAP1 JUMP JUMPDEST SWAP1 SSTORE JUMPDEST PUSH2 0x463B PUSH2 0x5245 JUMP JUMPDEST PUSH2 0x4644 CALLER PUSH2 0x4F2B JUMP JUMPDEST PUSH2 0x464C PUSH2 0x5245 JUMP JUMPDEST PUSH2 0x4654 PUSH2 0x4F3F JUMP JUMPDEST PUSH2 0x465C PUSH2 0x5245 JUMP JUMPDEST PUSH2 0x4665 CALLER PUSH2 0x4A5D JUMP JUMPDEST POP PUSH2 0x466F CALLER PUSH2 0x4B00 JUMP JUMPDEST POP PUSH2 0x4679 CALLER PUSH2 0x4B5F JUMP JUMPDEST POP PUSH2 0x4683 CALLER PUSH2 0x4BD0 JUMP JUMPDEST POP PUSH2 0x468D CALLER PUSH2 0x4C41 JUMP JUMPDEST POP PUSH2 0x888 PUSH1 0x0 PUSH1 0x6 SSTORE JUMP JUMPDEST SWAP1 PUSH1 0x1F NOT DUP4 AND SWAP6 PUSH2 0x46D8 PUSH1 0x0 DUP1 MLOAD PUSH1 0x20 PUSH2 0x5A71 DUP4 CODECOPY DUP2 MLOAD SWAP2 MSTORE PUSH1 0x0 MSTORE PUSH32 0xF429CB5E2EC84CBB765E76B31964A56CCDE03E7A6122D6CC4AFB19EDC55EDEED SWAP1 JUMP JUMPDEST SWAP3 PUSH1 0x0 SWAP1 JUMPDEST DUP9 DUP3 LT PUSH2 0x4718 JUMPI POP POP DUP4 PUSH1 0x1 SWAP6 SWAP7 SWAP8 LT PUSH2 0x46FF JUMPI JUMPDEST POP POP POP DUP2 SHL ADD SWAP1 SSTORE PUSH2 0x4633 JUMP JUMPDEST ADD MLOAD PUSH1 0x0 NOT PUSH1 0xF8 DUP5 PUSH1 0x3 SHL AND SHR NOT AND SWAP1 SSTORE CODESIZE DUP1 DUP1 PUSH2 0x46F2 JUMP JUMPDEST DUP1 PUSH1 0x1 DUP6 SWAP7 DUP3 SWAP5 SWAP7 DUP7 ADD MLOAD DUP2 SSTORE ADD SWAP6 ADD SWAP4 ADD SWAP1 PUSH2 0x46DD JUMP JUMPDEST SWAP1 DUP2 SLOAD PUSH2 0x473C DUP2 PUSH2 0xE1D JUMP JUMPDEST SWAP3 PUSH2 0x474A PUSH1 0x40 MLOAD SWAP5 DUP6 PUSH2 0x825 JUMP JUMPDEST DUP2 DUP5 MSTORE PUSH1 0x0 SWAP1 DUP2 MSTORE PUSH1 0x20 DUP1 DUP3 KECCAK256 DUP2 DUP7 ADD JUMPDEST DUP5 DUP5 LT PUSH2 0x4769 JUMPI POP POP POP POP POP JUMP JUMPDEST PUSH1 0x1 DUP4 DUP2 SWAP3 PUSH2 0x4777 DUP6 PUSH2 0x846 JUMP JUMPDEST DUP2 MSTORE ADD SWAP3 ADD SWAP4 ADD SWAP3 SWAP1 PUSH2 0x475B JUMP JUMPDEST PUSH1 0xFF PUSH1 0x0 DUP1 MLOAD PUSH1 0x20 PUSH2 0x5A11 DUP4 CODECOPY DUP2 MLOAD SWAP2 MSTORE SLOAD AND PUSH2 0x479E JUMPI JUMP JUMPDEST PUSH1 0x40 MLOAD PUSH4 0xD93C0665 PUSH1 0xE0 SHL DUP2 MSTORE PUSH1 0x4 SWAP1 REVERT JUMPDEST SWAP2 SWAP3 SWAP2 PUSH1 0x1 PUSH1 0x1 PUSH1 0xA0 SHL SUB DUP3 DUP2 AND ISZERO PUSH2 0x4818 JUMPI DUP2 AND ISZERO PUSH2 0x4800 JUMPI PUSH2 0x47F8 PUSH2 0x888 SWAP5 SWAP1 PUSH1 0x40 MLOAD SWAP2 PUSH1 0x1 DUP4 MSTORE PUSH1 0x20 DUP4 ADD MSTORE PUSH1 0x40 DUP3 ADD SWAP1 PUSH1 0x1 DUP3 MSTORE PUSH1 0x1 PUSH1 0x60 DUP5 ADD MSTORE PUSH1 0x80 DUP4 ADD PUSH1 0x40 MSTORE JUMP JUMPDEST SWAP3 SWAP1 SWAP2 PUSH2 0x50DD JUMP JUMPDEST PUSH1 0x40 MLOAD PUSH3 0x6A0D45 PUSH1 0xE2 SHL DUP2 MSTORE PUSH1 0x0 PUSH1 0x4 DUP3 ADD MSTORE PUSH1 0x24 SWAP1 REVERT JUMPDEST PUSH1 0x40 MLOAD PUSH4 0x2BFA23E7 PUSH1 0xE1 SHL DUP2 MSTORE PUSH1 0x0 PUSH1 0x4 DUP3 ADD MSTORE PUSH1 0x24 SWAP1 REVERT JUMPDEST SWAP4 SWAP3 SWAP2 SWAP1 PUSH1 0x1 PUSH1 0x1 PUSH1 0xA0 SHL SUB DUP1 DUP3 AND ISZERO PUSH2 0x4818 JUMPI DUP6 AND ISZERO PUSH2 0x4800 JUMPI PUSH2 0x888 SWAP5 PUSH1 0x40 MLOAD SWAP3 PUSH1 0x1 DUP5 MSTORE PUSH1 0x20 DUP5 ADD MSTORE PUSH1 0x40 DUP4 ADD SWAP4 PUSH1 0x1 DUP6 MSTORE PUSH1 0x60 DUP5 ADD MSTORE PUSH1 0x80 DUP4 ADD PUSH1 0x40 MSTORE PUSH2 0x50DD JUMP JUMPDEST PUSH1 0x0 DUP1 MLOAD PUSH1 0x20 PUSH2 0x5A31 DUP4 CODECOPY DUP2 MLOAD SWAP2 MSTORE PUSH1 0x2 DUP2 SLOAD EQ PUSH2 0x4895 JUMPI PUSH1 0x2 SWAP1 SSTORE JUMP JUMPDEST PUSH1 0x40 MLOAD PUSH4 0x3EE5AEB5 PUSH1 0xE0 SHL DUP2 MSTORE PUSH1 0x4 SWAP1 REVERT JUMPDEST SWAP1 SWAP2 SWAP1 PUSH1 0x1 PUSH1 0x1 PUSH1 0xA0 SHL SUB DUP2 AND ISZERO PUSH2 0x4818 JUMPI PUSH2 0x48E7 PUSH2 0x888 SWAP4 SWAP1 PUSH1 0x40 MLOAD SWAP2 PUSH1 0x1 DUP4 MSTORE PUSH1 0x20 DUP4 ADD MSTORE PUSH1 0x40 DUP3 ADD SWAP1 PUSH1 0x1 DUP3 MSTORE PUSH1 0x1 PUSH1 0x60 DUP5 ADD MSTORE PUSH1 0x80 DUP4 ADD PUSH1 0x40 MSTORE JUMP JUMPDEST SWAP2 PUSH2 0x4F63 JUMP JUMPDEST CALLER PUSH1 0x0 SWAP1 DUP2 MSTORE PUSH1 0x0 DUP1 MLOAD PUSH1 0x20 PUSH2 0x5991 DUP4 CODECOPY DUP2 MLOAD SWAP2 MSTORE PUSH1 0x20 MSTORE PUSH1 0x40 SWAP1 KECCAK256 SLOAD PUSH1 0xFF AND ISZERO PUSH2 0x4914 JUMPI JUMP JUMPDEST PUSH1 0x40 MLOAD PUSH4 0xE2517D3F PUSH1 0xE0 SHL DUP2 MSTORE CALLER PUSH1 0x4 DUP3 ADD MSTORE PUSH1 0x0 PUSH1 0x24 DUP3 ADD MSTORE PUSH1 0x44 SWAP1 REVERT JUMPDEST PUSH1 0x0 DUP2 DUP2 MSTORE PUSH1 0x0 DUP1 MLOAD PUSH1 0x20 PUSH2 0x59F1 DUP4 CODECOPY DUP2 MLOAD SWAP2 MSTORE PUSH1 0x20 SWAP1 DUP2 MSTORE PUSH1 0x40 DUP1 DUP4 KECCAK256 CALLER DUP5 MSTORE SWAP1 SWAP2 MSTORE SWAP1 KECCAK256 SLOAD PUSH1 0xFF AND ISZERO PUSH2 0x4965 JUMPI POP JUMP JUMPDEST PUSH1 0x44 SWAP1 PUSH1 0x40 MLOAD SWAP1 PUSH4 0xE2517D3F PUSH1 0xE0 SHL DUP3 MSTORE CALLER PUSH1 0x4 DUP4 ADD MSTORE PUSH1 0x24 DUP3 ADD MSTORE REVERT JUMPDEST PUSH1 0x1 PUSH1 0x1 PUSH1 0xA0 SHL SUB DUP2 AND PUSH1 0x0 SWAP1 DUP2 MSTORE PUSH32 0x67586683F6D64B48AE561A6B67340D13089731F2F08FD2973581B1FC3E96E39D PUSH1 0x20 MSTORE PUSH1 0x40 DUP2 KECCAK256 PUSH32 0x458E7120010273A45C50A429C988A509ADEB4407885607D9797DA91C85E8D706 SWAP1 PUSH1 0x0 DUP1 MLOAD PUSH1 0x20 PUSH2 0x59F1 DUP4 CODECOPY DUP2 MLOAD SWAP2 MSTORE SWAP1 PUSH1 0xFF SWAP1 JUMPDEST SLOAD AND PUSH2 0x4A56 JUMPI DUP2 DUP4 MSTORE PUSH1 0x20 SWAP1 DUP2 MSTORE PUSH1 0x40 DUP1 DUP5 KECCAK256 PUSH1 0x1 PUSH1 0x1 PUSH1 0xA0 SHL SUB DUP7 AND PUSH1 0x0 SWAP1 DUP2 MSTORE SWAP3 MSTORE SWAP1 KECCAK256 DUP1 SLOAD PUSH1 0xFF NOT AND PUSH1 0x1 OR SWAP1 SSTORE CALLER SWAP3 PUSH1 0x1 PUSH1 0x1 PUSH1 0xA0 SHL SUB AND SWAP2 PUSH32 0x2F8788117E7EFF1D82E926EC794901D17C78024A50270940304540A733656F0D SWAP1 DUP1 LOG4 PUSH1 0x1 SWAP1 JUMP JUMPDEST POP POP SWAP1 POP SWAP1 JUMP JUMPDEST PUSH1 0x1 PUSH1 0x1 PUSH1 0xA0 SHL SUB DUP2 AND PUSH1 0x0 SWAP1 DUP2 MSTORE PUSH1 0x0 DUP1 MLOAD PUSH1 0x20 PUSH2 0x5991 DUP4 CODECOPY DUP2 MLOAD SWAP2 MSTORE PUSH1 0x20 MSTORE PUSH1 0x40 DUP2 KECCAK256 SLOAD PUSH1 0x0 DUP1 MLOAD PUSH1 0x20 PUSH2 0x59F1 DUP4 CODECOPY DUP2 MLOAD SWAP2 MSTORE SWAP1 PUSH1 0xFF AND PUSH2 0x4AFA JUMPI DUP2 DUP1 MSTORE PUSH1 0x20 SWAP1 DUP2 MSTORE PUSH1 0x40 DUP1 DUP4 KECCAK256 PUSH1 0x1 PUSH1 0x1 PUSH1 0xA0 SHL SUB DUP6 AND PUSH1 0x0 SWAP1 DUP2 MSTORE SWAP3 MSTORE SWAP1 KECCAK256 DUP1 SLOAD PUSH1 0xFF NOT AND PUSH1 0x1 OR SWAP1 SSTORE CALLER SWAP2 PUSH1 0x1 PUSH1 0x1 PUSH1 0xA0 SHL SUB AND SWAP1 PUSH32 0x2F8788117E7EFF1D82E926EC794901D17C78024A50270940304540A733656F0D DUP2 DUP1 LOG4 PUSH1 0x1 SWAP1 JUMP JUMPDEST POP SWAP1 POP SWAP1 JUMP JUMPDEST PUSH1 0x1 PUSH1 0x1 PUSH1 0xA0 SHL SUB DUP2 AND PUSH1 0x0 SWAP1 DUP2 MSTORE PUSH1 0x0 DUP1 MLOAD PUSH1 0x20 PUSH2 0x59D1 DUP4 CODECOPY DUP2 MLOAD SWAP2 MSTORE PUSH1 0x20 MSTORE PUSH1 0x40 DUP2 KECCAK256 PUSH32 0x9F2DF0FED2C77648DE5860A4CC508CD0818C85B8B8A1AB4CEEEF8D981C8956A6 SWAP1 PUSH1 0x0 DUP1 MLOAD PUSH1 0x20 PUSH2 0x59F1 DUP4 CODECOPY DUP2 MLOAD SWAP2 MSTORE SWAP1 PUSH1 0xFF SWAP1 PUSH2 0x49F0 JUMP JUMPDEST PUSH1 0x1 PUSH1 0x1 PUSH1 0xA0 SHL SUB DUP2 AND PUSH1 0x0 SWAP1 DUP2 MSTORE PUSH32 0xC4ACE3E9825E9C0E31F6BFE0307587A31E0F7E0A8FCDE3632614313093AC5EA0 PUSH1 0x20 MSTORE PUSH1 0x40 DUP2 KECCAK256 PUSH32 0x1CA4917A93BBF937A078CF9CC2B3D0C4AAAC3367AAE1018D3D982BB6E49887F1 SWAP1 PUSH1 0x0 DUP1 MLOAD PUSH1 0x20 PUSH2 0x59F1 DUP4 CODECOPY DUP2 MLOAD SWAP2 MSTORE SWAP1 PUSH1 0xFF SWAP1 PUSH2 0x49F0 JUMP JUMPDEST PUSH1 0x1 PUSH1 0x1 PUSH1 0xA0 SHL SUB DUP2 AND PUSH1 0x0 SWAP1 DUP2 MSTORE PUSH32 0x268477D1C17BF7595397186358FEC802C44C92BB39292DE205AD03CBFE096E02 PUSH1 0x20 MSTORE PUSH1 0x40 DUP2 KECCAK256 PUSH32 0x73E573F9566D61418A34D5DE3FF49360F9C51FEC37F7486551670290F6285DAB SWAP1 PUSH1 0x0 DUP1 MLOAD PUSH1 0x20 PUSH2 0x59F1 DUP4 CODECOPY DUP2 MLOAD SWAP2 MSTORE SWAP1 PUSH1 0xFF SWAP1 PUSH2 0x49F0 JUMP JUMPDEST PUSH1 0x1 PUSH1 0x1 PUSH1 0xA0 SHL SUB DUP2 AND PUSH1 0x0 SWAP1 DUP2 MSTORE PUSH32 0xC3E71CDF4D6B19B51728813415F497E36084F42794EE08DA6CEADE2E0E3AB212 PUSH1 0x20 MSTORE PUSH1 0x40 DUP2 KECCAK256 PUSH32 0x59A1C48E5837AD7A7F3DCEDCBE129BF3249EC4FBF651FD4F5E2600EAD39FE2F5 SWAP1 PUSH1 0x0 DUP1 MLOAD PUSH1 0x20 PUSH2 0x59F1 DUP4 CODECOPY DUP2 MLOAD SWAP2 MSTORE SWAP1 PUSH1 0xFF SWAP1 PUSH2 0x49F0 JUMP JUMPDEST PUSH1 0x0 DUP2 DUP2 MSTORE PUSH1 0x0 DUP1 MLOAD PUSH1 0x20 PUSH2 0x59F1 DUP4 CODECOPY DUP2 MLOAD SWAP2 MSTORE PUSH1 0x20 DUP2 DUP2 MSTORE PUSH1 0x40 DUP1 DUP5 KECCAK256 PUSH1 0x1 PUSH1 0x1 PUSH1 0xA0 SHL SUB DUP8 AND DUP6 MSTORE SWAP1 SWAP2 MSTORE DUP3 KECCAK256 SWAP2 SWAP3 SWAP2 PUSH1 0xFF SWAP1 PUSH2 0x49F0 JUMP JUMPDEST PUSH1 0x1 PUSH1 0x1 PUSH1 0xA0 SHL SUB DUP2 AND PUSH1 0x0 SWAP1 DUP2 MSTORE PUSH32 0x67586683F6D64B48AE561A6B67340D13089731F2F08FD2973581B1FC3E96E39D PUSH1 0x20 MSTORE PUSH1 0x40 DUP2 KECCAK256 PUSH32 0x458E7120010273A45C50A429C988A509ADEB4407885607D9797DA91C85E8D706 SWAP1 PUSH1 0x0 DUP1 MLOAD PUSH1 0x20 PUSH2 0x59F1 DUP4 CODECOPY DUP2 MLOAD SWAP2 MSTORE SWAP1 PUSH1 0xFF SWAP1 JUMPDEST SLOAD AND ISZERO PUSH2 0x4A56 JUMPI DUP2 DUP4 MSTORE PUSH1 0x20 SWAP1 DUP2 MSTORE PUSH1 0x40 DUP1 DUP5 KECCAK256 PUSH1 0x1 PUSH1 0x1 PUSH1 0xA0 SHL SUB DUP7 AND PUSH1 0x0 SWAP1 DUP2 MSTORE SWAP3 MSTORE SWAP1 KECCAK256 DUP1 SLOAD PUSH1 0xFF NOT AND SWAP1 SSTORE CALLER SWAP3 PUSH1 0x1 PUSH1 0x1 PUSH1 0xA0 SHL SUB AND SWAP2 PUSH32 0xF6391F5C32D9C69D2A47EA670B442974B53935D1EDC7FD64EB21E047A839171B SWAP1 DUP1 LOG4 PUSH1 0x1 SWAP1 JUMP JUMPDEST PUSH1 0x0 DUP2 DUP2 MSTORE PUSH1 0x0 DUP1 MLOAD PUSH1 0x20 PUSH2 0x59F1 DUP4 CODECOPY DUP2 MLOAD SWAP2 MSTORE PUSH1 0x20 DUP2 DUP2 MSTORE PUSH1 0x40 DUP1 DUP5 KECCAK256 PUSH1 0x1 PUSH1 0x1 PUSH1 0xA0 SHL SUB DUP8 AND DUP6 MSTORE SWAP1 SWAP2 MSTORE DUP3 KECCAK256 SWAP2 SWAP3 SWAP2 PUSH1 0xFF SWAP1 PUSH2 0x4D59 JUMP JUMPDEST SWAP1 DUP2 PUSH1 0x20 SWAP2 SUB SLT PUSH2 0x37C JUMPI MLOAD SWAP1 JUMP JUMPDEST SWAP3 SWAP2 SWAP1 PUSH1 0x1 PUSH1 0x1 PUSH1 0xA0 SHL SUB DUP5 AND ISZERO PUSH2 0x4818 JUMPI PUSH2 0x888 SWAP4 PUSH2 0x4F63 JUMP JUMPDEST PUSH1 0x0 DUP1 MLOAD PUSH1 0x20 PUSH2 0x5971 DUP4 CODECOPY DUP2 MLOAD SWAP2 MSTORE SLOAD PUSH1 0x1 PUSH1 0x1 PUSH1 0xA0 SHL SUB AND CALLER SUB PUSH2 0x4E42 JUMPI JUMP JUMPDEST PUSH1 0x40 MLOAD PUSH4 0x118CDAA7 PUSH1 0xE0 SHL DUP2 MSTORE CALLER PUSH1 0x4 DUP3 ADD MSTORE PUSH1 0x24 SWAP1 REVERT JUMPDEST SWAP1 PUSH1 0x1 PUSH1 0x1 PUSH1 0xA0 SHL SUB DUP3 AND SWAP1 DUP2 ISZERO PUSH2 0x4800 JUMPI PUSH2 0x4E95 PUSH1 0x40 MLOAD SWAP2 PUSH1 0x1 DUP4 MSTORE PUSH1 0x20 DUP4 ADD MSTORE PUSH1 0x40 DUP3 ADD SWAP1 PUSH1 0x1 DUP3 MSTORE PUSH1 0x1 PUSH1 0x60 DUP5 ADD MSTORE PUSH1 0x80 DUP4 ADD PUSH1 0x40 MSTORE JUMP JUMPDEST SWAP2 PUSH1 0x0 PUSH1 0x40 MLOAD PUSH2 0x4EA4 DUP2 PUSH2 0x7EF JUMP JUMPDEST MSTORE PUSH2 0x4EAD PUSH2 0x4785 JUMP JUMPDEST PUSH1 0x0 MSTORE PUSH1 0x4 PUSH1 0x20 MSTORE PUSH1 0xFF PUSH1 0x40 PUSH1 0x0 KECCAK256 SLOAD AND PUSH2 0x4ECB JUMPI PUSH2 0x888 SWAP3 PUSH2 0x5636 JUMP JUMPDEST PUSH1 0x40 MLOAD PUSH3 0x461BCD PUSH1 0xE5 SHL DUP2 MSTORE PUSH1 0x20 PUSH1 0x4 DUP3 ADD MSTORE PUSH1 0x32 PUSH1 0x24 DUP3 ADD MSTORE PUSH32 0x566572616C69784D617374657252656769737472793A2066726F6D2061646472 PUSH1 0x44 DUP3 ADD MSTORE PUSH18 0x195CDCC81A5CC8189B1858DADB1A5CDD1959 PUSH1 0x72 SHL PUSH1 0x64 DUP3 ADD MSTORE PUSH1 0x84 SWAP1 REVERT JUMPDEST PUSH2 0x888 SWAP1 PUSH2 0x4F37 PUSH2 0x5245 JUMP JUMPDEST PUSH2 0x2F12 PUSH2 0x5245 JUMP JUMPDEST PUSH2 0x4F47 PUSH2 0x5245 JUMP JUMPDEST PUSH2 0x4F4F PUSH2 0x5245 JUMP JUMPDEST PUSH1 0x1 PUSH1 0x0 DUP1 MLOAD PUSH1 0x20 PUSH2 0x5A31 DUP4 CODECOPY DUP2 MLOAD SWAP2 MSTORE SSTORE JUMP JUMPDEST SWAP1 SWAP3 SWAP2 PUSH2 0x4F6E PUSH2 0x4785 JUMP JUMPDEST PUSH1 0x1 PUSH1 0x1 PUSH1 0xA0 SHL SUB DUP3 AND SWAP4 DUP5 ISZERO ISZERO SWAP4 DUP5 PUSH2 0x50B2 JUMPI JUMPDEST DUP2 MLOAD DUP4 MLOAD SWAP1 DUP2 DUP2 SUB PUSH2 0x3C92 JUMPI POP POP PUSH1 0x0 JUMPDEST DUP3 MLOAD DUP2 LT ISZERO PUSH2 0x4FE4 JUMPI DUP1 DUP7 DUP7 PUSH1 0x1 SWAP4 PUSH1 0x5 SHL PUSH1 0x20 DUP1 DUP3 DUP10 ADD ADD MLOAD SWAP2 DUP10 ADD ADD MLOAD SWAP3 PUSH2 0x4FC2 JUMPI JUMPDEST POP POP POP ADD PUSH2 0x4F94 JUMP JUMPDEST PUSH2 0x4FDA SWAP2 PUSH2 0x100A PUSH2 0x4FD2 SWAP3 PUSH2 0xD47 JUMP JUMPDEST SWAP2 DUP3 SLOAD PUSH2 0x438E JUMP JUMPDEST SWAP1 SSTORE CODESIZE DUP7 DUP2 PUSH2 0x4FB9 JUMP JUMPDEST POP SWAP4 SWAP1 SWAP2 SWAP3 SWAP5 PUSH1 0x1 DUP4 MLOAD EQ PUSH1 0x0 EQ PUSH2 0x5076 JUMPI PUSH1 0x20 DUP4 DUP2 ADD MLOAD DUP6 DUP3 ADD MLOAD PUSH1 0x40 DUP1 MLOAD SWAP3 DUP4 MSTORE SWAP3 DUP3 ADD MSTORE PUSH1 0x0 SWAP2 CALLER SWAP2 PUSH32 0xC3D58168C5AE7397731D063D5BBF3D657854427343F4C083240F7AACAA2D0F62 SWAP2 SWAP1 LOG4 JUMPDEST PUSH2 0x5040 JUMPI JUMPDEST POP POP POP POP JUMP JUMPDEST DUP1 MLOAD PUSH1 0x1 SUB PUSH2 0x5067 JUMPI SWAP1 PUSH1 0x20 DUP1 PUSH2 0x505E SWAP6 SWAP4 ADD MLOAD SWAP2 ADD MLOAD SWAP2 CALLER PUSH2 0x5587 JUMP JUMPDEST CODESIZE DUP1 DUP1 DUP1 PUSH2 0x503A JUMP JUMPDEST PUSH2 0x5071 SWAP4 CALLER PUSH2 0x538D JUMP JUMPDEST PUSH2 0x505E JUMP JUMPDEST PUSH1 0x0 PUSH1 0x40 MLOAD PUSH32 0x4A39DC06D4C0DBC64B70AF90FD698A233A518AA5D07E595D983B8C0526C8F7FB CALLER SWAP2 DUP1 PUSH2 0x50AA DUP10 DUP10 DUP4 PUSH2 0x5611 JUMP JUMPDEST SUB SWAP1 LOG4 PUSH2 0x5035 JUMP JUMPDEST PUSH1 0x1 PUSH1 0x1 PUSH1 0xA0 SHL SUB DUP5 AND PUSH1 0x0 SWAP1 DUP2 MSTORE PUSH1 0x4 PUSH1 0x20 MSTORE PUSH1 0x40 SWAP1 KECCAK256 SLOAD PUSH2 0x50D8 SWAP1 PUSH1 0xFF AND ISZERO PUSH2 0x5274 JUMP JUMPDEST PUSH2 0x4F83 JUMP JUMPDEST SWAP2 SWAP4 SWAP3 SWAP1 PUSH2 0x50E9 PUSH2 0x4785 JUMP JUMPDEST PUSH1 0x1 PUSH1 0x1 PUSH1 0xA0 SHL SUB DUP4 DUP2 AND DUP1 PUSH2 0x5183 JUMPI JUMPDEST POP DUP2 AND ISZERO ISZERO DUP1 PUSH2 0x5154 JUMPI JUMPDEST PUSH2 0x5111 DUP4 DUP8 DUP5 DUP8 PUSH2 0x5787 JUMP JUMPDEST PUSH2 0x511D JUMPI JUMPDEST POP POP POP POP POP JUMP JUMPDEST DUP5 MLOAD PUSH1 0x1 SUB PUSH2 0x5143 JUMPI PUSH1 0x20 DUP1 PUSH2 0x5139 SWAP7 ADD MLOAD SWAP3 ADD MLOAD SWAP3 CALLER PUSH2 0x55BC JUMP JUMPDEST CODESIZE DUP1 DUP1 DUP1 DUP1 PUSH2 0x5116 JUMP JUMPDEST PUSH2 0x514F SWAP5 SWAP2 SWAP3 CALLER PUSH2 0x5488 JUMP JUMPDEST PUSH2 0x5139 JUMP JUMPDEST PUSH2 0x517E PUSH2 0x5179 PUSH2 0x236F PUSH2 0x2368 DUP6 PUSH1 0x1 DUP1 PUSH1 0xA0 SHL SUB AND PUSH1 0x0 MSTORE PUSH1 0x4 PUSH1 0x20 MSTORE PUSH1 0x40 PUSH1 0x0 KECCAK256 SWAP1 JUMP JUMPDEST PUSH2 0x5274 JUMP JUMPDEST PUSH2 0x5105 JUMP JUMPDEST PUSH1 0x0 MSTORE PUSH1 0x4 PUSH1 0x20 MSTORE PUSH1 0xFF PUSH1 0x40 PUSH1 0x0 KECCAK256 SLOAD AND PUSH2 0x4ECB JUMPI CODESIZE PUSH2 0x50FA JUMP JUMPDEST SWAP1 DUP2 EXTCODESIZE ISZERO PUSH2 0x5224 JUMPI PUSH1 0x0 DUP1 MLOAD PUSH1 0x20 PUSH2 0x59B1 DUP4 CODECOPY DUP2 MLOAD SWAP2 MSTORE DUP1 SLOAD PUSH1 0x1 PUSH1 0x1 PUSH1 0xA0 SHL SUB NOT AND PUSH1 0x1 PUSH1 0x1 PUSH1 0xA0 SHL SUB DUP5 AND SWAP1 DUP2 OR SWAP1 SWAP2 SSTORE PUSH32 0xBC7CD75A20EE27FD9ADEBAB32041F755214DBC6BFFA90CC0225B39DA2E5C2D3B PUSH1 0x0 DUP1 LOG2 DUP1 MLOAD ISZERO PUSH2 0x5209 JUMPI PUSH2 0x5206 SWAP2 PUSH2 0x55F3 JUMP JUMPDEST POP JUMP JUMPDEST POP POP CALLVALUE PUSH2 0x5212 JUMPI JUMP JUMPDEST PUSH1 0x40 MLOAD PUSH4 0xB398979F PUSH1 0xE0 SHL DUP2 MSTORE PUSH1 0x4 SWAP1 REVERT JUMPDEST PUSH1 0x40 MLOAD PUSH4 0x4C9C8CE3 PUSH1 0xE0 SHL DUP2 MSTORE PUSH1 0x1 PUSH1 0x1 PUSH1 0xA0 SHL SUB DUP4 AND PUSH1 0x4 DUP3 ADD MSTORE PUSH1 0x24 SWAP1 REVERT JUMPDEST PUSH1 0xFF PUSH1 0x0 DUP1 MLOAD PUSH1 0x20 PUSH2 0x5A51 DUP4 CODECOPY DUP2 MLOAD SWAP2 MSTORE SLOAD PUSH1 0x40 SHR AND ISZERO PUSH2 0x5262 JUMPI JUMP JUMPDEST PUSH1 0x40 MLOAD PUSH4 0x1AFCD79F PUSH1 0xE3 SHL DUP2 MSTORE PUSH1 0x4 SWAP1 REVERT JUMPDEST ISZERO PUSH2 0x527B JUMPI JUMP JUMPDEST PUSH1 0x40 MLOAD PUSH3 0x461BCD PUSH1 0xE5 SHL DUP2 MSTORE PUSH1 0x20 PUSH1 0x4 DUP3 ADD MSTORE PUSH1 0x30 PUSH1 0x24 DUP3 ADD MSTORE PUSH32 0x566572616C69784D617374657252656769737472793A20746F20616464726573 PUSH1 0x44 DUP3 ADD MSTORE PUSH16 0x1CC81A5CC8189B1858DADB1A5CDD1959 PUSH1 0x82 SHL PUSH1 0x64 DUP3 ADD MSTORE PUSH1 0x84 SWAP1 REVERT JUMPDEST SWAP1 DUP2 PUSH1 0x20 SWAP2 SUB SLT PUSH2 0x37C JUMPI MLOAD PUSH2 0xA33 DUP2 PUSH2 0x443 JUMP JUMPDEST SWAP3 PUSH2 0x531D PUSH2 0xA33 SWAP6 SWAP4 PUSH2 0x1A32 SWAP4 PUSH1 0x1 DUP1 PUSH1 0xA0 SHL SUB AND DUP7 MSTORE PUSH1 0x0 PUSH1 0x20 DUP8 ADD MSTORE PUSH1 0xA0 PUSH1 0x40 DUP8 ADD MSTORE PUSH1 0xA0 DUP7 ADD SWAP1 PUSH2 0x14DA JUMP JUMPDEST SWAP1 DUP5 DUP3 SUB PUSH1 0x60 DUP7 ADD MSTORE PUSH2 0x14DA JUMP JUMPDEST SWAP4 SWAP1 PUSH2 0xA33 SWAP6 SWAP4 PUSH2 0x531D SWAP2 PUSH2 0x1A32 SWAP5 PUSH1 0x1 DUP1 PUSH1 0xA0 SHL SUB DUP1 SWAP3 AND DUP9 MSTORE AND PUSH1 0x20 DUP8 ADD MSTORE PUSH1 0xA0 PUSH1 0x40 DUP8 ADD MSTORE PUSH1 0xA0 DUP7 ADD SWAP1 PUSH2 0x14DA JUMP JUMPDEST RETURNDATASIZE ISZERO PUSH2 0x5388 JUMPI RETURNDATASIZE SWAP1 PUSH2 0x536E DUP3 PUSH2 0xE94 JUMP JUMPDEST SWAP2 PUSH2 0x537C PUSH1 0x40 MLOAD SWAP4 DUP5 PUSH2 0x825 JUMP JUMPDEST DUP3 MSTORE RETURNDATASIZE PUSH1 0x0 PUSH1 0x20 DUP5 ADD RETURNDATACOPY JUMP JUMPDEST PUSH1 0x60 SWAP1 JUMP JUMPDEST SWAP3 SWAP4 SWAP2 SWAP1 SWAP4 DUP5 EXTCODESIZE PUSH2 0x539F JUMPI POP POP POP POP POP JUMP JUMPDEST PUSH1 0x20 SWAP2 PUSH2 0x53C2 PUSH1 0x40 MLOAD SWAP5 DUP6 SWAP4 DUP5 SWAP4 PUSH4 0xBC197C81 PUSH1 0xE0 SHL SWAP9 DUP10 DUP7 MSTORE PUSH1 0x4 DUP7 ADD PUSH2 0x52EE JUMP JUMPDEST SUB DUP2 PUSH1 0x0 PUSH1 0x1 PUSH1 0x1 PUSH1 0xA0 SHL SUB DUP9 AND GAS CALL PUSH1 0x0 SWAP2 DUP2 PUSH2 0x5457 JUMPI JUMPDEST POP PUSH2 0x541A JUMPI DUP3 PUSH2 0x53E9 PUSH2 0x535D JUMP JUMPDEST DUP1 MLOAD SWAP2 SWAP1 DUP3 PUSH2 0x5413 JUMPI PUSH1 0x40 MLOAD PUSH4 0x2BFA23E7 PUSH1 0xE1 SHL DUP2 MSTORE PUSH1 0x1 PUSH1 0x1 PUSH1 0xA0 SHL SUB DUP4 AND PUSH1 0x4 DUP3 ADD MSTORE PUSH1 0x24 SWAP1 REVERT JUMPDEST PUSH1 0x20 SWAP2 POP ADD REVERT JUMPDEST PUSH1 0x1 PUSH1 0x1 PUSH1 0xE0 SHL SUB NOT AND SUB PUSH2 0x5434 JUMPI POP CODESIZE DUP1 DUP1 DUP1 DUP1 PUSH2 0x5116 JUMP JUMPDEST PUSH1 0x40 MLOAD PUSH4 0x2BFA23E7 PUSH1 0xE1 SHL DUP2 MSTORE PUSH1 0x1 PUSH1 0x1 PUSH1 0xA0 SHL SUB SWAP2 SWAP1 SWAP2 AND PUSH1 0x4 DUP3 ADD MSTORE PUSH1 0x24 SWAP1 REVERT JUMPDEST PUSH2 0x547A SWAP2 SWAP3 POP PUSH1 0x20 RETURNDATASIZE PUSH1 0x20 GT PUSH2 0x5481 JUMPI JUMPDEST PUSH2 0x5472 DUP2 DUP4 PUSH2 0x825 JUMP JUMPDEST DUP2 ADD SWAP1 PUSH2 0x52D9 JUMP JUMPDEST SWAP1 CODESIZE PUSH2 0x53DB JUMP JUMPDEST POP RETURNDATASIZE PUSH2 0x5468 JUMP JUMPDEST SWAP4 SWAP3 SWAP1 SWAP5 SWAP2 SWAP5 DUP6 EXTCODESIZE PUSH2 0x549D JUMPI JUMPDEST POP POP POP POP POP POP JUMP JUMPDEST PUSH2 0x54C0 PUSH1 0x20 SWAP4 PUSH1 0x40 MLOAD SWAP6 DUP7 SWAP5 DUP6 SWAP5 PUSH4 0xBC197C81 PUSH1 0xE0 SHL SWAP10 DUP11 DUP8 MSTORE PUSH1 0x4 DUP8 ADD PUSH2 0x532B JUMP JUMPDEST SUB DUP2 PUSH1 0x0 PUSH1 0x1 PUSH1 0x1 PUSH1 0xA0 SHL SUB DUP9 AND GAS CALL PUSH1 0x0 SWAP2 DUP2 PUSH2 0x5502 JUMPI JUMPDEST POP PUSH2 0x54E7 JUMPI DUP3 PUSH2 0x53E9 PUSH2 0x535D JUMP JUMPDEST PUSH1 0x1 PUSH1 0x1 PUSH1 0xE0 SHL SUB NOT AND SUB PUSH2 0x5434 JUMPI POP CODESIZE DUP1 DUP1 DUP1 DUP1 DUP1 PUSH2 0x5495 JUMP JUMPDEST PUSH2 0x551C SWAP2 SWAP3 POP PUSH1 0x20 RETURNDATASIZE PUSH1 0x20 GT PUSH2 0x5481 JUMPI PUSH2 0x5472 DUP2 DUP4 PUSH2 0x825 JUMP JUMPDEST SWAP1 CODESIZE PUSH2 0x54D9 JUMP JUMPDEST SWAP1 SWAP3 PUSH1 0xA0 SWAP3 PUSH2 0xA33 SWAP6 SWAP5 PUSH1 0x1 DUP1 DUP7 SHL SUB AND DUP4 MSTORE PUSH1 0x0 PUSH1 0x20 DUP5 ADD MSTORE PUSH1 0x40 DUP4 ADD MSTORE PUSH1 0x60 DUP3 ADD MSTORE DUP2 PUSH1 0x80 DUP3 ADD MSTORE ADD SWAP1 PUSH2 0x90E JUMP JUMPDEST SWAP2 SWAP3 PUSH2 0xA33 SWAP6 SWAP5 SWAP2 PUSH1 0xA0 SWAP5 PUSH1 0x1 DUP1 DUP8 SHL SUB DUP1 SWAP3 AND DUP6 MSTORE AND PUSH1 0x20 DUP5 ADD MSTORE PUSH1 0x40 DUP4 ADD MSTORE PUSH1 0x60 DUP3 ADD MSTORE DUP2 PUSH1 0x80 DUP3 ADD MSTORE ADD SWAP1 PUSH2 0x90E JUMP JUMPDEST SWAP3 SWAP4 SWAP2 SWAP1 SWAP4 DUP5 EXTCODESIZE PUSH2 0x5599 JUMPI POP POP POP POP POP JUMP JUMPDEST PUSH1 0x20 SWAP2 PUSH2 0x53C2 PUSH1 0x40 MLOAD SWAP5 DUP6 SWAP4 DUP5 SWAP4 PUSH4 0xF23A6E61 PUSH1 0xE0 SHL SWAP9 DUP10 DUP7 MSTORE PUSH1 0x4 DUP7 ADD PUSH2 0x5523 JUMP JUMPDEST SWAP4 SWAP3 SWAP1 SWAP5 SWAP2 SWAP5 DUP6 EXTCODESIZE PUSH2 0x55D0 JUMPI POP POP POP POP POP POP JUMP JUMPDEST PUSH2 0x54C0 PUSH1 0x20 SWAP4 PUSH1 0x40 MLOAD SWAP6 DUP7 SWAP5 DUP6 SWAP5 PUSH4 0xF23A6E61 PUSH1 0xE0 SHL SWAP10 DUP11 DUP8 MSTORE PUSH1 0x4 DUP8 ADD PUSH2 0x5554 JUMP JUMPDEST PUSH1 0x0 DUP1 PUSH2 0xA33 SWAP4 PUSH1 0x20 DUP2 MLOAD SWAP2 ADD DUP5 GAS DELEGATECALL PUSH2 0x560B PUSH2 0x535D JUMP JUMPDEST SWAP2 PUSH2 0x590D JUMP JUMPDEST SWAP1 SWAP2 PUSH2 0x5628 PUSH2 0xA33 SWAP4 PUSH1 0x40 DUP5 MSTORE PUSH1 0x40 DUP5 ADD SWAP1 PUSH2 0x14DA JUMP JUMPDEST SWAP2 PUSH1 0x20 DUP2 DUP5 SUB SWAP2 ADD MSTORE PUSH2 0x14DA JUMP JUMPDEST SWAP3 SWAP2 SWAP1 DUP1 MLOAD DUP3 MLOAD SWAP1 DUP2 DUP2 SUB PUSH2 0x3C92 JUMPI POP POP PUSH1 0x0 JUMPDEST DUP2 MLOAD DUP2 LT ISZERO PUSH2 0x56E7 JUMPI PUSH1 0x5 DUP2 SWAP1 SHL DUP3 DUP2 ADD PUSH1 0x20 SWAP1 DUP2 ADD MLOAD SWAP2 DUP6 ADD ADD MLOAD PUSH1 0x1 PUSH1 0x1 PUSH1 0xA0 SHL SUB DUP8 AND PUSH2 0x567F JUMPI JUMPDEST POP POP PUSH1 0x1 ADD PUSH2 0x564A JUMP JUMPDEST PUSH2 0x568C DUP8 PUSH2 0x100A DUP5 PUSH2 0xD47 JUMP JUMPDEST SLOAD DUP2 DUP2 LT PUSH2 0x56B0 JUMPI DUP8 PUSH2 0x100A PUSH1 0x1 SWAP6 SWAP5 SWAP4 PUSH2 0x56A8 SWAP4 SUB SWAP4 PUSH2 0xD47 JUMP JUMPDEST SSTORE SWAP1 CODESIZE PUSH2 0x5675 JUMP JUMPDEST PUSH1 0x40 MLOAD PUSH4 0x3DEE4C5 PUSH1 0xE0 SHL DUP2 MSTORE PUSH1 0x1 PUSH1 0x1 PUSH1 0xA0 SHL SUB DUP10 AND PUSH1 0x4 DUP3 ADD MSTORE PUSH1 0x24 DUP2 ADD SWAP2 SWAP1 SWAP2 MSTORE PUSH1 0x44 DUP2 ADD DUP3 SWAP1 MSTORE PUSH1 0x64 DUP2 ADD DUP4 SWAP1 MSTORE PUSH1 0x84 SWAP1 REVERT JUMPDEST POP SWAP1 PUSH1 0x0 SWAP3 SWAP4 SWAP2 PUSH1 0x1 DUP2 MLOAD EQ DUP5 EQ PUSH2 0x5748 JUMPI PUSH1 0x20 SWAP1 DUP2 ADD MLOAD SWAP2 DUP2 ADD MLOAD PUSH1 0x40 DUP1 MLOAD SWAP4 DUP5 MSTORE SWAP2 DUP4 ADD MSTORE PUSH1 0x1 PUSH1 0x1 PUSH1 0xA0 SHL SUB SWAP1 SWAP3 AND SWAP2 CALLER SWAP2 PUSH32 0xC3D58168C5AE7397731D063D5BBF3D657854427343F4C083240F7AACAA2D0F62 SWAP2 DUP2 SWAP1 DUP2 ADD JUMPDEST SUB SWAP1 LOG4 JUMP JUMPDEST PUSH1 0x40 MLOAD PUSH1 0x1 PUSH1 0x1 PUSH1 0xA0 SHL SUB SWAP1 SWAP4 AND SWAP3 CALLER SWAP3 PUSH32 0x4A39DC06D4C0DBC64B70AF90FD698A233A518AA5D07E595D983B8C0526C8F7FB SWAP3 DUP3 SWAP2 PUSH2 0x5743 SWAP2 DUP4 PUSH2 0x5611 JUMP JUMPDEST SWAP4 SWAP3 SWAP2 DUP1 MLOAD DUP4 MLOAD SWAP1 DUP2 DUP2 SUB PUSH2 0x3C92 JUMPI POP POP PUSH1 0x0 JUMPDEST DUP2 MLOAD DUP2 LT ISZERO PUSH2 0x5868 JUMPI PUSH1 0x5 DUP2 SWAP1 SHL DUP3 DUP2 ADD PUSH1 0x20 SWAP1 DUP2 ADD MLOAD SWAP2 DUP7 ADD ADD MLOAD PUSH1 0x1 PUSH1 0x1 PUSH1 0xA0 SHL SUB SWAP3 SWAP2 DUP6 SWAP1 DUP10 DUP6 AND PUSH2 0x57F8 JUMPI JUMPDEST PUSH1 0x1 SWAP5 DUP3 AND PUSH2 0x57DE JUMPI JUMPDEST POP POP POP ADD PUSH2 0x579B JUMP JUMPDEST PUSH2 0x57EE SWAP2 PUSH2 0x100A PUSH2 0x4FD2 SWAP3 PUSH2 0xD47 JUMP JUMPDEST SWAP1 SSTORE CODESIZE DUP5 DUP2 PUSH2 0x57D5 JUMP JUMPDEST SWAP2 SWAP3 SWAP4 SWAP1 POP PUSH2 0x580A DUP10 PUSH2 0x100A DUP5 PUSH2 0xD47 JUMP JUMPDEST SLOAD DUP4 DUP2 LT PUSH2 0x5831 JUMPI SWAP2 DUP7 SWAP2 DUP5 PUSH1 0x1 SWAP7 SWAP6 SWAP5 SUB PUSH2 0x5829 DUP13 PUSH2 0x100A DUP6 PUSH2 0xD47 JUMP JUMPDEST SSTORE SWAP5 POP PUSH2 0x57CB JUMP JUMPDEST PUSH1 0x40 MLOAD PUSH4 0x3DEE4C5 PUSH1 0xE0 SHL DUP2 MSTORE PUSH1 0x1 PUSH1 0x1 PUSH1 0xA0 SHL SUB DUP12 AND PUSH1 0x4 DUP3 ADD MSTORE PUSH1 0x24 DUP2 ADD SWAP2 SWAP1 SWAP2 MSTORE PUSH1 0x44 DUP2 ADD DUP5 SWAP1 MSTORE PUSH1 0x64 DUP2 ADD DUP4 SWAP1 MSTORE PUSH1 0x84 SWAP1 REVERT JUMPDEST POP DUP1 MLOAD SWAP4 SWAP5 SWAP4 SWAP2 SWAP3 SWAP2 PUSH1 0x1 SUB PUSH2 0x58CA JUMPI PUSH1 0x20 SWAP1 DUP2 ADD MLOAD SWAP2 DUP2 ADD MLOAD PUSH1 0x40 DUP1 MLOAD SWAP4 DUP5 MSTORE SWAP2 DUP4 ADD MSTORE PUSH1 0x1 PUSH1 0x1 PUSH1 0xA0 SHL SUB SWAP3 DUP4 AND SWAP4 SWAP1 SWAP3 AND SWAP2 CALLER SWAP2 PUSH32 0xC3D58168C5AE7397731D063D5BBF3D657854427343F4C083240F7AACAA2D0F62 SWAP2 DUP2 SWAP1 DUP2 ADD PUSH2 0x5743 JUMP JUMPDEST PUSH1 0x40 MLOAD PUSH1 0x1 PUSH1 0x1 PUSH1 0xA0 SHL SUB SWAP4 DUP5 AND SWAP5 SWAP1 SWAP4 AND SWAP3 CALLER SWAP3 PUSH32 0x4A39DC06D4C0DBC64B70AF90FD698A233A518AA5D07E595D983B8C0526C8F7FB SWAP3 DUP3 SWAP2 PUSH2 0x5743 SWAP2 DUP4 PUSH2 0x5611 JUMP JUMPDEST SWAP1 PUSH2 0x5934 JUMPI POP DUP1 MLOAD ISZERO PUSH2 0x5922 JUMPI PUSH1 0x20 DUP2 MLOAD SWAP2 ADD REVERT JUMPDEST PUSH1 0x40 MLOAD PUSH4 0xD6BDA275 PUSH1 0xE0 SHL DUP2 MSTORE PUSH1 0x4 SWAP1 REVERT JUMPDEST DUP2 MLOAD ISZERO DUP1 PUSH2 0x5967 JUMPI JUMPDEST PUSH2 0x5945 JUMPI POP SWAP1 JUMP JUMPDEST PUSH1 0x40 MLOAD PUSH4 0x9996B315 PUSH1 0xE0 SHL DUP2 MSTORE PUSH1 0x1 PUSH1 0x1 PUSH1 0xA0 SHL SUB SWAP1 SWAP2 AND PUSH1 0x4 DUP3 ADD MSTORE PUSH1 0x24 SWAP1 REVERT JUMPDEST POP DUP1 EXTCODESIZE ISZERO PUSH2 0x593D JUMP INVALID SWAP1 AND 0xD0 SWAP14 PUSH19 0xD40FDAE2FD8CEAC6B6234C7706214FD39C1CD1 0xE6 MULMOD LOG0 MSTORE DUP13 NOT SWAP4 STOP 0xB7 0xDB 0x2D 0xD0 DUP16 0xCB PUSH3 0xD0C9E0 DUP13 MLOAD SWAP5 SHR 0xAE MSTORE8 0xC2 PUSH8 0x786A0B75803FB796 MULMOD MUL 0xFC DUP15 0xF9 PUSH30 0x360894A13BA1A3210667C828492DB98DCA3E2076CC3735A920A3CA505D38 0x2B 0xBC SLOAD SWAP16 0xE2 PUSH6 0x6C81D2947B3B SWAP2 EXTCODEHASH EXP MSTORE8 0xB9 0xEA DUP7 0xC7 0x1E DIV SWAP16 GASPRICE SHL DUP11 LOG2 EXTCODECOPY MULMOD 0xA8 LOG0 0x5C 0xB8 0xD4 MUL 0xDD PUSH28 0xC7DEC4DCEEDDA775E58DD541E08A116C6C53815C0BD028192F7B6268 STOP 0xCD 0x5E 0xD1 0x5C PUSH15 0x187E77E9AEE88184C21F4F2182AB58 0x27 0xCB EXTCODESIZE PUSH31 0x7FBEDCD63F033009B779B17422D0DF92223018B32B4D1FA46E071723D6817 0xE2 BASEFEE PUSH14 0x3BECC55F00F0C57E16840DF040 CALL POP DUP9 0xDC 0x2F DUP2 INVALID CODECOPY SHR CODECOPY 0x23 0xBE 0xC7 RETURNDATACOPY 0x23 0xA9 PUSH7 0x2EFC9C229C6A00 DUP9 0xBE MSTORE8 PUSH14 0x5240C274A3B1D3A1BE54482FD9CA LOG2 SWAP5 CREATE DUP13 PUSH3 0xA7CDE5 PUSH10 0xF49A3C4502A264697066 PUSH20 0x582212201A008624D346420CB072CEF78EF8DC73 0x24 PUSH20 0x4C77DE8B4C62F2904EEC7E895B4864736F6C6343 STOP ADDMOD AND STOP CALLER "},"methodIdentifiers":{"APPRAISER_ROLE()":"acdd7c7e","ASSIGNER_ROLE()":"46184dc4","AUDITOR_ROLE()":"6e1d616e","DEFAULT_ADMIN_ROLE()":"a217fddf","JEWELRY_STORE_ROLE()":"bf10f396","MINTER_ROLE()":"d5391393","UPDATER_ROLE()":"47e63380","UPGRADE_INTERFACE_VERSION()":"ad3cb1cc","addAppraisal(uint256,uint256,string,string,string)":"d86ede4a","assignCertificate(uint256,address)":"054c6c59","balanceOf(address,uint256)":"00fdd58e","balanceOfBatch(address[],uint256[])":"4e1273f4","blacklistAddress(address,bool)":"455a4396","blacklistedAddresses(address)":"d5749d42","burnCertificate(uint256)":"93b16b45","burnedTokens(uint256)":"1c348dd3","certificateNumberToTokenId(string)":"43b6fe00","certificates(uint256)":"663b3e22","createCertificate(string,string,string,string,string,address,uint256,string)":"2eb979b3","createCertificatesBatchSingleOwner(string[],string[],address)":"6e5a2e41","getCertificate(uint256)":"51640fee","getJewelryStore(address)":"fff5465b","getRegisteredStores()":"d551a214","getRoleAdmin(bytes32)":"248a9ca3","getTokenAppraisals(uint256)":"12480ff1","getTokenIdByCertificateNumber(string)":"53dcc366","grantRole(bytes32,address)":"2f2ff15d","hasRole(bytes32,address)":"91d14854","initialize(string)":"f62d1888","isApprovedForAll(address,address)":"e985e9c5","jewelryStores(address)":"06310e21","owner()":"8da5cb5b","pause()":"8456cb59","paused()":"5c975abb","proxiableUUID()":"52d1902d","registerJewelryStore(address,string,string,string,string[])":"6b953891","registeredStores(uint256)":"5439b68a","renounceOwnership()":"715018a6","renounceRole(bytes32,address)":"36568abe","revokeRole(bytes32,address)":"d547741f","safeBatchTransferFrom(address,address,uint256[],uint256[],bytes)":"2eb2c2d6","safeTransferFrom(address,address,uint256,uint256,bytes)":"f242432a","setApprovalForAll(address,bool)":"a22cb465","supportsInterface(bytes4)":"01ffc9a7","suspendJewelryStore(address,string)":"9aa85d00","tokenAppraisals(uint256,uint256)":"8afbd497","totalSupply()":"18160ddd","transferOwnership(address)":"f2fde38b","unpause()":"3f4ba83a","updateCertificateMetadata(uint256,string)":"6c93ea46","updateCertificateMetadataBatch(uint256[],string[])":"77faa44f","upgradeToAndCall(address,bytes)":"4f1ef286","uri(uint256)":"0e89341c"}},"storageLayout":{"storage":[{"astId":8392,"contract":"contracts/VeralixMasterRegistryUpgradeable.sol:VeralixMasterRegistryUpgradeable","label":"certificates","offset":0,"slot":"0","type":"t_mapping(t_uint256,t_struct(Certificate)8350_storage)"},{"astId":8396,"contract":"contracts/VeralixMasterRegistryUpgradeable.sol:VeralixMasterRegistryUpgradeable","label":"certificateNumberToTokenId","offset":0,"slot":"1","type":"t_mapping(t_string_memory_ptr,t_uint256)"},{"astId":8401,"contract":"contracts/VeralixMasterRegistryUpgradeable.sol:VeralixMasterRegistryUpgradeable","label":"jewelryStores","offset":0,"slot":"2","type":"t_mapping(t_address,t_struct(JewelryStore)8370_storage)"},{"astId":8407,"contract":"contracts/VeralixMasterRegistryUpgradeable.sol:VeralixMasterRegistryUpgradeable","label":"tokenAppraisals","offset":0,"slot":"3","type":"t_mapping(t_uint256,t_array(t_struct(Appraisal)8387_storage)dyn_storage)"},{"astId":8411,"contract":"contracts/VeralixMasterRegistryUpgradeable.sol:VeralixMasterRegistryUpgradeable","label":"blacklistedAddresses","offset":0,"slot":"4","type":"t_mapping(t_address,t_bool)"},{"astId":8415,"contract":"contracts/VeralixMasterRegistryUpgradeable.sol:VeralixMasterRegistryUpgradeable","label":"burnedTokens","offset":0,"slot":"5","type":"t_mapping(t_uint256,t_bool)"},{"astId":8417,"contract":"contracts/VeralixMasterRegistryUpgradeable.sol:VeralixMasterRegistryUpgradeable","label":"_currentTokenId","offset":0,"slot":"6","type":"t_uint256"},{"astId":8420,"contract":"contracts/VeralixMasterRegistryUpgradeable.sol:VeralixMasterRegistryUpgradeable","label":"registeredStores","offset":0,"slot":"7","type":"t_array(t_address)dyn_storage"}],"types":{"t_address":{"encoding":"inplace","label":"address","numberOfBytes":"20"},"t_array(t_address)dyn_storage":{"base":"t_address","encoding":"dynamic_array","label":"address[]","numberOfBytes":"32"},"t_array(t_string_storage)dyn_storage":{"base":"t_string_storage","encoding":"dynamic_array","label":"string[]","numberOfBytes":"32"},"t_array(t_struct(Appraisal)8387_storage)dyn_storage":{"base":"t_struct(Appraisal)8387_storage","encoding":"dynamic_array","label":"struct VeralixMasterRegistryUpgradeable.Appraisal[]","numberOfBytes":"32"},"t_bool":{"encoding":"inplace","label":"bool","numberOfBytes":"1"},"t_mapping(t_address,t_bool)":{"encoding":"mapping","key":"t_address","label":"mapping(address => bool)","numberOfBytes":"32","value":"t_bool"},"t_mapping(t_address,t_struct(JewelryStore)8370_storage)":{"encoding":"mapping","key":"t_address","label":"mapping(address => struct VeralixMasterRegistryUpgradeable.JewelryStore)","numberOfBytes":"32","value":"t_struct(JewelryStore)8370_storage"},"t_mapping(t_string_memory_ptr,t_uint256)":{"encoding":"mapping","key":"t_string_memory_ptr","label":"mapping(string => uint256)","numberOfBytes":"32","value":"t_uint256"},"t_mapping(t_uint256,t_array(t_struct(Appraisal)8387_storage)dyn_storage)":{"encoding":"mapping","key":"t_uint256","label":"mapping(uint256 => struct VeralixMasterRegistryUpgradeable.Appraisal[])","numberOfBytes":"32","value":"t_array(t_struct(Appraisal)8387_storage)dyn_storage"},"t_mapping(t_uint256,t_bool)":{"encoding":"mapping","key":"t_uint256","label":"mapping(uint256 => bool)","numberOfBytes":"32","value":"t_bool"},"t_mapping(t_uint256,t_struct(Certificate)8350_storage)":{"encoding":"mapping","key":"t_uint256","label":"mapping(uint256 => struct VeralixMasterRegistryUpgradeable.Certificate)","numberOfBytes":"32","value":"t_struct(Certificate)8350_storage"},"t_string_memory_ptr":{"encoding":"bytes","label":"string","numberOfBytes":"32"},"t_string_storage":{"encoding":"bytes","label":"string","numberOfBytes":"32"},"t_struct(Appraisal)8387_storage":{"encoding":"inplace","label":"struct VeralixMasterRegistryUpgradeable.Appraisal","members":[{"astId":8372,"contract":"contracts/VeralixMasterRegistryUpgradeable.sol:VeralixMasterRegistryUpgradeable","label":"tokenId","offset":0,"slot":"0","type":"t_uint256"},{"astId":8374,"contract":"contracts/VeralixMasterRegistryUpgradeable.sol:VeralixMasterRegistryUpgradeable","label":"appraiser","offset":0,"slot":"1","type":"t_address"},{"astId":8376,"contract":"contracts/VeralixMasterRegistryUpgradeable.sol:VeralixMasterRegistryUpgradeable","label":"appraisalValue","offset":0,"slot":"2","type":"t_uint256"},{"astId":8378,"contract":"contracts/VeralixMasterRegistryUpgradeable.sol:VeralixMasterRegistryUpgradeable","label":"currency","offset":0,"slot":"3","type":"t_string_storage"},{"astId":8380,"contract":"contracts/VeralixMasterRegistryUpgradeable.sol:VeralixMasterRegistryUpgradeable","label":"appraisalDate","offset":0,"slot":"4","type":"t_uint256"},{"astId":8382,"contract":"contracts/VeralixMasterRegistryUpgradeable.sol:VeralixMasterRegistryUpgradeable","label":"appraisalDocument","offset":0,"slot":"5","type":"t_string_storage"},{"astId":8384,"contract":"contracts/VeralixMasterRegistryUpgradeable.sol:VeralixMasterRegistryUpgradeable","label":"isValid","offset":0,"slot":"6","type":"t_bool"},{"astId":8386,"contract":"contracts/VeralixMasterRegistryUpgradeable.sol:VeralixMasterRegistryUpgradeable","label":"notes","offset":0,"slot":"7","type":"t_string_storage"}],"numberOfBytes":"256"},"t_struct(Certificate)8350_storage":{"encoding":"inplace","label":"struct VeralixMasterRegistryUpgradeable.Certificate","members":[{"astId":8323,"contract":"contracts/VeralixMasterRegistryUpgradeable.sol:VeralixMasterRegistryUpgradeable","label":"tokenId","offset":0,"slot":"0","type":"t_uint256"},{"astId":8325,"contract":"contracts/VeralixMasterRegistryUpgradeable.sol:VeralixMasterRegistryUpgradeable","label":"certificateNumber","offset":0,"slot":"1","type":"t_string_storage"},{"astId":8327,"contract":"contracts/VeralixMasterRegistryUpgradeable.sol:VeralixMasterRegistryUpgradeable","label":"jewelryType","offset":0,"slot":"2","type":"t_string_storage"},{"astId":8329,"contract":"contracts/VeralixMasterRegistryUpgradeable.sol:VeralixMasterRegistryUpgradeable","label":"description","offset":0,"slot":"3","type":"t_string_storage"},{"astId":8331,"contract":"contracts/VeralixMasterRegistryUpgradeable.sol:VeralixMasterRegistryUpgradeable","label":"imageHash","offset":0,"slot":"4","type":"t_string_storage"},{"astId":8333,"contract":"contracts/VeralixMasterRegistryUpgradeable.sol:VeralixMasterRegistryUpgradeable","label":"metadataURI","offset":0,"slot":"5","type":"t_string_storage"},{"astId":8335,"contract":"contracts/VeralixMasterRegistryUpgradeable.sol:VeralixMasterRegistryUpgradeable","label":"currentOwner","offset":0,"slot":"6","type":"t_address"},{"astId":8337,"contract":"contracts/VeralixMasterRegistryUpgradeable.sol:VeralixMasterRegistryUpgradeable","label":"jewelryStore","offset":0,"slot":"7","type":"t_address"},{"astId":8339,"contract":"contracts/VeralixMasterRegistryUpgradeable.sol:VeralixMasterRegistryUpgradeable","label":"creationDate","offset":0,"slot":"8","type":"t_uint256"},{"astId":8341,"contract":"contracts/VeralixMasterRegistryUpgradeable.sol:VeralixMasterRegistryUpgradeable","label":"lastUpdate","offset":0,"slot":"9","type":"t_uint256"},{"astId":8343,"contract":"contracts/VeralixMasterRegistryUpgradeable.sol:VeralixMasterRegistryUpgradeable","label":"isActive","offset":0,"slot":"10","type":"t_bool"},{"astId":8345,"contract":"contracts/VeralixMasterRegistryUpgradeable.sol:VeralixMasterRegistryUpgradeable","label":"isTransferable","offset":1,"slot":"10","type":"t_bool"},{"astId":8347,"contract":"contracts/VeralixMasterRegistryUpgradeable.sol:VeralixMasterRegistryUpgradeable","label":"appraisalValue","offset":0,"slot":"11","type":"t_uint256"},{"astId":8349,"contract":"contracts/VeralixMasterRegistryUpgradeable.sol:VeralixMasterRegistryUpgradeable","label":"appraisalCurrency","offset":0,"slot":"12","type":"t_string_storage"}],"numberOfBytes":"416"},"t_struct(JewelryStore)8370_storage":{"encoding":"inplace","label":"struct VeralixMasterRegistryUpgradeable.JewelryStore","members":[{"astId":8352,"contract":"contracts/VeralixMasterRegistryUpgradeable.sol:VeralixMasterRegistryUpgradeable","label":"storeAddress","offset":0,"slot":"0","type":"t_address"},{"astId":8354,"contract":"contracts/VeralixMasterRegistryUpgradeable.sol:VeralixMasterRegistryUpgradeable","label":"storeName","offset":0,"slot":"1","type":"t_string_storage"},{"astId":8356,"contract":"contracts/VeralixMasterRegistryUpgradeable.sol:VeralixMasterRegistryUpgradeable","label":"licenseNumber","offset":0,"slot":"2","type":"t_string_storage"},{"astId":8358,"contract":"contracts/VeralixMasterRegistryUpgradeable.sol:VeralixMasterRegistryUpgradeable","label":"contactInfo","offset":0,"slot":"3","type":"t_string_storage"},{"astId":8360,"contract":"contracts/VeralixMasterRegistryUpgradeable.sol:VeralixMasterRegistryUpgradeable","label":"isActive","offset":0,"slot":"4","type":"t_bool"},{"astId":8362,"contract":"contracts/VeralixMasterRegistryUpgradeable.sol:VeralixMasterRegistryUpgradeable","label":"isVerified","offset":1,"slot":"4","type":"t_bool"},{"astId":8364,"contract":"contracts/VeralixMasterRegistryUpgradeable.sol:VeralixMasterRegistryUpgradeable","label":"registrationDate","offset":0,"slot":"5","type":"t_uint256"},{"astId":8366,"contract":"contracts/VeralixMasterRegistryUpgradeable.sol:VeralixMasterRegistryUpgradeable","label":"certificatesIssued","offset":0,"slot":"6","type":"t_uint256"},{"astId":8369,"contract":"contracts/VeralixMasterRegistryUpgradeable.sol:VeralixMasterRegistryUpgradeable","label":"specializations","offset":0,"slot":"7","type":"t_array(t_string_storage)dyn_storage"}],"numberOfBytes":"256"},"t_uint256":{"encoding":"inplace","label":"uint256","numberOfBytes":"32"}}}}}}